{
  "_format": "hh-sol-artifact-1",
  "contractName": "RealEstateDAO",
  "sourceName": "contracts/RealEstateDAO.sol",
  "abi": [
    {
      "inputs": [
        {
          "internalType": "contract ERC1155Supply",
          "name": "_tokens",
          "type": "address"
        }
      ],
      "stateMutability": "nonpayable",
      "type": "constructor"
    },
    {
      "anonymous": false,
      "inputs": [
        {
          "indexed": false,
          "internalType": "uint256",
          "name": "proposalId",
          "type": "uint256"
        },
        {
          "indexed": false,
          "internalType": "address",
          "name": "proposer",
          "type": "address"
        },
        {
          "indexed": false,
          "internalType": "uint256",
          "name": "tokenId",
          "type": "uint256"
        },
        {
          "indexed": false,
          "internalType": "string",
          "name": "description",
          "type": "string"
        },
        {
          "indexed": false,
          "internalType": "uint256",
          "name": "endBlock",
          "type": "uint256"
        }
      ],
      "name": "ProposalCreated",
      "type": "event"
    },
    {
      "anonymous": false,
      "inputs": [
        {
          "indexed": false,
          "internalType": "uint256",
          "name": "proposalId",
          "type": "uint256"
        }
      ],
      "name": "ProposalExecuted",
      "type": "event"
    },
    {
      "anonymous": false,
      "inputs": [
        {
          "indexed": false,
          "internalType": "uint256",
          "name": "proposalId",
          "type": "uint256"
        },
        {
          "indexed": false,
          "internalType": "address",
          "name": "voter",
          "type": "address"
        },
        {
          "indexed": false,
          "internalType": "bool",
          "name": "vote",
          "type": "bool"
        },
        {
          "indexed": false,
          "internalType": "uint256",
          "name": "weight",
          "type": "uint256"
        }
      ],
      "name": "Voted",
      "type": "event"
    },
    {
      "inputs": [
        {
          "internalType": "uint256",
          "name": "tokenId",
          "type": "uint256"
        },
        {
          "internalType": "string",
          "name": "description",
          "type": "string"
        }
      ],
      "name": "createProposal",
      "outputs": [],
      "stateMutability": "nonpayable",
      "type": "function"
    },
    {
      "inputs": [
        {
          "internalType": "uint256",
          "name": "proposalId",
          "type": "uint256"
        }
      ],
      "name": "executeProposal",
      "outputs": [],
      "stateMutability": "nonpayable",
      "type": "function"
    },
    {
      "inputs": [],
      "name": "getActiveProposals",
      "outputs": [
        {
          "components": [
            {
              "internalType": "uint256",
              "name": "id",
              "type": "uint256"
            },
            {
              "internalType": "address",
              "name": "proposer",
              "type": "address"
            },
            {
              "internalType": "uint256",
              "name": "tokenId",
              "type": "uint256"
            },
            {
              "internalType": "string",
              "name": "description",
              "type": "string"
            },
            {
              "internalType": "uint256",
              "name": "forVotes",
              "type": "uint256"
            },
            {
              "internalType": "uint256",
              "name": "againstVotes",
              "type": "uint256"
            },
            {
              "internalType": "uint256",
              "name": "totalTokens",
              "type": "uint256"
            },
            {
              "internalType": "uint256",
              "name": "endBlock",
              "type": "uint256"
            },
            {
              "internalType": "bool",
              "name": "executed",
              "type": "bool"
            }
          ],
          "internalType": "struct RealEstateDAO.Proposal[]",
          "name": "",
          "type": "tuple[]"
        }
      ],
      "stateMutability": "view",
      "type": "function"
    },
    {
      "inputs": [],
      "name": "getPastProposals",
      "outputs": [
        {
          "components": [
            {
              "internalType": "uint256",
              "name": "id",
              "type": "uint256"
            },
            {
              "internalType": "address",
              "name": "proposer",
              "type": "address"
            },
            {
              "internalType": "uint256",
              "name": "tokenId",
              "type": "uint256"
            },
            {
              "internalType": "string",
              "name": "description",
              "type": "string"
            },
            {
              "internalType": "uint256",
              "name": "forVotes",
              "type": "uint256"
            },
            {
              "internalType": "uint256",
              "name": "againstVotes",
              "type": "uint256"
            },
            {
              "internalType": "uint256",
              "name": "totalTokens",
              "type": "uint256"
            },
            {
              "internalType": "uint256",
              "name": "endBlock",
              "type": "uint256"
            },
            {
              "internalType": "bool",
              "name": "executed",
              "type": "bool"
            }
          ],
          "internalType": "struct RealEstateDAO.Proposal[]",
          "name": "",
          "type": "tuple[]"
        }
      ],
      "stateMutability": "view",
      "type": "function"
    },
    {
      "inputs": [
        {
          "internalType": "uint256",
          "name": "",
          "type": "uint256"
        },
        {
          "internalType": "address",
          "name": "",
          "type": "address"
        }
      ],
      "name": "hasVoted",
      "outputs": [
        {
          "internalType": "bool",
          "name": "",
          "type": "bool"
        }
      ],
      "stateMutability": "view",
      "type": "function"
    },
    {
      "inputs": [],
      "name": "proposalCount",
      "outputs": [
        {
          "internalType": "uint256",
          "name": "",
          "type": "uint256"
        }
      ],
      "stateMutability": "view",
      "type": "function"
    },
    {
      "inputs": [
        {
          "internalType": "uint256",
          "name": "",
          "type": "uint256"
        }
      ],
      "name": "proposals",
      "outputs": [
        {
          "internalType": "uint256",
          "name": "id",
          "type": "uint256"
        },
        {
          "internalType": "address",
          "name": "proposer",
          "type": "address"
        },
        {
          "internalType": "uint256",
          "name": "tokenId",
          "type": "uint256"
        },
        {
          "internalType": "string",
          "name": "description",
          "type": "string"
        },
        {
          "internalType": "uint256",
          "name": "forVotes",
          "type": "uint256"
        },
        {
          "internalType": "uint256",
          "name": "againstVotes",
          "type": "uint256"
        },
        {
          "internalType": "uint256",
          "name": "totalTokens",
          "type": "uint256"
        },
        {
          "internalType": "uint256",
          "name": "endBlock",
          "type": "uint256"
        },
        {
          "internalType": "bool",
          "name": "executed",
          "type": "bool"
        }
      ],
      "stateMutability": "view",
      "type": "function"
    },
    {
      "inputs": [],
      "name": "tokens",
      "outputs": [
        {
          "internalType": "contract ERC1155Supply",
          "name": "",
          "type": "address"
        }
      ],
      "stateMutability": "view",
      "type": "function"
    },
    {
      "inputs": [
        {
          "internalType": "uint256",
          "name": "proposalId",
          "type": "uint256"
        },
        {
          "internalType": "bool",
          "name": "decision",
          "type": "bool"
        }
      ],
      "name": "vote",
      "outputs": [],
      "stateMutability": "nonpayable",
      "type": "function"
    },
    {
      "inputs": [],
      "name": "votingDuration",
      "outputs": [
        {
          "internalType": "uint256",
          "name": "",
          "type": "uint256"
        }
      ],
      "stateMutability": "view",
      "type": "function"
    }
  ],
  "bytecode": "0x6080604052600060035560086004553480156200001b57600080fd5b506040516200221438038062002214833981810160405281019062000041919062000106565b806000806101000a81548173ffffffffffffffffffffffffffffffffffffffff021916908373ffffffffffffffffffffffffffffffffffffffff1602179055505062000138565b600080fd5b600073ffffffffffffffffffffffffffffffffffffffff82169050919050565b6000620000ba826200008d565b9050919050565b6000620000ce82620000ad565b9050919050565b620000e081620000c1565b8114620000ec57600080fd5b50565b6000815190506200010081620000d5565b92915050565b6000602082840312156200011f576200011e62000088565b5b60006200012f84828501620000ef565b91505092915050565b6120cc80620001486000396000f3fe608060405234801561001057600080fd5b506004361061009e5760003560e01c80635584c4f9116100665780635584c4f9146101615780639d63848a1461017f578063c9d27afe1461019d578063d4bdf023146101b9578063da35c664146101d75761009e565b8063013cf08b146100a357806302d52fa4146100db5780630d61b519146100f7578063132002fc146101135780634385963214610131575b600080fd5b6100bd60048036038101906100b89190611181565b6101f5565b6040516100d2999897969594939291906112a9565b60405180910390f35b6100f560048036038101906100f09190611472565b6102f8565b005b610111600480360381019061010c9190611181565b610628565b005b61011b61075f565b60405161012891906114ce565b60405180910390f35b61014b60048036038101906101469190611515565b610765565b6040516101589190611555565b60405180910390f35b610169610794565b604051610176919061176e565b60405180910390f35b610187610a9b565b60405161019491906117ef565b60405180910390f35b6101b760048036038101906101b29190611836565b610abf565b005b6101c1610de2565b6040516101ce919061176e565b60405180910390f35b6101df6110cd565b6040516101ec91906114ce565b60405180910390f35b60016020528060005260406000206000915090508060000154908060010160009054906101000a900473ffffffffffffffffffffffffffffffffffffffff169080600201549080600301805461024a906118a5565b80601f0160208091040260200160405190810160405280929190818152602001828054610276906118a5565b80156102c35780601f10610298576101008083540402835291602001916102c3565b820191906000526020600020905b8154815290600101906020018083116102a657829003601f168201915b5050505050908060040154908060050154908060060154908060070154908060080160009054906101000a900460ff16905089565b60008060009054906101000a900473ffffffffffffffffffffffffffffffffffffffff1673ffffffffffffffffffffffffffffffffffffffff1662fdd58e33856040518363ffffffff1660e01b81526004016103559291906118d6565b602060405180830381865afa158015610372573d6000803e3d6000fd5b505050506040513d601f19601f820116820180604052508101906103969190611914565b116103d6576040517f08c379a00000000000000000000000000000000000000000000000000000000081526004016103cd906119b3565b60405180910390fd5b60008060009054906101000a900473ffffffffffffffffffffffffffffffffffffffff1673ffffffffffffffffffffffffffffffffffffffff1663bd85b039846040518263ffffffff1660e01b815260040161043291906114ce565b602060405180830381865afa15801561044f573d6000803e3d6000fd5b505050506040513d601f19601f820116820180604052508101906104739190611914565b905060405180610120016040528060035481526020013373ffffffffffffffffffffffffffffffffffffffff1681526020018481526020018381526020016000815260200160008152602001828152602001600454436104d39190611a02565b8152602001600015158152506001600060035481526020019081526020016000206000820151816000015560208201518160010160006101000a81548173ffffffffffffffffffffffffffffffffffffffff021916908373ffffffffffffffffffffffffffffffffffffffff1602179055506040820151816002015560608201518160030190816105649190611bd8565b506080820151816004015560a0820151816005015560c0820151816006015560e082015181600701556101008201518160080160006101000a81548160ff021916908315150217905550905050600360008154809291906105c490611caa565b91905055507f7d7c160743ad71943eeebe651bc4c5454aa42da293805baa96a623e316f11f4b60016003546105f99190611cf2565b3385856004544361060a9190611a02565b60405161061b959493929190611d26565b60405180910390a1505050565b600060016000838152602001908152602001600020905080600701544311610685576040517f08c379a000000000000000000000000000000000000000000000000000000000815260040161067c90611dcc565b60405180910390fd5b8060080160009054906101000a900460ff16156106d7576040517f08c379a00000000000000000000000000000000000000000000000000000000081526004016106ce90611e38565b60405180910390fd5b806005015481600401541180156107015750600281600601546106fa9190611e87565b8160040154115b1561075b5760018160080160006101000a81548160ff0219169083151502179055507f712ae1383f79ac853f8d882153778e0260ef8f03b504e2866e0593e04d2b291f8260405161075291906114ce565b60405180910390a15b5050565b60045481565b60026020528160005260406000206020528060005260406000206000915091509054906101000a900460ff1681565b6060600060035467ffffffffffffffff8111156107b4576107b3611347565b5b6040519080825280602002602001820160405280156107ed57816020015b6107da6110d3565b8152602001906001900390816107d25790505b5090506000805b6003548110156109ca5760006001600083815260200190815260200160002090508060080160009054906101000a900460ff16158015610838575080600701544311155b156109b6578060405180610120016040529081600082015481526020016001820160009054906101000a900473ffffffffffffffffffffffffffffffffffffffff1673ffffffffffffffffffffffffffffffffffffffff1673ffffffffffffffffffffffffffffffffffffffff168152602001600282015481526020016003820180546108c4906118a5565b80601f01602080910402602001604051908101604052809291908181526020018280546108f0906118a5565b801561093d5780601f106109125761010080835404028352916020019161093d565b820191906000526020600020905b81548152906001019060200180831161092057829003601f168201915b50505050508152602001600482015481526020016005820154815260200160068201548152602001600782015481526020016008820160009054906101000a900460ff16151515158152505084848151811061099c5761099b611eb8565b5b602002602001018190525082806109b290611caa565b9350505b5080806109c290611caa565b9150506107f4565b5060008167ffffffffffffffff8111156109e7576109e6611347565b5b604051908082528060200260200182016040528015610a2057816020015b610a0d6110d3565b815260200190600190039081610a055790505b50905060005b82811015610a9157838181518110610a4157610a40611eb8565b5b60200260200101518260018386610a589190611cf2565b610a629190611cf2565b81518110610a7357610a72611eb8565b5b60200260200101819052508080610a8990611caa565b915050610a26565b5080935050505090565b60008054906101000a900473ffffffffffffffffffffffffffffffffffffffff1681565b60006001600084815260200190815260200160002090508060070154431115610b1d576040517f08c379a0000000000000000000000000000000000000000000000000000000008152600401610b1490611f33565b60405180910390fd5b8060080160009054906101000a900460ff1615610b6f576040517f08c379a0000000000000000000000000000000000000000000000000000000008152600401610b6690611e38565b60405180910390fd5b6002600084815260200190815260200160002060003373ffffffffffffffffffffffffffffffffffffffff1673ffffffffffffffffffffffffffffffffffffffff16815260200190815260200160002060009054906101000a900460ff1615610c0d576040517f08c379a0000000000000000000000000000000000000000000000000000000008152600401610c0490611fc5565b60405180910390fd5b60008060009054906101000a900473ffffffffffffffffffffffffffffffffffffffff1673ffffffffffffffffffffffffffffffffffffffff1662fdd58e3384600201546040518363ffffffff1660e01b8152600401610c6e9291906118d6565b602060405180830381865afa158015610c8b573d6000803e3d6000fd5b505050506040513d601f19601f82011682018060405250810190610caf9190611914565b905060008111610cf4576040517f08c379a0000000000000000000000000000000000000000000000000000000008152600401610ceb90612031565b60405180910390fd5b8215610d1a5780826004016000828254610d0e9190611a02565b92505081905550610d36565b80826005016000828254610d2e9190611a02565b925050819055505b60016002600086815260200190815260200160002060003373ffffffffffffffffffffffffffffffffffffffff1673ffffffffffffffffffffffffffffffffffffffff16815260200190815260200160002060006101000a81548160ff0219169083151502179055507f7c2de587c00d75474a0c6c6fa96fd3b45dc974cd4e8a75f712bb84c950dce1b584338584604051610dd49493929190612051565b60405180910390a150505050565b6060600060035467ffffffffffffffff811115610e0257610e01611347565b5b604051908082528060200260200182016040528015610e3b57816020015b610e286110d3565b815260200190600190039081610e205790505b5090506000805b600354811015610ffc5760006001600083815260200190815260200160002090508060070154431115610fe8578060405180610120016040529081600082015481526020016001820160009054906101000a900473ffffffffffffffffffffffffffffffffffffffff1673ffffffffffffffffffffffffffffffffffffffff1673ffffffffffffffffffffffffffffffffffffffff16815260200160028201548152602001600382018054610ef6906118a5565b80601f0160208091040260200160405190810160405280929190818152602001828054610f22906118a5565b8015610f6f5780601f10610f4457610100808354040283529160200191610f6f565b820191906000526020600020905b815481529060010190602001808311610f5257829003601f168201915b50505050508152602001600482015481526020016005820154815260200160068201548152602001600782015481526020016008820160009054906101000a900460ff161515151581525050848481518110610fce57610fcd611eb8565b5b60200260200101819052508280610fe490611caa565b9350505b508080610ff490611caa565b915050610e42565b5060008167ffffffffffffffff81111561101957611018611347565b5b60405190808252806020026020018201604052801561105257816020015b61103f6110d3565b8152602001906001900390816110375790505b50905060005b828110156110c35783818151811061107357611072611eb8565b5b6020026020010151826001838661108a9190611cf2565b6110949190611cf2565b815181106110a5576110a4611eb8565b5b602002602001018190525080806110bb90611caa565b915050611058565b5080935050505090565b60035481565b60405180610120016040528060008152602001600073ffffffffffffffffffffffffffffffffffffffff1681526020016000815260200160608152602001600081526020016000815260200160008152602001600081526020016000151581525090565b6000604051905090565b600080fd5b600080fd5b6000819050919050565b61115e8161114b565b811461116957600080fd5b50565b60008135905061117b81611155565b92915050565b60006020828403121561119757611196611141565b5b60006111a58482850161116c565b91505092915050565b6111b78161114b565b82525050565b600073ffffffffffffffffffffffffffffffffffffffff82169050919050565b60006111e8826111bd565b9050919050565b6111f8816111dd565b82525050565b600081519050919050565b600082825260208201905092915050565b60005b8381101561123857808201518184015260208101905061121d565b60008484015250505050565b6000601f19601f8301169050919050565b6000611260826111fe565b61126a8185611209565b935061127a81856020860161121a565b61128381611244565b840191505092915050565b60008115159050919050565b6112a38161128e565b82525050565b6000610120820190506112bf600083018c6111ae565b6112cc602083018b6111ef565b6112d9604083018a6111ae565b81810360608301526112eb8189611255565b90506112fa60808301886111ae565b61130760a08301876111ae565b61131460c08301866111ae565b61132160e08301856111ae565b61132f61010083018461129a565b9a9950505050505050505050565b600080fd5b600080fd5b7f4e487b7100000000000000000000000000000000000000000000000000000000600052604160045260246000fd5b61137f82611244565b810181811067ffffffffffffffff8211171561139e5761139d611347565b5b80604052505050565b60006113b1611137565b90506113bd8282611376565b919050565b600067ffffffffffffffff8211156113dd576113dc611347565b5b6113e682611244565b9050602081019050919050565b82818337600083830152505050565b6000611415611410846113c2565b6113a7565b90508281526020810184848401111561143157611430611342565b5b61143c8482856113f3565b509392505050565b600082601f8301126114595761145861133d565b5b8135611469848260208601611402565b91505092915050565b6000806040838503121561148957611488611141565b5b60006114978582860161116c565b925050602083013567ffffffffffffffff8111156114b8576114b7611146565b5b6114c485828601611444565b9150509250929050565b60006020820190506114e360008301846111ae565b92915050565b6114f2816111dd565b81146114fd57600080fd5b50565b60008135905061150f816114e9565b92915050565b6000806040838503121561152c5761152b611141565b5b600061153a8582860161116c565b925050602061154b85828601611500565b9150509250929050565b600060208201905061156a600083018461129a565b92915050565b600081519050919050565b600082825260208201905092915050565b6000819050602082019050919050565b6115a58161114b565b82525050565b6115b4816111dd565b82525050565b600082825260208201905092915050565b60006115d6826111fe565b6115e081856115ba565b93506115f081856020860161121a565b6115f981611244565b840191505092915050565b61160d8161128e565b82525050565b60006101208301600083015161162c600086018261159c565b50602083015161163f60208601826115ab565b506040830151611652604086018261159c565b506060830151848203606086015261166a82826115cb565b915050608083015161167f608086018261159c565b5060a083015161169260a086018261159c565b5060c08301516116a560c086018261159c565b5060e08301516116b860e086018261159c565b506101008301516116cd610100860182611604565b508091505092915050565b60006116e48383611613565b905092915050565b6000602082019050919050565b600061170482611570565b61170e818561157b565b9350836020820285016117208561158c565b8060005b8581101561175c578484038952815161173d85826116d8565b9450611748836116ec565b925060208a01995050600181019050611724565b50829750879550505050505092915050565b6000602082019050818103600083015261178881846116f9565b905092915050565b6000819050919050565b60006117b56117b06117ab846111bd565b611790565b6111bd565b9050919050565b60006117c78261179a565b9050919050565b60006117d9826117bc565b9050919050565b6117e9816117ce565b82525050565b600060208201905061180460008301846117e0565b92915050565b6118138161128e565b811461181e57600080fd5b50565b6000813590506118308161180a565b92915050565b6000806040838503121561184d5761184c611141565b5b600061185b8582860161116c565b925050602061186c85828601611821565b9150509250929050565b7f4e487b7100000000000000000000000000000000000000000000000000000000600052602260045260246000fd5b600060028204905060018216806118bd57607f821691505b6020821081036118d0576118cf611876565b5b50919050565b60006040820190506118eb60008301856111ef565b6118f860208301846111ae565b9392505050565b60008151905061190e81611155565b92915050565b60006020828403121561192a57611929611141565b5b6000611938848285016118ff565b91505092915050565b7f4d757374206265206120746f6b656e20686f6c64657220746f2063726561746560008201527f2070726f706f73616c0000000000000000000000000000000000000000000000602082015250565b600061199d602983611209565b91506119a882611941565b604082019050919050565b600060208201905081810360008301526119cc81611990565b9050919050565b7f4e487b7100000000000000000000000000000000000000000000000000000000600052601160045260246000fd5b6000611a0d8261114b565b9150611a188361114b565b9250828201905080821115611a3057611a2f6119d3565b5b92915050565b60008190508160005260206000209050919050565b60006020601f8301049050919050565b600082821b905092915050565b600060088302611a987fffffffffffffffffffffffffffffffffffffffffffffffffffffffffffffffff82611a5b565b611aa28683611a5b565b95508019841693508086168417925050509392505050565b6000611ad5611ad0611acb8461114b565b611790565b61114b565b9050919050565b6000819050919050565b611aef83611aba565b611b03611afb82611adc565b848454611a68565b825550505050565b600090565b611b18611b0b565b611b23818484611ae6565b505050565b5b81811015611b4757611b3c600082611b10565b600181019050611b29565b5050565b601f821115611b8c57611b5d81611a36565b611b6684611a4b565b81016020851015611b75578190505b611b89611b8185611a4b565b830182611b28565b50505b505050565b600082821c905092915050565b6000611baf60001984600802611b91565b1980831691505092915050565b6000611bc88383611b9e565b9150826002028217905092915050565b611be1826111fe565b67ffffffffffffffff811115611bfa57611bf9611347565b5b611c0482546118a5565b611c0f828285611b4b565b600060209050601f831160018114611c425760008415611c30578287015190505b611c3a8582611bbc565b865550611ca2565b601f198416611c5086611a36565b60005b82811015611c7857848901518255600182019150602085019450602081019050611c53565b86831015611c955784890151611c91601f891682611b9e565b8355505b6001600288020188555050505b505050505050565b6000611cb58261114b565b91507fffffffffffffffffffffffffffffffffffffffffffffffffffffffffffffffff8203611ce757611ce66119d3565b5b600182019050919050565b6000611cfd8261114b565b9150611d088361114b565b9250828203905081811115611d2057611d1f6119d3565b5b92915050565b600060a082019050611d3b60008301886111ae565b611d4860208301876111ef565b611d5560408301866111ae565b8181036060830152611d678185611255565b9050611d7660808301846111ae565b9695505050505050565b7f566f74696e6720706572696f6420686173206e6f7420656e6465640000000000600082015250565b6000611db6601b83611209565b9150611dc182611d80565b602082019050919050565b60006020820190508181036000830152611de581611da9565b9050919050565b7f50726f706f73616c20686173206265656e206578656375746564000000000000600082015250565b6000611e22601a83611209565b9150611e2d82611dec565b602082019050919050565b60006020820190508181036000830152611e5181611e15565b9050919050565b7f4e487b7100000000000000000000000000000000000000000000000000000000600052601260045260246000fd5b6000611e928261114b565b9150611e9d8361114b565b925082611ead57611eac611e58565b5b828204905092915050565b7f4e487b7100000000000000000000000000000000000000000000000000000000600052603260045260246000fd5b7f566f74696e6720706572696f642068617320656e646564000000000000000000600082015250565b6000611f1d601783611209565b9150611f2882611ee7565b602082019050919050565b60006020820190508181036000830152611f4c81611f10565b9050919050565b7f596f75206861766520616c726561647920766f746564206f6e2074686973207060008201527f726f706f73616c00000000000000000000000000000000000000000000000000602082015250565b6000611faf602783611209565b9150611fba82611f53565b604082019050919050565b60006020820190508181036000830152611fde81611fa2565b9050919050565b7f4d757374206265206120746f6b656e20686f6c64657220746f20766f74650000600082015250565b600061201b601e83611209565b915061202682611fe5565b602082019050919050565b6000602082019050818103600083015261204a8161200e565b9050919050565b600060808201905061206660008301876111ae565b61207360208301866111ef565b612080604083018561129a565b61208d60608301846111ae565b9594505050505056fea2646970667358221220cdf0982a5b95ccc7e9edb593f14c423e2e3ae31184983ba7cb43b0ab365fbb1664736f6c63430008130033",
  "linkReferences": {},
  "deployedLinkReferences": {}
}