{
  "_format": "hh-sol-artifact-1",
  "contractName": "RealEstateDAO",
  "sourceName": "contracts/RealEstateDAO.sol",
  "abi": [
    {
      "inputs": [
        {
          "internalType": "contract ERC1155Supply",
          "name": "_tokens",
          "type": "address"
        }
      ],
      "stateMutability": "nonpayable",
      "type": "constructor"
    },
    {
      "anonymous": false,
      "inputs": [
        {
          "indexed": false,
          "internalType": "uint256",
          "name": "proposalId",
          "type": "uint256"
        },
        {
          "indexed": false,
          "internalType": "address",
          "name": "proposer",
          "type": "address"
        },
        {
          "indexed": false,
          "internalType": "uint256",
          "name": "tokenId",
          "type": "uint256"
        },
        {
          "indexed": false,
          "internalType": "string",
          "name": "description",
          "type": "string"
        },
        {
          "indexed": false,
          "internalType": "uint256",
          "name": "endBlock",
          "type": "uint256"
        }
      ],
      "name": "ProposalCreated",
      "type": "event"
    },
    {
      "anonymous": false,
      "inputs": [
        {
          "indexed": false,
          "internalType": "uint256",
          "name": "proposalId",
          "type": "uint256"
        }
      ],
      "name": "ProposalExecuted",
      "type": "event"
    },
    {
      "anonymous": false,
      "inputs": [
        {
          "indexed": false,
          "internalType": "uint256",
          "name": "proposalId",
          "type": "uint256"
        },
        {
          "indexed": false,
          "internalType": "address",
          "name": "voter",
          "type": "address"
        },
        {
          "indexed": false,
          "internalType": "bool",
          "name": "vote",
          "type": "bool"
        },
        {
          "indexed": false,
          "internalType": "uint256",
          "name": "weight",
          "type": "uint256"
        }
      ],
      "name": "Voted",
      "type": "event"
    },
    {
      "inputs": [
        {
          "internalType": "uint256",
          "name": "tokenId",
          "type": "uint256"
        },
        {
          "internalType": "string",
          "name": "description",
          "type": "string"
        }
      ],
      "name": "createProposal",
      "outputs": [],
      "stateMutability": "nonpayable",
      "type": "function"
    },
    {
      "inputs": [
        {
          "internalType": "uint256",
          "name": "proposalId",
          "type": "uint256"
        }
      ],
      "name": "executeProposal",
      "outputs": [],
      "stateMutability": "nonpayable",
      "type": "function"
    },
    {
      "inputs": [],
      "name": "proposalCount",
      "outputs": [
        {
          "internalType": "uint256",
          "name": "",
          "type": "uint256"
        }
      ],
      "stateMutability": "view",
      "type": "function"
    },
    {
      "inputs": [
        {
          "internalType": "uint256",
          "name": "",
          "type": "uint256"
        }
      ],
      "name": "proposals",
      "outputs": [
        {
          "internalType": "address",
          "name": "proposer",
          "type": "address"
        },
        {
          "internalType": "uint256",
          "name": "tokenId",
          "type": "uint256"
        },
        {
          "internalType": "string",
          "name": "description",
          "type": "string"
        },
        {
          "internalType": "uint256",
          "name": "forVotes",
          "type": "uint256"
        },
        {
          "internalType": "uint256",
          "name": "againstVotes",
          "type": "uint256"
        },
        {
          "internalType": "uint256",
          "name": "endBlock",
          "type": "uint256"
        },
        {
          "internalType": "bool",
          "name": "executed",
          "type": "bool"
        }
      ],
      "stateMutability": "view",
      "type": "function"
    },
    {
      "inputs": [],
      "name": "tokens",
      "outputs": [
        {
          "internalType": "contract ERC1155Supply",
          "name": "",
          "type": "address"
        }
      ],
      "stateMutability": "view",
      "type": "function"
    },
    {
      "inputs": [
        {
          "internalType": "uint256",
          "name": "proposalId",
          "type": "uint256"
        },
        {
          "internalType": "bool",
          "name": "decision",
          "type": "bool"
        }
      ],
      "name": "vote",
      "outputs": [],
      "stateMutability": "nonpayable",
      "type": "function"
    },
    {
      "inputs": [],
      "name": "votingDuration",
      "outputs": [
        {
          "internalType": "uint256",
          "name": "",
          "type": "uint256"
        }
      ],
      "stateMutability": "view",
      "type": "function"
    }
  ],
  "bytecode": "0x6080604052600060025560646003553480156200001b57600080fd5b506040516200163838038062001638833981810160405281019062000041919062000106565b806000806101000a81548173ffffffffffffffffffffffffffffffffffffffff021916908373ffffffffffffffffffffffffffffffffffffffff1602179055505062000138565b600080fd5b600073ffffffffffffffffffffffffffffffffffffffff82169050919050565b6000620000ba826200008d565b9050919050565b6000620000ce82620000ad565b9050919050565b620000e081620000c1565b8114620000ec57600080fd5b50565b6000815190506200010081620000d5565b92915050565b6000602082840312156200011f576200011e62000088565b5b60006200012f84828501620000ef565b91505092915050565b6114f080620001486000396000f3fe608060405234801561001057600080fd5b506004361061007d5760003560e01c8063132002fc1161005b578063132002fc146100f05780639d63848a1461010e578063c9d27afe1461012c578063da35c664146101485761007d565b8063013cf08b1461008257806302d52fa4146100b85780630d61b519146100d4575b600080fd5b61009c6004803603810190610097919061092b565b610166565b6040516100af9796959493929190610a53565b60405180910390f35b6100d260048036038101906100cd9190610bfe565b61025d565b005b6100ee60048036038101906100e9919061092b565b6104c5565b005b6100f8610695565b6040516101059190610c5a565b60405180910390f35b61011661069b565b6040516101239190610cd4565b60405180910390f35b61014660048036038101906101419190610d1b565b6106bf565b005b6101506108db565b60405161015d9190610c5a565b60405180910390f35b60016020528060005260406000206000915090508060000160009054906101000a900473ffffffffffffffffffffffffffffffffffffffff16908060010154908060020180546101b590610d8a565b80601f01602080910402602001604051908101604052809291908181526020018280546101e190610d8a565b801561022e5780601f106102035761010080835404028352916020019161022e565b820191906000526020600020905b81548152906001019060200180831161021157829003601f168201915b5050505050908060030154908060040154908060050154908060060160009054906101000a900460ff16905087565b60008060009054906101000a900473ffffffffffffffffffffffffffffffffffffffff1673ffffffffffffffffffffffffffffffffffffffff1662fdd58e33856040518363ffffffff1660e01b81526004016102ba929190610dbb565b602060405180830381865afa1580156102d7573d6000803e3d6000fd5b505050506040513d601f19601f820116820180604052508101906102fb9190610df9565b1161033b576040517f08c379a000000000000000000000000000000000000000000000000000000000815260040161033290610e98565b60405180910390fd5b6040518060e001604052803373ffffffffffffffffffffffffffffffffffffffff16815260200183815260200182815260200160008152602001600081526020016003544361038a9190610ee7565b81526020016000151581525060016000600260008154809291906103ad90610f1b565b91905055815260200190815260200160002060008201518160000160006101000a81548173ffffffffffffffffffffffffffffffffffffffff021916908373ffffffffffffffffffffffffffffffffffffffff1602179055506020820151816001015560408201518160020190816104259190611105565b50606082015181600301556080820151816004015560a0820151816005015560c08201518160060160006101000a81548160ff0219169083151502179055509050507f7d7c160743ad71943eeebe651bc4c5454aa42da293805baa96a623e316f11f4b600160025461049791906111d7565b338484600354436104a89190610ee7565b6040516104b995949392919061120b565b60405180910390a15050565b600060016000838152602001908152602001600020905080600501544311610522576040517f08c379a0000000000000000000000000000000000000000000000000000000008152600401610519906112b1565b60405180910390fd5b8060060160009054906101000a900460ff1615610574576040517f08c379a000000000000000000000000000000000000000000000000000000000815260040161056b9061131d565b60405180910390fd5b806004015481600301541180156106375750600260008054906101000a900473ffffffffffffffffffffffffffffffffffffffff1673ffffffffffffffffffffffffffffffffffffffff1663bd85b03983600101546040518263ffffffff1660e01b81526004016105e59190610c5a565b602060405180830381865afa158015610602573d6000803e3d6000fd5b505050506040513d601f19601f820116820180604052508101906106269190610df9565b610630919061136c565b8160030154115b156106915760018160060160006101000a81548160ff0219169083151502179055507f712ae1383f79ac853f8d882153778e0260ef8f03b504e2866e0593e04d2b291f826040516106889190610c5a565b60405180910390a15b5050565b60035481565b60008054906101000a900473ffffffffffffffffffffffffffffffffffffffff1681565b6000600160008481526020019081526020016000209050806005015443111561071d576040517f08c379a0000000000000000000000000000000000000000000000000000000008152600401610714906113e9565b60405180910390fd5b8060060160009054906101000a900460ff161561076f576040517f08c379a00000000000000000000000000000000000000000000000000000000081526004016107669061131d565b60405180910390fd5b60008060009054906101000a900473ffffffffffffffffffffffffffffffffffffffff1673ffffffffffffffffffffffffffffffffffffffff1662fdd58e3384600101546040518363ffffffff1660e01b81526004016107d0929190610dbb565b602060405180830381865afa1580156107ed573d6000803e3d6000fd5b505050506040513d601f19601f820116820180604052508101906108119190610df9565b905060008111610856576040517f08c379a000000000000000000000000000000000000000000000000000000000815260040161084d90611455565b60405180910390fd5b821561087c57808260030160008282546108709190610ee7565b92505081905550610898565b808260040160008282546108909190610ee7565b925050819055505b7f7c2de587c00d75474a0c6c6fa96fd3b45dc974cd4e8a75f712bb84c950dce1b5843385846040516108cd9493929190611475565b60405180910390a150505050565b60025481565b6000604051905090565b600080fd5b600080fd5b6000819050919050565b610908816108f5565b811461091357600080fd5b50565b600081359050610925816108ff565b92915050565b600060208284031215610941576109406108eb565b5b600061094f84828501610916565b91505092915050565b600073ffffffffffffffffffffffffffffffffffffffff82169050919050565b600061098382610958565b9050919050565b61099381610978565b82525050565b6109a2816108f5565b82525050565b600081519050919050565b600082825260208201905092915050565b60005b838110156109e25780820151818401526020810190506109c7565b60008484015250505050565b6000601f19601f8301169050919050565b6000610a0a826109a8565b610a1481856109b3565b9350610a248185602086016109c4565b610a2d816109ee565b840191505092915050565b60008115159050919050565b610a4d81610a38565b82525050565b600060e082019050610a68600083018a61098a565b610a756020830189610999565b8181036040830152610a8781886109ff565b9050610a966060830187610999565b610aa36080830186610999565b610ab060a0830185610999565b610abd60c0830184610a44565b98975050505050505050565b600080fd5b600080fd5b7f4e487b7100000000000000000000000000000000000000000000000000000000600052604160045260246000fd5b610b0b826109ee565b810181811067ffffffffffffffff82111715610b2a57610b29610ad3565b5b80604052505050565b6000610b3d6108e1565b9050610b498282610b02565b919050565b600067ffffffffffffffff821115610b6957610b68610ad3565b5b610b72826109ee565b9050602081019050919050565b82818337600083830152505050565b6000610ba1610b9c84610b4e565b610b33565b905082815260208101848484011115610bbd57610bbc610ace565b5b610bc8848285610b7f565b509392505050565b600082601f830112610be557610be4610ac9565b5b8135610bf5848260208601610b8e565b91505092915050565b60008060408385031215610c1557610c146108eb565b5b6000610c2385828601610916565b925050602083013567ffffffffffffffff811115610c4457610c436108f0565b5b610c5085828601610bd0565b9150509250929050565b6000602082019050610c6f6000830184610999565b92915050565b6000819050919050565b6000610c9a610c95610c9084610958565b610c75565b610958565b9050919050565b6000610cac82610c7f565b9050919050565b6000610cbe82610ca1565b9050919050565b610cce81610cb3565b82525050565b6000602082019050610ce96000830184610cc5565b92915050565b610cf881610a38565b8114610d0357600080fd5b50565b600081359050610d1581610cef565b92915050565b60008060408385031215610d3257610d316108eb565b5b6000610d4085828601610916565b9250506020610d5185828601610d06565b9150509250929050565b7f4e487b7100000000000000000000000000000000000000000000000000000000600052602260045260246000fd5b60006002820490506001821680610da257607f821691505b602082108103610db557610db4610d5b565b5b50919050565b6000604082019050610dd0600083018561098a565b610ddd6020830184610999565b9392505050565b600081519050610df3816108ff565b92915050565b600060208284031215610e0f57610e0e6108eb565b5b6000610e1d84828501610de4565b91505092915050565b7f4d757374206265206120746f6b656e20686f6c64657220746f2063726561746560008201527f2070726f706f73616c0000000000000000000000000000000000000000000000602082015250565b6000610e826029836109b3565b9150610e8d82610e26565b604082019050919050565b60006020820190508181036000830152610eb181610e75565b9050919050565b7f4e487b7100000000000000000000000000000000000000000000000000000000600052601160045260246000fd5b6000610ef2826108f5565b9150610efd836108f5565b9250828201905080821115610f1557610f14610eb8565b5b92915050565b6000610f26826108f5565b91507fffffffffffffffffffffffffffffffffffffffffffffffffffffffffffffffff8203610f5857610f57610eb8565b5b600182019050919050565b60008190508160005260206000209050919050565b60006020601f8301049050919050565b600082821b905092915050565b600060088302610fc57fffffffffffffffffffffffffffffffffffffffffffffffffffffffffffffffff82610f88565b610fcf8683610f88565b95508019841693508086168417925050509392505050565b6000611002610ffd610ff8846108f5565b610c75565b6108f5565b9050919050565b6000819050919050565b61101c83610fe7565b61103061102882611009565b848454610f95565b825550505050565b600090565b611045611038565b611050818484611013565b505050565b5b818110156110745761106960008261103d565b600181019050611056565b5050565b601f8211156110b95761108a81610f63565b61109384610f78565b810160208510156110a2578190505b6110b66110ae85610f78565b830182611055565b50505b505050565b600082821c905092915050565b60006110dc600019846008026110be565b1980831691505092915050565b60006110f583836110cb565b9150826002028217905092915050565b61110e826109a8565b67ffffffffffffffff81111561112757611126610ad3565b5b6111318254610d8a565b61113c828285611078565b600060209050601f83116001811461116f576000841561115d578287015190505b61116785826110e9565b8655506111cf565b601f19841661117d86610f63565b60005b828110156111a557848901518255600182019150602085019450602081019050611180565b868310156111c257848901516111be601f8916826110cb565b8355505b6001600288020188555050505b505050505050565b60006111e2826108f5565b91506111ed836108f5565b925082820390508181111561120557611204610eb8565b5b92915050565b600060a0820190506112206000830188610999565b61122d602083018761098a565b61123a6040830186610999565b818103606083015261124c81856109ff565b905061125b6080830184610999565b9695505050505050565b7f566f74696e6720706572696f6420686173206e6f7420656e6465640000000000600082015250565b600061129b601b836109b3565b91506112a682611265565b602082019050919050565b600060208201905081810360008301526112ca8161128e565b9050919050565b7f50726f706f73616c20686173206265656e206578656375746564000000000000600082015250565b6000611307601a836109b3565b9150611312826112d1565b602082019050919050565b60006020820190508181036000830152611336816112fa565b9050919050565b7f4e487b7100000000000000000000000000000000000000000000000000000000600052601260045260246000fd5b6000611377826108f5565b9150611382836108f5565b9250826113925761139161133d565b5b828204905092915050565b7f566f74696e6720706572696f642068617320656e646564000000000000000000600082015250565b60006113d36017836109b3565b91506113de8261139d565b602082019050919050565b60006020820190508181036000830152611402816113c6565b9050919050565b7f4d757374206265206120746f6b656e20686f6c64657220746f20766f74650000600082015250565b600061143f601e836109b3565b915061144a82611409565b602082019050919050565b6000602082019050818103600083015261146e81611432565b9050919050565b600060808201905061148a6000830187610999565b611497602083018661098a565b6114a46040830185610a44565b6114b16060830184610999565b9594505050505056fea264697066735822122090d9200110fd6b3f52445f52fdb6a5f202b95444d0e35ee7fe2398597ab5bc3c64736f6c63430008130033",
  "linkReferences": {},
  "deployedLinkReferences": {}
}