{
  "_format": "hh-sol-artifact-1",
  "contractName": "RealEstateDAO",
  "sourceName": "contracts/RealEstateDAO.sol",
  "abi": [
    {
      "inputs": [
        {
          "internalType": "contract ERC1155Supply",
          "name": "_tokens",
          "type": "address"
        }
      ],
      "stateMutability": "nonpayable",
      "type": "constructor"
    },
    {
      "anonymous": false,
      "inputs": [
        {
          "indexed": false,
          "internalType": "uint256",
          "name": "proposalId",
          "type": "uint256"
        },
        {
          "indexed": false,
          "internalType": "address",
          "name": "proposer",
          "type": "address"
        },
        {
          "indexed": false,
          "internalType": "uint256",
          "name": "tokenId",
          "type": "uint256"
        },
        {
          "indexed": false,
          "internalType": "string",
          "name": "description",
          "type": "string"
        },
        {
          "indexed": false,
          "internalType": "uint256",
          "name": "endBlock",
          "type": "uint256"
        }
      ],
      "name": "ProposalCreated",
      "type": "event"
    },
    {
      "anonymous": false,
      "inputs": [
        {
          "indexed": false,
          "internalType": "uint256",
          "name": "proposalId",
          "type": "uint256"
        }
      ],
      "name": "ProposalExecuted",
      "type": "event"
    },
    {
      "anonymous": false,
      "inputs": [
        {
          "indexed": false,
          "internalType": "uint256",
          "name": "proposalId",
          "type": "uint256"
        },
        {
          "indexed": false,
          "internalType": "address",
          "name": "voter",
          "type": "address"
        },
        {
          "indexed": false,
          "internalType": "bool",
          "name": "vote",
          "type": "bool"
        },
        {
          "indexed": false,
          "internalType": "uint256",
          "name": "weight",
          "type": "uint256"
        }
      ],
      "name": "Voted",
      "type": "event"
    },
    {
      "inputs": [
        {
          "internalType": "uint256",
          "name": "tokenId",
          "type": "uint256"
        },
        {
          "internalType": "string",
          "name": "description",
          "type": "string"
        }
      ],
      "name": "createProposal",
      "outputs": [],
      "stateMutability": "nonpayable",
      "type": "function"
    },
    {
      "inputs": [
        {
          "internalType": "uint256",
          "name": "proposalId",
          "type": "uint256"
        }
      ],
      "name": "executeProposal",
      "outputs": [],
      "stateMutability": "nonpayable",
      "type": "function"
    },
    {
      "inputs": [],
      "name": "getActiveProposals",
      "outputs": [
        {
          "components": [
            {
              "internalType": "uint256",
              "name": "id",
              "type": "uint256"
            },
            {
              "internalType": "address",
              "name": "proposer",
              "type": "address"
            },
            {
              "internalType": "uint256",
              "name": "tokenId",
              "type": "uint256"
            },
            {
              "internalType": "string",
              "name": "description",
              "type": "string"
            },
            {
              "internalType": "uint256",
              "name": "forVotes",
              "type": "uint256"
            },
            {
              "internalType": "uint256",
              "name": "againstVotes",
              "type": "uint256"
            },
            {
              "internalType": "uint256",
              "name": "totalTokens",
              "type": "uint256"
            },
            {
              "internalType": "uint256",
              "name": "endBlock",
              "type": "uint256"
            },
            {
              "internalType": "bool",
              "name": "executed",
              "type": "bool"
            }
          ],
          "internalType": "struct RealEstateDAO.Proposal[]",
          "name": "",
          "type": "tuple[]"
        }
      ],
      "stateMutability": "view",
      "type": "function"
    },
    {
      "inputs": [],
      "name": "getPastProposals",
      "outputs": [
        {
          "components": [
            {
              "internalType": "uint256",
              "name": "id",
              "type": "uint256"
            },
            {
              "internalType": "address",
              "name": "proposer",
              "type": "address"
            },
            {
              "internalType": "uint256",
              "name": "tokenId",
              "type": "uint256"
            },
            {
              "internalType": "string",
              "name": "description",
              "type": "string"
            },
            {
              "internalType": "uint256",
              "name": "forVotes",
              "type": "uint256"
            },
            {
              "internalType": "uint256",
              "name": "againstVotes",
              "type": "uint256"
            },
            {
              "internalType": "uint256",
              "name": "totalTokens",
              "type": "uint256"
            },
            {
              "internalType": "uint256",
              "name": "endBlock",
              "type": "uint256"
            },
            {
              "internalType": "bool",
              "name": "executed",
              "type": "bool"
            }
          ],
          "internalType": "struct RealEstateDAO.Proposal[]",
          "name": "",
          "type": "tuple[]"
        }
      ],
      "stateMutability": "view",
      "type": "function"
    },
    {
      "inputs": [],
      "name": "proposalCount",
      "outputs": [
        {
          "internalType": "uint256",
          "name": "",
          "type": "uint256"
        }
      ],
      "stateMutability": "view",
      "type": "function"
    },
    {
      "inputs": [
        {
          "internalType": "uint256",
          "name": "",
          "type": "uint256"
        }
      ],
      "name": "proposals",
      "outputs": [
        {
          "internalType": "uint256",
          "name": "id",
          "type": "uint256"
        },
        {
          "internalType": "address",
          "name": "proposer",
          "type": "address"
        },
        {
          "internalType": "uint256",
          "name": "tokenId",
          "type": "uint256"
        },
        {
          "internalType": "string",
          "name": "description",
          "type": "string"
        },
        {
          "internalType": "uint256",
          "name": "forVotes",
          "type": "uint256"
        },
        {
          "internalType": "uint256",
          "name": "againstVotes",
          "type": "uint256"
        },
        {
          "internalType": "uint256",
          "name": "totalTokens",
          "type": "uint256"
        },
        {
          "internalType": "uint256",
          "name": "endBlock",
          "type": "uint256"
        },
        {
          "internalType": "bool",
          "name": "executed",
          "type": "bool"
        }
      ],
      "stateMutability": "view",
      "type": "function"
    },
    {
      "inputs": [],
      "name": "tokens",
      "outputs": [
        {
          "internalType": "contract ERC1155Supply",
          "name": "",
          "type": "address"
        }
      ],
      "stateMutability": "view",
      "type": "function"
    },
    {
      "inputs": [
        {
          "internalType": "uint256",
          "name": "proposalId",
          "type": "uint256"
        },
        {
          "internalType": "bool",
          "name": "decision",
          "type": "bool"
        }
      ],
      "name": "vote",
      "outputs": [],
      "stateMutability": "nonpayable",
      "type": "function"
    },
    {
      "inputs": [],
      "name": "votingDuration",
      "outputs": [
        {
          "internalType": "uint256",
          "name": "",
          "type": "uint256"
        }
      ],
      "stateMutability": "view",
      "type": "function"
    }
  ],
  "bytecode": "0x6080604052600060025560646003553480156200001b57600080fd5b5060405162001f5c38038062001f5c833981810160405281019062000041919062000106565b806000806101000a81548173ffffffffffffffffffffffffffffffffffffffff021916908373ffffffffffffffffffffffffffffffffffffffff1602179055505062000138565b600080fd5b600073ffffffffffffffffffffffffffffffffffffffff82169050919050565b6000620000ba826200008d565b9050919050565b6000620000ce82620000ad565b9050919050565b620000e081620000c1565b8114620000ec57600080fd5b50565b6000815190506200010081620000d5565b92915050565b6000602082840312156200011f576200011e62000088565b5b60006200012f84828501620000ef565b91505092915050565b611e1480620001486000396000f3fe608060405234801561001057600080fd5b50600436106100935760003560e01c80635584c4f9116100665780635584c4f9146101265780639d63848a14610144578063c9d27afe14610162578063d4bdf0231461017e578063da35c6641461019c57610093565b8063013cf08b1461009857806302d52fa4146100d05780630d61b519146100ec578063132002fc14610108575b600080fd5b6100b260048036038101906100ad9190610fe2565b6101ba565b6040516100c79998979695949392919061110a565b60405180910390f35b6100ea60048036038101906100e591906112d3565b6102bd565b005b61010660048036038101906101019190610fe2565b6105ed565b005b610110610724565b60405161011d919061132f565b60405180910390f35b61012e61072a565b60405161013b9190611548565b60405180910390f35b61014c610a1a565b60405161015991906115c9565b60405180910390f35b61017c60048036038101906101779190611610565b610a3e565b005b610186610c5a565b6040516101939190611548565b60405180910390f35b6101a4610f2e565b6040516101b1919061132f565b60405180910390f35b60016020528060005260406000206000915090508060000154908060010160009054906101000a900473ffffffffffffffffffffffffffffffffffffffff169080600201549080600301805461020f9061167f565b80601f016020809104026020016040519081016040528092919081815260200182805461023b9061167f565b80156102885780601f1061025d57610100808354040283529160200191610288565b820191906000526020600020905b81548152906001019060200180831161026b57829003601f168201915b5050505050908060040154908060050154908060060154908060070154908060080160009054906101000a900460ff16905089565b60008060009054906101000a900473ffffffffffffffffffffffffffffffffffffffff1673ffffffffffffffffffffffffffffffffffffffff1662fdd58e33856040518363ffffffff1660e01b815260040161031a9291906116b0565b602060405180830381865afa158015610337573d6000803e3d6000fd5b505050506040513d601f19601f8201168201806040525081019061035b91906116ee565b1161039b576040517f08c379a00000000000000000000000000000000000000000000000000000000081526004016103929061178d565b60405180910390fd5b60008060009054906101000a900473ffffffffffffffffffffffffffffffffffffffff1673ffffffffffffffffffffffffffffffffffffffff1663bd85b039846040518263ffffffff1660e01b81526004016103f7919061132f565b602060405180830381865afa158015610414573d6000803e3d6000fd5b505050506040513d601f19601f8201168201806040525081019061043891906116ee565b905060405180610120016040528060025481526020013373ffffffffffffffffffffffffffffffffffffffff16815260200184815260200183815260200160008152602001600081526020018281526020016003544361049891906117dc565b8152602001600015158152506001600060025481526020019081526020016000206000820151816000015560208201518160010160006101000a81548173ffffffffffffffffffffffffffffffffffffffff021916908373ffffffffffffffffffffffffffffffffffffffff16021790555060408201518160020155606082015181600301908161052991906119b2565b506080820151816004015560a0820151816005015560c0820151816006015560e082015181600701556101008201518160080160006101000a81548160ff0219169083151502179055509050506002600081548092919061058990611a84565b91905055507f7d7c160743ad71943eeebe651bc4c5454aa42da293805baa96a623e316f11f4b60016002546105be9190611acc565b338585600354436105cf91906117dc565b6040516105e0959493929190611b00565b60405180910390a1505050565b60006001600083815260200190815260200160002090508060070154431161064a576040517f08c379a000000000000000000000000000000000000000000000000000000000815260040161064190611ba6565b60405180910390fd5b8060080160009054906101000a900460ff161561069c576040517f08c379a000000000000000000000000000000000000000000000000000000000815260040161069390611c12565b60405180910390fd5b806005015481600401541180156106c65750600281600601546106bf9190611c61565b8160040154115b156107205760018160080160006101000a81548160ff0219169083151502179055507f712ae1383f79ac853f8d882153778e0260ef8f03b504e2866e0593e04d2b291f82604051610717919061132f565b60405180910390a15b5050565b60035481565b6060600060025467ffffffffffffffff81111561074a576107496111a8565b5b60405190808252806020026020018201604052801561078357816020015b610770610f34565b8152602001906001900390816107685790505b5090506000805b6002548110156109605760006001600083815260200190815260200160002090508060080160009054906101000a900460ff161580156107ce575080600701544311155b1561094c578060405180610120016040529081600082015481526020016001820160009054906101000a900473ffffffffffffffffffffffffffffffffffffffff1673ffffffffffffffffffffffffffffffffffffffff1673ffffffffffffffffffffffffffffffffffffffff1681526020016002820154815260200160038201805461085a9061167f565b80601f01602080910402602001604051908101604052809291908181526020018280546108869061167f565b80156108d35780601f106108a8576101008083540402835291602001916108d3565b820191906000526020600020905b8154815290600101906020018083116108b657829003601f168201915b50505050508152602001600482015481526020016005820154815260200160068201548152602001600782015481526020016008820160009054906101000a900460ff16151515158152505084848151811061093257610931611c92565b5b6020026020010181905250828061094890611a84565b9350505b50808061095890611a84565b91505061078a565b5060008167ffffffffffffffff81111561097d5761097c6111a8565b5b6040519080825280602002602001820160405280156109b657816020015b6109a3610f34565b81526020019060019003908161099b5790505b50905060005b82811015610a10578381815181106109d7576109d6611c92565b5b60200260200101518282815181106109f2576109f1611c92565b5b60200260200101819052508080610a0890611a84565b9150506109bc565b5080935050505090565b60008054906101000a900473ffffffffffffffffffffffffffffffffffffffff1681565b60006001600084815260200190815260200160002090508060070154431115610a9c576040517f08c379a0000000000000000000000000000000000000000000000000000000008152600401610a9390611d0d565b60405180910390fd5b8060080160009054906101000a900460ff1615610aee576040517f08c379a0000000000000000000000000000000000000000000000000000000008152600401610ae590611c12565b60405180910390fd5b60008060009054906101000a900473ffffffffffffffffffffffffffffffffffffffff1673ffffffffffffffffffffffffffffffffffffffff1662fdd58e3384600201546040518363ffffffff1660e01b8152600401610b4f9291906116b0565b602060405180830381865afa158015610b6c573d6000803e3d6000fd5b505050506040513d601f19601f82011682018060405250810190610b9091906116ee565b905060008111610bd5576040517f08c379a0000000000000000000000000000000000000000000000000000000008152600401610bcc90611d79565b60405180910390fd5b8215610bfb5780826004016000828254610bef91906117dc565b92505081905550610c17565b80826005016000828254610c0f91906117dc565b925050819055505b7f7c2de587c00d75474a0c6c6fa96fd3b45dc974cd4e8a75f712bb84c950dce1b584338584604051610c4c9493929190611d99565b60405180910390a150505050565b6060600060025467ffffffffffffffff811115610c7a57610c796111a8565b5b604051908082528060200260200182016040528015610cb357816020015b610ca0610f34565b815260200190600190039081610c985790505b5090506000805b600254811015610e745760006001600083815260200190815260200160002090508060070154431115610e60578060405180610120016040529081600082015481526020016001820160009054906101000a900473ffffffffffffffffffffffffffffffffffffffff1673ffffffffffffffffffffffffffffffffffffffff1673ffffffffffffffffffffffffffffffffffffffff16815260200160028201548152602001600382018054610d6e9061167f565b80601f0160208091040260200160405190810160405280929190818152602001828054610d9a9061167f565b8015610de75780601f10610dbc57610100808354040283529160200191610de7565b820191906000526020600020905b815481529060010190602001808311610dca57829003601f168201915b50505050508152602001600482015481526020016005820154815260200160068201548152602001600782015481526020016008820160009054906101000a900460ff161515151581525050848481518110610e4657610e45611c92565b5b60200260200101819052508280610e5c90611a84565b9350505b508080610e6c90611a84565b915050610cba565b5060008167ffffffffffffffff811115610e9157610e906111a8565b5b604051908082528060200260200182016040528015610eca57816020015b610eb7610f34565b815260200190600190039081610eaf5790505b50905060005b82811015610f2457838181518110610eeb57610eea611c92565b5b6020026020010151828281518110610f0657610f05611c92565b5b60200260200101819052508080610f1c90611a84565b915050610ed0565b5080935050505090565b60025481565b60405180610120016040528060008152602001600073ffffffffffffffffffffffffffffffffffffffff1681526020016000815260200160608152602001600081526020016000815260200160008152602001600081526020016000151581525090565b6000604051905090565b600080fd5b600080fd5b6000819050919050565b610fbf81610fac565b8114610fca57600080fd5b50565b600081359050610fdc81610fb6565b92915050565b600060208284031215610ff857610ff7610fa2565b5b600061100684828501610fcd565b91505092915050565b61101881610fac565b82525050565b600073ffffffffffffffffffffffffffffffffffffffff82169050919050565b60006110498261101e565b9050919050565b6110598161103e565b82525050565b600081519050919050565b600082825260208201905092915050565b60005b8381101561109957808201518184015260208101905061107e565b60008484015250505050565b6000601f19601f8301169050919050565b60006110c18261105f565b6110cb818561106a565b93506110db81856020860161107b565b6110e4816110a5565b840191505092915050565b60008115159050919050565b611104816110ef565b82525050565b600061012082019050611120600083018c61100f565b61112d602083018b611050565b61113a604083018a61100f565b818103606083015261114c81896110b6565b905061115b608083018861100f565b61116860a083018761100f565b61117560c083018661100f565b61118260e083018561100f565b6111906101008301846110fb565b9a9950505050505050505050565b600080fd5b600080fd5b7f4e487b7100000000000000000000000000000000000000000000000000000000600052604160045260246000fd5b6111e0826110a5565b810181811067ffffffffffffffff821117156111ff576111fe6111a8565b5b80604052505050565b6000611212610f98565b905061121e82826111d7565b919050565b600067ffffffffffffffff82111561123e5761123d6111a8565b5b611247826110a5565b9050602081019050919050565b82818337600083830152505050565b600061127661127184611223565b611208565b905082815260208101848484011115611292576112916111a3565b5b61129d848285611254565b509392505050565b600082601f8301126112ba576112b961119e565b5b81356112ca848260208601611263565b91505092915050565b600080604083850312156112ea576112e9610fa2565b5b60006112f885828601610fcd565b925050602083013567ffffffffffffffff81111561131957611318610fa7565b5b611325858286016112a5565b9150509250929050565b6000602082019050611344600083018461100f565b92915050565b600081519050919050565b600082825260208201905092915050565b6000819050602082019050919050565b61137f81610fac565b82525050565b61138e8161103e565b82525050565b600082825260208201905092915050565b60006113b08261105f565b6113ba8185611394565b93506113ca81856020860161107b565b6113d3816110a5565b840191505092915050565b6113e7816110ef565b82525050565b6000610120830160008301516114066000860182611376565b5060208301516114196020860182611385565b50604083015161142c6040860182611376565b506060830151848203606086015261144482826113a5565b91505060808301516114596080860182611376565b5060a083015161146c60a0860182611376565b5060c083015161147f60c0860182611376565b5060e083015161149260e0860182611376565b506101008301516114a76101008601826113de565b508091505092915050565b60006114be83836113ed565b905092915050565b6000602082019050919050565b60006114de8261134a565b6114e88185611355565b9350836020820285016114fa85611366565b8060005b85811015611536578484038952815161151785826114b2565b9450611522836114c6565b925060208a019950506001810190506114fe565b50829750879550505050505092915050565b6000602082019050818103600083015261156281846114d3565b905092915050565b6000819050919050565b600061158f61158a6115858461101e565b61156a565b61101e565b9050919050565b60006115a182611574565b9050919050565b60006115b382611596565b9050919050565b6115c3816115a8565b82525050565b60006020820190506115de60008301846115ba565b92915050565b6115ed816110ef565b81146115f857600080fd5b50565b60008135905061160a816115e4565b92915050565b6000806040838503121561162757611626610fa2565b5b600061163585828601610fcd565b9250506020611646858286016115fb565b9150509250929050565b7f4e487b7100000000000000000000000000000000000000000000000000000000600052602260045260246000fd5b6000600282049050600182168061169757607f821691505b6020821081036116aa576116a9611650565b5b50919050565b60006040820190506116c56000830185611050565b6116d2602083018461100f565b9392505050565b6000815190506116e881610fb6565b92915050565b60006020828403121561170457611703610fa2565b5b6000611712848285016116d9565b91505092915050565b7f4d757374206265206120746f6b656e20686f6c64657220746f2063726561746560008201527f2070726f706f73616c0000000000000000000000000000000000000000000000602082015250565b600061177760298361106a565b91506117828261171b565b604082019050919050565b600060208201905081810360008301526117a68161176a565b9050919050565b7f4e487b7100000000000000000000000000000000000000000000000000000000600052601160045260246000fd5b60006117e782610fac565b91506117f283610fac565b925082820190508082111561180a576118096117ad565b5b92915050565b60008190508160005260206000209050919050565b60006020601f8301049050919050565b600082821b905092915050565b6000600883026118727fffffffffffffffffffffffffffffffffffffffffffffffffffffffffffffffff82611835565b61187c8683611835565b95508019841693508086168417925050509392505050565b60006118af6118aa6118a584610fac565b61156a565b610fac565b9050919050565b6000819050919050565b6118c983611894565b6118dd6118d5826118b6565b848454611842565b825550505050565b600090565b6118f26118e5565b6118fd8184846118c0565b505050565b5b81811015611921576119166000826118ea565b600181019050611903565b5050565b601f8211156119665761193781611810565b61194084611825565b8101602085101561194f578190505b61196361195b85611825565b830182611902565b50505b505050565b600082821c905092915050565b60006119896000198460080261196b565b1980831691505092915050565b60006119a28383611978565b9150826002028217905092915050565b6119bb8261105f565b67ffffffffffffffff8111156119d4576119d36111a8565b5b6119de825461167f565b6119e9828285611925565b600060209050601f831160018114611a1c5760008415611a0a578287015190505b611a148582611996565b865550611a7c565b601f198416611a2a86611810565b60005b82811015611a5257848901518255600182019150602085019450602081019050611a2d565b86831015611a6f5784890151611a6b601f891682611978565b8355505b6001600288020188555050505b505050505050565b6000611a8f82610fac565b91507fffffffffffffffffffffffffffffffffffffffffffffffffffffffffffffffff8203611ac157611ac06117ad565b5b600182019050919050565b6000611ad782610fac565b9150611ae283610fac565b9250828203905081811115611afa57611af96117ad565b5b92915050565b600060a082019050611b15600083018861100f565b611b226020830187611050565b611b2f604083018661100f565b8181036060830152611b4181856110b6565b9050611b50608083018461100f565b9695505050505050565b7f566f74696e6720706572696f6420686173206e6f7420656e6465640000000000600082015250565b6000611b90601b8361106a565b9150611b9b82611b5a565b602082019050919050565b60006020820190508181036000830152611bbf81611b83565b9050919050565b7f50726f706f73616c20686173206265656e206578656375746564000000000000600082015250565b6000611bfc601a8361106a565b9150611c0782611bc6565b602082019050919050565b60006020820190508181036000830152611c2b81611bef565b9050919050565b7f4e487b7100000000000000000000000000000000000000000000000000000000600052601260045260246000fd5b6000611c6c82610fac565b9150611c7783610fac565b925082611c8757611c86611c32565b5b828204905092915050565b7f4e487b7100000000000000000000000000000000000000000000000000000000600052603260045260246000fd5b7f566f74696e6720706572696f642068617320656e646564000000000000000000600082015250565b6000611cf760178361106a565b9150611d0282611cc1565b602082019050919050565b60006020820190508181036000830152611d2681611cea565b9050919050565b7f4d757374206265206120746f6b656e20686f6c64657220746f20766f74650000600082015250565b6000611d63601e8361106a565b9150611d6e82611d2d565b602082019050919050565b60006020820190508181036000830152611d9281611d56565b9050919050565b6000608082019050611dae600083018761100f565b611dbb6020830186611050565b611dc860408301856110fb565b611dd5606083018461100f565b9594505050505056fea2646970667358221220d67c96b746c1ad72edd8bc506021e1b017b81fa248b7b13dc1ff25985f52be6d64736f6c63430008130033",
  "linkReferences": {},
  "deployedLinkReferences": {}
}