{
  "_format": "hh-sol-artifact-1",
  "contractName": "RealEstateDAO",
  "sourceName": "contracts/RealEstateDAO.sol",
  "abi": [
    {
      "inputs": [
        {
          "internalType": "contract RealEstateTokens",
          "name": "_tokenContract",
          "type": "address"
        }
      ],
      "stateMutability": "nonpayable",
      "type": "constructor"
    },
    {
      "anonymous": false,
      "inputs": [
        {
          "indexed": false,
          "internalType": "uint256",
          "name": "proposalId",
          "type": "uint256"
        },
        {
          "indexed": false,
          "internalType": "address",
          "name": "proposer",
          "type": "address"
        },
        {
          "indexed": false,
          "internalType": "uint256",
          "name": "tokenId",
          "type": "uint256"
        },
        {
          "indexed": false,
          "internalType": "string",
          "name": "description",
          "type": "string"
        },
        {
          "indexed": false,
          "internalType": "uint256",
          "name": "endBlock",
          "type": "uint256"
        }
      ],
      "name": "ProposalCreated",
      "type": "event"
    },
    {
      "anonymous": false,
      "inputs": [
        {
          "indexed": false,
          "internalType": "uint256",
          "name": "proposalId",
          "type": "uint256"
        }
      ],
      "name": "ProposalExecuted",
      "type": "event"
    },
    {
      "anonymous": false,
      "inputs": [
        {
          "indexed": false,
          "internalType": "uint256",
          "name": "proposalId",
          "type": "uint256"
        },
        {
          "indexed": false,
          "internalType": "address",
          "name": "voter",
          "type": "address"
        },
        {
          "indexed": false,
          "internalType": "bool",
          "name": "vote",
          "type": "bool"
        },
        {
          "indexed": false,
          "internalType": "uint256",
          "name": "weight",
          "type": "uint256"
        }
      ],
      "name": "Voted",
      "type": "event"
    },
    {
      "inputs": [
        {
          "internalType": "uint256",
          "name": "tokenId",
          "type": "uint256"
        },
        {
          "internalType": "string",
          "name": "description",
          "type": "string"
        }
      ],
      "name": "createProposal",
      "outputs": [],
      "stateMutability": "nonpayable",
      "type": "function"
    },
    {
      "inputs": [
        {
          "internalType": "uint256",
          "name": "tokenId",
          "type": "uint256"
        },
        {
          "internalType": "string",
          "name": "description",
          "type": "string"
        },
        {
          "internalType": "address",
          "name": "tenant",
          "type": "address"
        },
        {
          "internalType": "uint256",
          "name": "rent",
          "type": "uint256"
        }
      ],
      "name": "createRentProposal",
      "outputs": [],
      "stateMutability": "nonpayable",
      "type": "function"
    },
    {
      "inputs": [
        {
          "internalType": "uint256",
          "name": "proposalId",
          "type": "uint256"
        }
      ],
      "name": "executeProposal",
      "outputs": [],
      "stateMutability": "payable",
      "type": "function"
    },
    {
      "inputs": [],
      "name": "getActiveProposals",
      "outputs": [
        {
          "components": [
            {
              "internalType": "uint256",
              "name": "id",
              "type": "uint256"
            },
            {
              "internalType": "address",
              "name": "proposer",
              "type": "address"
            },
            {
              "internalType": "uint256",
              "name": "tokenId",
              "type": "uint256"
            },
            {
              "internalType": "string",
              "name": "description",
              "type": "string"
            },
            {
              "internalType": "uint256",
              "name": "forVotes",
              "type": "uint256"
            },
            {
              "internalType": "uint256",
              "name": "againstVotes",
              "type": "uint256"
            },
            {
              "internalType": "uint256",
              "name": "totalTokens",
              "type": "uint256"
            },
            {
              "internalType": "uint256",
              "name": "endBlock",
              "type": "uint256"
            },
            {
              "internalType": "bool",
              "name": "executed",
              "type": "bool"
            },
            {
              "internalType": "enum RealEstateDAO.ProposalType",
              "name": "proposalType",
              "type": "uint8"
            },
            {
              "internalType": "address",
              "name": "tenant",
              "type": "address"
            },
            {
              "internalType": "uint256",
              "name": "rent",
              "type": "uint256"
            }
          ],
          "internalType": "struct RealEstateDAO.Proposal[]",
          "name": "",
          "type": "tuple[]"
        }
      ],
      "stateMutability": "view",
      "type": "function"
    },
    {
      "inputs": [],
      "name": "getPastProposals",
      "outputs": [
        {
          "components": [
            {
              "internalType": "uint256",
              "name": "id",
              "type": "uint256"
            },
            {
              "internalType": "address",
              "name": "proposer",
              "type": "address"
            },
            {
              "internalType": "uint256",
              "name": "tokenId",
              "type": "uint256"
            },
            {
              "internalType": "string",
              "name": "description",
              "type": "string"
            },
            {
              "internalType": "uint256",
              "name": "forVotes",
              "type": "uint256"
            },
            {
              "internalType": "uint256",
              "name": "againstVotes",
              "type": "uint256"
            },
            {
              "internalType": "uint256",
              "name": "totalTokens",
              "type": "uint256"
            },
            {
              "internalType": "uint256",
              "name": "endBlock",
              "type": "uint256"
            },
            {
              "internalType": "bool",
              "name": "executed",
              "type": "bool"
            },
            {
              "internalType": "enum RealEstateDAO.ProposalType",
              "name": "proposalType",
              "type": "uint8"
            },
            {
              "internalType": "address",
              "name": "tenant",
              "type": "address"
            },
            {
              "internalType": "uint256",
              "name": "rent",
              "type": "uint256"
            }
          ],
          "internalType": "struct RealEstateDAO.Proposal[]",
          "name": "",
          "type": "tuple[]"
        }
      ],
      "stateMutability": "view",
      "type": "function"
    },
    {
      "inputs": [
        {
          "internalType": "uint256",
          "name": "",
          "type": "uint256"
        },
        {
          "internalType": "address",
          "name": "",
          "type": "address"
        }
      ],
      "name": "hasVoted",
      "outputs": [
        {
          "internalType": "bool",
          "name": "",
          "type": "bool"
        }
      ],
      "stateMutability": "view",
      "type": "function"
    },
    {
      "inputs": [],
      "name": "proposalCount",
      "outputs": [
        {
          "internalType": "uint256",
          "name": "",
          "type": "uint256"
        }
      ],
      "stateMutability": "view",
      "type": "function"
    },
    {
      "inputs": [
        {
          "internalType": "uint256",
          "name": "",
          "type": "uint256"
        }
      ],
      "name": "proposals",
      "outputs": [
        {
          "internalType": "uint256",
          "name": "id",
          "type": "uint256"
        },
        {
          "internalType": "address",
          "name": "proposer",
          "type": "address"
        },
        {
          "internalType": "uint256",
          "name": "tokenId",
          "type": "uint256"
        },
        {
          "internalType": "string",
          "name": "description",
          "type": "string"
        },
        {
          "internalType": "uint256",
          "name": "forVotes",
          "type": "uint256"
        },
        {
          "internalType": "uint256",
          "name": "againstVotes",
          "type": "uint256"
        },
        {
          "internalType": "uint256",
          "name": "totalTokens",
          "type": "uint256"
        },
        {
          "internalType": "uint256",
          "name": "endBlock",
          "type": "uint256"
        },
        {
          "internalType": "bool",
          "name": "executed",
          "type": "bool"
        },
        {
          "internalType": "enum RealEstateDAO.ProposalType",
          "name": "proposalType",
          "type": "uint8"
        },
        {
          "internalType": "address",
          "name": "tenant",
          "type": "address"
        },
        {
          "internalType": "uint256",
          "name": "rent",
          "type": "uint256"
        }
      ],
      "stateMutability": "view",
      "type": "function"
    },
    {
      "inputs": [],
      "name": "tokens",
      "outputs": [
        {
          "internalType": "contract RealEstateTokens",
          "name": "",
          "type": "address"
        }
      ],
      "stateMutability": "view",
      "type": "function"
    },
    {
      "inputs": [
        {
          "internalType": "uint256",
          "name": "proposalId",
          "type": "uint256"
        },
        {
          "internalType": "bool",
          "name": "decision",
          "type": "bool"
        }
      ],
      "name": "vote",
      "outputs": [],
      "stateMutability": "nonpayable",
      "type": "function"
    },
    {
      "inputs": [],
      "name": "votingDuration",
      "outputs": [
        {
          "internalType": "uint256",
          "name": "",
          "type": "uint256"
        }
      ],
      "stateMutability": "view",
      "type": "function"
    }
  ],
  "bytecode": "0x6080604052600060035560086004553480156200001b57600080fd5b506040516200304b3803806200304b833981810160405281019062000041919062000106565b806000806101000a81548173ffffffffffffffffffffffffffffffffffffffff021916908373ffffffffffffffffffffffffffffffffffffffff1602179055505062000138565b600080fd5b600073ffffffffffffffffffffffffffffffffffffffff82169050919050565b6000620000ba826200008d565b9050919050565b6000620000ce82620000ad565b9050919050565b620000e081620000c1565b8114620000ec57600080fd5b50565b6000815190506200010081620000d5565b92915050565b6000602082840312156200011f576200011e62000088565b5b60006200012f84828501620000ef565b91505092915050565b612f0380620001486000396000f3fe60806040526004361061009c5760003560e01c80635584c4f9116100645780635584c4f9146101965780635ccc70ff146101c15780639d63848a146101ea578063c9d27afe14610215578063d4bdf0231461023e578063da35c664146102695761009c565b8063013cf08b146100a157806302d52fa4146100e95780630d61b51914610112578063132002fc1461012e5780634385963214610159575b600080fd5b3480156100ad57600080fd5b506100c860048036038101906100c39190611c4e565b610294565b6040516100e09c9b9a99989796959493929190611ded565b60405180910390f35b3480156100f557600080fd5b50610110600480360381019061010b9190611fe3565b6103d6565b005b61012c60048036038101906101279190611c4e565b6107c7565b005b34801561013a57600080fd5b50610143610cc9565b604051610150919061203f565b60405180910390f35b34801561016557600080fd5b50610180600480360381019061017b9190612086565b610ccf565b60405161018d91906120c6565b60405180910390f35b3480156101a257600080fd5b506101ab610cfe565b6040516101b8919061232d565b60405180910390f35b3480156101cd57600080fd5b506101e860048036038101906101e3919061234f565b6110a0565b005b3480156101f657600080fd5b506101ff611490565b60405161020c9190612431565b60405180910390f35b34801561022157600080fd5b5061023c60048036038101906102379190612478565b6114b4565b005b34801561024a57600080fd5b506102536117d7565b604051610260919061232d565b60405180910390f35b34801561027557600080fd5b5061027e611b5d565b60405161028b919061203f565b60405180910390f35b60016020528060005260406000206000915090508060000154908060010160009054906101000a900473ffffffffffffffffffffffffffffffffffffffff16908060020154908060030180546102e9906124e7565b80601f0160208091040260200160405190810160405280929190818152602001828054610315906124e7565b80156103625780601f1061033757610100808354040283529160200191610362565b820191906000526020600020905b81548152906001019060200180831161034557829003601f168201915b5050505050908060040154908060050154908060060154908060070154908060080160009054906101000a900460ff16908060080160019054906101000a900460ff16908060080160029054906101000a900473ffffffffffffffffffffffffffffffffffffffff1690806009015490508c565b60008060009054906101000a900473ffffffffffffffffffffffffffffffffffffffff1673ffffffffffffffffffffffffffffffffffffffff1662fdd58e33856040518363ffffffff1660e01b8152600401610433929190612518565b602060405180830381865afa158015610450573d6000803e3d6000fd5b505050506040513d601f19601f820116820180604052508101906104749190612556565b116104b4576040517f08c379a00000000000000000000000000000000000000000000000000000000081526004016104ab906125f5565b60405180910390fd5b60008060009054906101000a900473ffffffffffffffffffffffffffffffffffffffff1673ffffffffffffffffffffffffffffffffffffffff1663bd85b039846040518263ffffffff1660e01b8152600401610510919061203f565b602060405180830381865afa15801561052d573d6000803e3d6000fd5b505050506040513d601f19601f820116820180604052508101906105519190612556565b905060405180610180016040528060035481526020013373ffffffffffffffffffffffffffffffffffffffff1681526020018481526020018381526020016000815260200160008152602001828152602001600454436105b19190612644565b8152602001600015158152602001600060018111156105d3576105d2611d76565b5b8152602001600073ffffffffffffffffffffffffffffffffffffffff16815260200160008152506001600060035481526020019081526020016000206000820151816000015560208201518160010160006101000a81548173ffffffffffffffffffffffffffffffffffffffff021916908373ffffffffffffffffffffffffffffffffffffffff16021790555060408201518160020155606082015181600301908161067f919061281a565b506080820151816004015560a0820151816005015560c0820151816006015560e082015181600701556101008201518160080160006101000a81548160ff0219169083151502179055506101208201518160080160016101000a81548160ff021916908360018111156106f5576106f4611d76565b5b02179055506101408201518160080160026101000a81548173ffffffffffffffffffffffffffffffffffffffff021916908373ffffffffffffffffffffffffffffffffffffffff160217905550610160820151816009015590505060036000815480929190610763906128ec565b91905055507f7d7c160743ad71943eeebe651bc4c5454aa42da293805baa96a623e316f11f4b60016003546107989190612934565b338585600454436107a99190612644565b6040516107ba959493929190612968565b60405180910390a1505050565b60006001600083815260200190815260200160002090506001808111156107f1576107f0611d76565b5b8160080160019054906101000a900460ff16600181111561081557610814611d76565b5b036108ad578060080160029054906101000a900473ffffffffffffffffffffffffffffffffffffffff1673ffffffffffffffffffffffffffffffffffffffff163373ffffffffffffffffffffffffffffffffffffffff16146108ac576040517f08c379a00000000000000000000000000000000000000000000000000000000081526004016108a390612a34565b60405180910390fd5b5b806007015443116108f3576040517f08c379a00000000000000000000000000000000000000000000000000000000081526004016108ea90612aa0565b60405180910390fd5b8060080160009054906101000a900460ff1615610945576040517f08c379a000000000000000000000000000000000000000000000000000000000815260040161093c90612b0c565b60405180910390fd5b8060050154816004015411801561096f5750600281600601546109689190612b5b565b8160040154115b15610cc55760018160080160006101000a81548160ff0219169083151502179055506001808111156109a4576109a3611d76565b5b8160080160019054906101000a900460ff1660018111156109c8576109c7611d76565b5b03610c8d5780600901543414610a13576040517f08c379a0000000000000000000000000000000000000000000000000000000008152600401610a0a90612bd8565b60405180910390fd5b60008060009054906101000a900473ffffffffffffffffffffffffffffffffffffffff1673ffffffffffffffffffffffffffffffffffffffff1663e75c026183600201546040518263ffffffff1660e01b8152600401610a73919061203f565b602060405180830381865afa158015610a90573d6000803e3d6000fd5b505050506040513d601f19601f82011682018060405250810190610ab49190612556565b905060005b81811015610c8a5760008060009054906101000a900473ffffffffffffffffffffffffffffffffffffffff1673ffffffffffffffffffffffffffffffffffffffff1663e8aeefe48560020154846040518363ffffffff1660e01b8152600401610b23929190612bf8565b602060405180830381865afa158015610b40573d6000803e3d6000fd5b505050506040513d601f19601f82011682018060405250810190610b649190612c36565b905060008060009054906101000a900473ffffffffffffffffffffffffffffffffffffffff1673ffffffffffffffffffffffffffffffffffffffff1662fdd58e8387600201546040518363ffffffff1660e01b8152600401610bc7929190612c84565b602060405180830381865afa158015610be4573d6000803e3d6000fd5b505050506040513d601f19601f82011682018060405250810190610c089190612556565b905060008560060154828760090154610c219190612cad565b610c2b9190612b5b565b90508273ffffffffffffffffffffffffffffffffffffffff166108fc829081150290604051600060405180830381858888f19350505050158015610c73573d6000803e3d6000fd5b505050508080610c82906128ec565b915050610ab9565b50505b7f712ae1383f79ac853f8d882153778e0260ef8f03b504e2866e0593e04d2b291f82604051610cbc919061203f565b60405180910390a15b5050565b60045481565b60026020528160005260406000206020528060005260406000206000915091509054906101000a900460ff1681565b6060600060035467ffffffffffffffff811115610d1e57610d1d611eb8565b5b604051908082528060200260200182016040528015610d5757816020015b610d44611b63565b815260200190600190039081610d3c5790505b5090506000805b600354811015610fcf5760006001600083815260200190815260200160002090508060080160009054906101000a900460ff16158015610da2575080600701544311155b15610fbb578060405180610180016040529081600082015481526020016001820160009054906101000a900473ffffffffffffffffffffffffffffffffffffffff1673ffffffffffffffffffffffffffffffffffffffff1673ffffffffffffffffffffffffffffffffffffffff16815260200160028201548152602001600382018054610e2e906124e7565b80601f0160208091040260200160405190810160405280929190818152602001828054610e5a906124e7565b8015610ea75780601f10610e7c57610100808354040283529160200191610ea7565b820191906000526020600020905b815481529060010190602001808311610e8a57829003601f168201915b50505050508152602001600482015481526020016005820154815260200160068201548152602001600782015481526020016008820160009054906101000a900460ff161515151581526020016008820160019054906101000a900460ff166001811115610f1857610f17611d76565b5b6001811115610f2a57610f29611d76565b5b81526020016008820160029054906101000a900473ffffffffffffffffffffffffffffffffffffffff1673ffffffffffffffffffffffffffffffffffffffff1673ffffffffffffffffffffffffffffffffffffffff168152602001600982015481525050848481518110610fa157610fa0612cef565b5b60200260200101819052508280610fb7906128ec565b9350505b508080610fc7906128ec565b915050610d5e565b5060008167ffffffffffffffff811115610fec57610feb611eb8565b5b60405190808252806020026020018201604052801561102557816020015b611012611b63565b81526020019060019003908161100a5790505b50905060005b828110156110965783818151811061104657611045612cef565b5b6020026020010151826001838661105d9190612934565b6110679190612934565b8151811061107857611077612cef565b5b6020026020010181905250808061108e906128ec565b91505061102b565b5080935050505090565b60008060009054906101000a900473ffffffffffffffffffffffffffffffffffffffff1673ffffffffffffffffffffffffffffffffffffffff1662fdd58e33876040518363ffffffff1660e01b81526004016110fd929190612518565b602060405180830381865afa15801561111a573d6000803e3d6000fd5b505050506040513d601f19601f8201168201806040525081019061113e9190612556565b1161117e576040517f08c379a0000000000000000000000000000000000000000000000000000000008152600401611175906125f5565b60405180910390fd5b60008060009054906101000a900473ffffffffffffffffffffffffffffffffffffffff1673ffffffffffffffffffffffffffffffffffffffff1663bd85b039866040518263ffffffff1660e01b81526004016111da919061203f565b602060405180830381865afa1580156111f7573d6000803e3d6000fd5b505050506040513d601f19601f8201168201806040525081019061121b9190612556565b905060405180610180016040528060035481526020013373ffffffffffffffffffffffffffffffffffffffff16815260200186815260200185815260200160008152602001600081526020018281526020016004544361127b9190612644565b815260200160001515815260200160018081111561129c5761129b611d76565b5b81526020018473ffffffffffffffffffffffffffffffffffffffff168152602001838152506001600060035481526020019081526020016000206000820151816000015560208201518160010160006101000a81548173ffffffffffffffffffffffffffffffffffffffff021916908373ffffffffffffffffffffffffffffffffffffffff160217905550604082015181600201556060820151816003019081611346919061281a565b506080820151816004015560a0820151816005015560c0820151816006015560e082015181600701556101008201518160080160006101000a81548160ff0219169083151502179055506101208201518160080160016101000a81548160ff021916908360018111156113bc576113bb611d76565b5b02179055506101408201518160080160026101000a81548173ffffffffffffffffffffffffffffffffffffffff021916908373ffffffffffffffffffffffffffffffffffffffff16021790555061016082015181600901559050506003600081548092919061142a906128ec565b91905055507f7d7c160743ad71943eeebe651bc4c5454aa42da293805baa96a623e316f11f4b600160035461145f9190612934565b338787600454436114709190612644565b604051611481959493929190612968565b60405180910390a15050505050565b60008054906101000a900473ffffffffffffffffffffffffffffffffffffffff1681565b60006001600084815260200190815260200160002090508060070154431115611512576040517f08c379a000000000000000000000000000000000000000000000000000000000815260040161150990612d6a565b60405180910390fd5b8060080160009054906101000a900460ff1615611564576040517f08c379a000000000000000000000000000000000000000000000000000000000815260040161155b90612b0c565b60405180910390fd5b6002600084815260200190815260200160002060003373ffffffffffffffffffffffffffffffffffffffff1673ffffffffffffffffffffffffffffffffffffffff16815260200190815260200160002060009054906101000a900460ff1615611602576040517f08c379a00000000000000000000000000000000000000000000000000000000081526004016115f990612dfc565b60405180910390fd5b60008060009054906101000a900473ffffffffffffffffffffffffffffffffffffffff1673ffffffffffffffffffffffffffffffffffffffff1662fdd58e3384600201546040518363ffffffff1660e01b8152600401611663929190612518565b602060405180830381865afa158015611680573d6000803e3d6000fd5b505050506040513d601f19601f820116820180604052508101906116a49190612556565b9050600081116116e9576040517f08c379a00000000000000000000000000000000000000000000000000000000081526004016116e090612e68565b60405180910390fd5b821561170f57808260040160008282546117039190612644565b9250508190555061172b565b808260050160008282546117239190612644565b925050819055505b60016002600086815260200190815260200160002060003373ffffffffffffffffffffffffffffffffffffffff1673ffffffffffffffffffffffffffffffffffffffff16815260200190815260200160002060006101000a81548160ff0219169083151502179055507f7c2de587c00d75474a0c6c6fa96fd3b45dc974cd4e8a75f712bb84c950dce1b5843385846040516117c99493929190612e88565b60405180910390a150505050565b6060600060035467ffffffffffffffff8111156117f7576117f6611eb8565b5b60405190808252806020026020018201604052801561183057816020015b61181d611b63565b8152602001906001900390816118155790505b5090506000805b600354811015611a8c5760006001600083815260200190815260200160002090508060070154431115611a78578060405180610180016040529081600082015481526020016001820160009054906101000a900473ffffffffffffffffffffffffffffffffffffffff1673ffffffffffffffffffffffffffffffffffffffff1673ffffffffffffffffffffffffffffffffffffffff168152602001600282015481526020016003820180546118eb906124e7565b80601f0160208091040260200160405190810160405280929190818152602001828054611917906124e7565b80156119645780601f1061193957610100808354040283529160200191611964565b820191906000526020600020905b81548152906001019060200180831161194757829003601f168201915b50505050508152602001600482015481526020016005820154815260200160068201548152602001600782015481526020016008820160009054906101000a900460ff161515151581526020016008820160019054906101000a900460ff1660018111156119d5576119d4611d76565b5b60018111156119e7576119e6611d76565b5b81526020016008820160029054906101000a900473ffffffffffffffffffffffffffffffffffffffff1673ffffffffffffffffffffffffffffffffffffffff1673ffffffffffffffffffffffffffffffffffffffff168152602001600982015481525050848481518110611a5e57611a5d612cef565b5b60200260200101819052508280611a74906128ec565b9350505b508080611a84906128ec565b915050611837565b5060008167ffffffffffffffff811115611aa957611aa8611eb8565b5b604051908082528060200260200182016040528015611ae257816020015b611acf611b63565b815260200190600190039081611ac75790505b50905060005b82811015611b5357838181518110611b0357611b02612cef565b5b60200260200101518260018386611b1a9190612934565b611b249190612934565b81518110611b3557611b34612cef565b5b60200260200101819052508080611b4b906128ec565b915050611ae8565b5080935050505090565b60035481565b60405180610180016040528060008152602001600073ffffffffffffffffffffffffffffffffffffffff16815260200160008152602001606081526020016000815260200160008152602001600081526020016000815260200160001515815260200160006001811115611bda57611bd9611d76565b5b8152602001600073ffffffffffffffffffffffffffffffffffffffff168152602001600081525090565b6000604051905090565b600080fd5b600080fd5b6000819050919050565b611c2b81611c18565b8114611c3657600080fd5b50565b600081359050611c4881611c22565b92915050565b600060208284031215611c6457611c63611c0e565b5b6000611c7284828501611c39565b91505092915050565b611c8481611c18565b82525050565b600073ffffffffffffffffffffffffffffffffffffffff82169050919050565b6000611cb582611c8a565b9050919050565b611cc581611caa565b82525050565b600081519050919050565b600082825260208201905092915050565b60005b83811015611d05578082015181840152602081019050611cea565b60008484015250505050565b6000601f19601f8301169050919050565b6000611d2d82611ccb565b611d378185611cd6565b9350611d47818560208601611ce7565b611d5081611d11565b840191505092915050565b60008115159050919050565b611d7081611d5b565b82525050565b7f4e487b7100000000000000000000000000000000000000000000000000000000600052602160045260246000fd5b60028110611db657611db5611d76565b5b50565b6000819050611dc782611da5565b919050565b6000611dd782611db9565b9050919050565b611de781611dcc565b82525050565b600061018082019050611e03600083018f611c7b565b611e10602083018e611cbc565b611e1d604083018d611c7b565b8181036060830152611e2f818c611d22565b9050611e3e608083018b611c7b565b611e4b60a083018a611c7b565b611e5860c0830189611c7b565b611e6560e0830188611c7b565b611e73610100830187611d67565b611e81610120830186611dde565b611e8f610140830185611cbc565b611e9d610160830184611c7b565b9d9c50505050505050505050505050565b600080fd5b600080fd5b7f4e487b7100000000000000000000000000000000000000000000000000000000600052604160045260246000fd5b611ef082611d11565b810181811067ffffffffffffffff82111715611f0f57611f0e611eb8565b5b80604052505050565b6000611f22611c04565b9050611f2e8282611ee7565b919050565b600067ffffffffffffffff821115611f4e57611f4d611eb8565b5b611f5782611d11565b9050602081019050919050565b82818337600083830152505050565b6000611f86611f8184611f33565b611f18565b905082815260208101848484011115611fa257611fa1611eb3565b5b611fad848285611f64565b509392505050565b600082601f830112611fca57611fc9611eae565b5b8135611fda848260208601611f73565b91505092915050565b60008060408385031215611ffa57611ff9611c0e565b5b600061200885828601611c39565b925050602083013567ffffffffffffffff81111561202957612028611c13565b5b61203585828601611fb5565b9150509250929050565b60006020820190506120546000830184611c7b565b92915050565b61206381611caa565b811461206e57600080fd5b50565b6000813590506120808161205a565b92915050565b6000806040838503121561209d5761209c611c0e565b5b60006120ab85828601611c39565b92505060206120bc85828601612071565b9150509250929050565b60006020820190506120db6000830184611d67565b92915050565b600081519050919050565b600082825260208201905092915050565b6000819050602082019050919050565b61211681611c18565b82525050565b61212581611caa565b82525050565b600082825260208201905092915050565b600061214782611ccb565b612151818561212b565b9350612161818560208601611ce7565b61216a81611d11565b840191505092915050565b61217e81611d5b565b82525050565b61218d81611dcc565b82525050565b6000610180830160008301516121ac600086018261210d565b5060208301516121bf602086018261211c565b5060408301516121d2604086018261210d565b50606083015184820360608601526121ea828261213c565b91505060808301516121ff608086018261210d565b5060a083015161221260a086018261210d565b5060c083015161222560c086018261210d565b5060e083015161223860e086018261210d565b5061010083015161224d610100860182612175565b50610120830151612262610120860182612184565b5061014083015161227761014086018261211c565b5061016083015161228c61016086018261210d565b508091505092915050565b60006122a38383612193565b905092915050565b6000602082019050919050565b60006122c3826120e1565b6122cd81856120ec565b9350836020820285016122df856120fd565b8060005b8581101561231b57848403895281516122fc8582612297565b9450612307836122ab565b925060208a019950506001810190506122e3565b50829750879550505050505092915050565b6000602082019050818103600083015261234781846122b8565b905092915050565b6000806000806080858703121561236957612368611c0e565b5b600061237787828801611c39565b945050602085013567ffffffffffffffff81111561239857612397611c13565b5b6123a487828801611fb5565b93505060406123b587828801612071565b92505060606123c687828801611c39565b91505092959194509250565b6000819050919050565b60006123f76123f26123ed84611c8a565b6123d2565b611c8a565b9050919050565b6000612409826123dc565b9050919050565b600061241b826123fe565b9050919050565b61242b81612410565b82525050565b60006020820190506124466000830184612422565b92915050565b61245581611d5b565b811461246057600080fd5b50565b6000813590506124728161244c565b92915050565b6000806040838503121561248f5761248e611c0e565b5b600061249d85828601611c39565b92505060206124ae85828601612463565b9150509250929050565b7f4e487b7100000000000000000000000000000000000000000000000000000000600052602260045260246000fd5b600060028204905060018216806124ff57607f821691505b602082108103612512576125116124b8565b5b50919050565b600060408201905061252d6000830185611cbc565b61253a6020830184611c7b565b9392505050565b60008151905061255081611c22565b92915050565b60006020828403121561256c5761256b611c0e565b5b600061257a84828501612541565b91505092915050565b7f4d757374206265206120746f6b656e20686f6c64657220746f2063726561746560008201527f2070726f706f73616c0000000000000000000000000000000000000000000000602082015250565b60006125df602983611cd6565b91506125ea82612583565b604082019050919050565b6000602082019050818103600083015261260e816125d2565b9050919050565b7f4e487b7100000000000000000000000000000000000000000000000000000000600052601160045260246000fd5b600061264f82611c18565b915061265a83611c18565b925082820190508082111561267257612671612615565b5b92915050565b60008190508160005260206000209050919050565b60006020601f8301049050919050565b600082821b905092915050565b6000600883026126da7fffffffffffffffffffffffffffffffffffffffffffffffffffffffffffffffff8261269d565b6126e4868361269d565b95508019841693508086168417925050509392505050565b600061271761271261270d84611c18565b6123d2565b611c18565b9050919050565b6000819050919050565b612731836126fc565b61274561273d8261271e565b8484546126aa565b825550505050565b600090565b61275a61274d565b612765818484612728565b505050565b5b818110156127895761277e600082612752565b60018101905061276b565b5050565b601f8211156127ce5761279f81612678565b6127a88461268d565b810160208510156127b7578190505b6127cb6127c38561268d565b83018261276a565b50505b505050565b600082821c905092915050565b60006127f1600019846008026127d3565b1980831691505092915050565b600061280a83836127e0565b9150826002028217905092915050565b61282382611ccb565b67ffffffffffffffff81111561283c5761283b611eb8565b5b61284682546124e7565b61285182828561278d565b600060209050601f8311600181146128845760008415612872578287015190505b61287c85826127fe565b8655506128e4565b601f19841661289286612678565b60005b828110156128ba57848901518255600182019150602085019450602081019050612895565b868310156128d757848901516128d3601f8916826127e0565b8355505b6001600288020188555050505b505050505050565b60006128f782611c18565b91507fffffffffffffffffffffffffffffffffffffffffffffffffffffffffffffffff820361292957612928612615565b5b600182019050919050565b600061293f82611c18565b915061294a83611c18565b925082820390508181111561296257612961612615565b5b92915050565b600060a08201905061297d6000830188611c7b565b61298a6020830187611cbc565b6129976040830186611c7b565b81810360608301526129a98185611d22565b90506129b86080830184611c7b565b9695505050505050565b7f4f6e6c79207468652074656e616e742063616e2065786563757465207468697360008201527f2070726f706f73616c0000000000000000000000000000000000000000000000602082015250565b6000612a1e602983611cd6565b9150612a29826129c2565b604082019050919050565b60006020820190508181036000830152612a4d81612a11565b9050919050565b7f566f74696e6720706572696f6420686173206e6f7420656e6465640000000000600082015250565b6000612a8a601b83611cd6565b9150612a9582612a54565b602082019050919050565b60006020820190508181036000830152612ab981612a7d565b9050919050565b7f50726f706f73616c20686173206265656e206578656375746564000000000000600082015250565b6000612af6601a83611cd6565b9150612b0182612ac0565b602082019050919050565b60006020820190508181036000830152612b2581612ae9565b9050919050565b7f4e487b7100000000000000000000000000000000000000000000000000000000600052601260045260246000fd5b6000612b6682611c18565b9150612b7183611c18565b925082612b8157612b80612b2c565b5b828204905092915050565b7f52656e7420616d6f756e7420697320696e636f72726563740000000000000000600082015250565b6000612bc2601883611cd6565b9150612bcd82612b8c565b602082019050919050565b60006020820190508181036000830152612bf181612bb5565b9050919050565b6000604082019050612c0d6000830185611c7b565b612c1a6020830184611c7b565b9392505050565b600081519050612c308161205a565b92915050565b600060208284031215612c4c57612c4b611c0e565b5b6000612c5a84828501612c21565b91505092915050565b6000612c6e826123fe565b9050919050565b612c7e81612c63565b82525050565b6000604082019050612c996000830185612c75565b612ca66020830184611c7b565b9392505050565b6000612cb882611c18565b9150612cc383611c18565b9250828202612cd181611c18565b91508282048414831517612ce857612ce7612615565b5b5092915050565b7f4e487b7100000000000000000000000000000000000000000000000000000000600052603260045260246000fd5b7f566f74696e6720706572696f642068617320656e646564000000000000000000600082015250565b6000612d54601783611cd6565b9150612d5f82612d1e565b602082019050919050565b60006020820190508181036000830152612d8381612d47565b9050919050565b7f596f75206861766520616c726561647920766f746564206f6e2074686973207060008201527f726f706f73616c00000000000000000000000000000000000000000000000000602082015250565b6000612de6602783611cd6565b9150612df182612d8a565b604082019050919050565b60006020820190508181036000830152612e1581612dd9565b9050919050565b7f4d757374206265206120746f6b656e20686f6c64657220746f20766f74650000600082015250565b6000612e52601e83611cd6565b9150612e5d82612e1c565b602082019050919050565b60006020820190508181036000830152612e8181612e45565b9050919050565b6000608082019050612e9d6000830187611c7b565b612eaa6020830186611cbc565b612eb76040830185611d67565b612ec46060830184611c7b565b9594505050505056fea264697066735822122064a8aa7840f8d8e1d7936aa05271eb655aab71a66fd53fbcfdb0db5594e732fc64736f6c63430008130033",
  "linkReferences": {},
  "deployedLinkReferences": {}
}