{
  "_format": "hh-sol-artifact-1",
  "contractName": "GovernorContract",
  "sourceName": "contracts/governance_standard/GovernorContract.sol",
  "abi": [
    {
      "inputs": [
        {
          "internalType": "contract IVotes",
          "name": "_token",
          "type": "address"
        },
        {
          "internalType": "contract TimelockController",
          "name": "_timelock",
          "type": "address"
        },
        {
          "internalType": "uint256",
          "name": "_quorumPercentage",
          "type": "uint256"
        },
        {
          "internalType": "uint256",
          "name": "_votingPeriod",
          "type": "uint256"
        },
        {
          "internalType": "uint256",
          "name": "_votingDelay",
          "type": "uint256"
        }
      ],
      "stateMutability": "nonpayable",
      "type": "constructor"
    },
    {
      "inputs": [],
      "name": "Empty",
      "type": "error"
    },
    {
      "inputs": [],
      "name": "InvalidShortString",
      "type": "error"
    },
    {
      "inputs": [
        {
          "internalType": "string",
          "name": "str",
          "type": "string"
        }
      ],
      "name": "StringTooLong",
      "type": "error"
    },
    {
      "anonymous": false,
      "inputs": [],
      "name": "EIP712DomainChanged",
      "type": "event"
    },
    {
      "anonymous": false,
      "inputs": [
        {
          "indexed": false,
          "internalType": "uint256",
          "name": "proposalId",
          "type": "uint256"
        }
      ],
      "name": "ProposalCanceled",
      "type": "event"
    },
    {
      "anonymous": false,
      "inputs": [
        {
          "indexed": false,
          "internalType": "uint256",
          "name": "proposalId",
          "type": "uint256"
        },
        {
          "indexed": false,
          "internalType": "address",
          "name": "proposer",
          "type": "address"
        },
        {
          "indexed": false,
          "internalType": "address[]",
          "name": "targets",
          "type": "address[]"
        },
        {
          "indexed": false,
          "internalType": "uint256[]",
          "name": "values",
          "type": "uint256[]"
        },
        {
          "indexed": false,
          "internalType": "string[]",
          "name": "signatures",
          "type": "string[]"
        },
        {
          "indexed": false,
          "internalType": "bytes[]",
          "name": "calldatas",
          "type": "bytes[]"
        },
        {
          "indexed": false,
          "internalType": "uint256",
          "name": "voteStart",
          "type": "uint256"
        },
        {
          "indexed": false,
          "internalType": "uint256",
          "name": "voteEnd",
          "type": "uint256"
        },
        {
          "indexed": false,
          "internalType": "string",
          "name": "description",
          "type": "string"
        }
      ],
      "name": "ProposalCreated",
      "type": "event"
    },
    {
      "anonymous": false,
      "inputs": [
        {
          "indexed": false,
          "internalType": "uint256",
          "name": "proposalId",
          "type": "uint256"
        }
      ],
      "name": "ProposalExecuted",
      "type": "event"
    },
    {
      "anonymous": false,
      "inputs": [
        {
          "indexed": false,
          "internalType": "uint256",
          "name": "proposalId",
          "type": "uint256"
        },
        {
          "indexed": false,
          "internalType": "uint256",
          "name": "eta",
          "type": "uint256"
        }
      ],
      "name": "ProposalQueued",
      "type": "event"
    },
    {
      "anonymous": false,
      "inputs": [
        {
          "indexed": false,
          "internalType": "uint256",
          "name": "oldProposalThreshold",
          "type": "uint256"
        },
        {
          "indexed": false,
          "internalType": "uint256",
          "name": "newProposalThreshold",
          "type": "uint256"
        }
      ],
      "name": "ProposalThresholdSet",
      "type": "event"
    },
    {
      "anonymous": false,
      "inputs": [
        {
          "indexed": false,
          "internalType": "uint256",
          "name": "oldQuorumNumerator",
          "type": "uint256"
        },
        {
          "indexed": false,
          "internalType": "uint256",
          "name": "newQuorumNumerator",
          "type": "uint256"
        }
      ],
      "name": "QuorumNumeratorUpdated",
      "type": "event"
    },
    {
      "anonymous": false,
      "inputs": [
        {
          "indexed": false,
          "internalType": "address",
          "name": "oldTimelock",
          "type": "address"
        },
        {
          "indexed": false,
          "internalType": "address",
          "name": "newTimelock",
          "type": "address"
        }
      ],
      "name": "TimelockChange",
      "type": "event"
    },
    {
      "anonymous": false,
      "inputs": [
        {
          "indexed": true,
          "internalType": "address",
          "name": "voter",
          "type": "address"
        },
        {
          "indexed": false,
          "internalType": "uint256",
          "name": "proposalId",
          "type": "uint256"
        },
        {
          "indexed": false,
          "internalType": "uint8",
          "name": "support",
          "type": "uint8"
        },
        {
          "indexed": false,
          "internalType": "uint256",
          "name": "weight",
          "type": "uint256"
        },
        {
          "indexed": false,
          "internalType": "string",
          "name": "reason",
          "type": "string"
        }
      ],
      "name": "VoteCast",
      "type": "event"
    },
    {
      "anonymous": false,
      "inputs": [
        {
          "indexed": true,
          "internalType": "address",
          "name": "voter",
          "type": "address"
        },
        {
          "indexed": false,
          "internalType": "uint256",
          "name": "proposalId",
          "type": "uint256"
        },
        {
          "indexed": false,
          "internalType": "uint8",
          "name": "support",
          "type": "uint8"
        },
        {
          "indexed": false,
          "internalType": "uint256",
          "name": "weight",
          "type": "uint256"
        },
        {
          "indexed": false,
          "internalType": "string",
          "name": "reason",
          "type": "string"
        },
        {
          "indexed": false,
          "internalType": "bytes",
          "name": "params",
          "type": "bytes"
        }
      ],
      "name": "VoteCastWithParams",
      "type": "event"
    },
    {
      "anonymous": false,
      "inputs": [
        {
          "indexed": false,
          "internalType": "uint256",
          "name": "oldVotingDelay",
          "type": "uint256"
        },
        {
          "indexed": false,
          "internalType": "uint256",
          "name": "newVotingDelay",
          "type": "uint256"
        }
      ],
      "name": "VotingDelaySet",
      "type": "event"
    },
    {
      "anonymous": false,
      "inputs": [
        {
          "indexed": false,
          "internalType": "uint256",
          "name": "oldVotingPeriod",
          "type": "uint256"
        },
        {
          "indexed": false,
          "internalType": "uint256",
          "name": "newVotingPeriod",
          "type": "uint256"
        }
      ],
      "name": "VotingPeriodSet",
      "type": "event"
    },
    {
      "inputs": [],
      "name": "BALLOT_TYPEHASH",
      "outputs": [
        {
          "internalType": "bytes32",
          "name": "",
          "type": "bytes32"
        }
      ],
      "stateMutability": "view",
      "type": "function"
    },
    {
      "inputs": [],
      "name": "CLOCK_MODE",
      "outputs": [
        {
          "internalType": "string",
          "name": "",
          "type": "string"
        }
      ],
      "stateMutability": "view",
      "type": "function"
    },
    {
      "inputs": [],
      "name": "COUNTING_MODE",
      "outputs": [
        {
          "internalType": "string",
          "name": "",
          "type": "string"
        }
      ],
      "stateMutability": "pure",
      "type": "function"
    },
    {
      "inputs": [],
      "name": "EXTENDED_BALLOT_TYPEHASH",
      "outputs": [
        {
          "internalType": "bytes32",
          "name": "",
          "type": "bytes32"
        }
      ],
      "stateMutability": "view",
      "type": "function"
    },
    {
      "inputs": [
        {
          "internalType": "address[]",
          "name": "targets",
          "type": "address[]"
        },
        {
          "internalType": "uint256[]",
          "name": "values",
          "type": "uint256[]"
        },
        {
          "internalType": "bytes[]",
          "name": "calldatas",
          "type": "bytes[]"
        },
        {
          "internalType": "bytes32",
          "name": "descriptionHash",
          "type": "bytes32"
        }
      ],
      "name": "cancel",
      "outputs": [
        {
          "internalType": "uint256",
          "name": "",
          "type": "uint256"
        }
      ],
      "stateMutability": "nonpayable",
      "type": "function"
    },
    {
      "inputs": [
        {
          "internalType": "uint256",
          "name": "proposalId",
          "type": "uint256"
        },
        {
          "internalType": "uint8",
          "name": "support",
          "type": "uint8"
        }
      ],
      "name": "castVote",
      "outputs": [
        {
          "internalType": "uint256",
          "name": "",
          "type": "uint256"
        }
      ],
      "stateMutability": "nonpayable",
      "type": "function"
    },
    {
      "inputs": [
        {
          "internalType": "uint256",
          "name": "proposalId",
          "type": "uint256"
        },
        {
          "internalType": "uint8",
          "name": "support",
          "type": "uint8"
        },
        {
          "internalType": "uint8",
          "name": "v",
          "type": "uint8"
        },
        {
          "internalType": "bytes32",
          "name": "r",
          "type": "bytes32"
        },
        {
          "internalType": "bytes32",
          "name": "s",
          "type": "bytes32"
        }
      ],
      "name": "castVoteBySig",
      "outputs": [
        {
          "internalType": "uint256",
          "name": "",
          "type": "uint256"
        }
      ],
      "stateMutability": "nonpayable",
      "type": "function"
    },
    {
      "inputs": [
        {
          "internalType": "uint256",
          "name": "proposalId",
          "type": "uint256"
        },
        {
          "internalType": "uint8",
          "name": "support",
          "type": "uint8"
        },
        {
          "internalType": "string",
          "name": "reason",
          "type": "string"
        }
      ],
      "name": "castVoteWithReason",
      "outputs": [
        {
          "internalType": "uint256",
          "name": "",
          "type": "uint256"
        }
      ],
      "stateMutability": "nonpayable",
      "type": "function"
    },
    {
      "inputs": [
        {
          "internalType": "uint256",
          "name": "proposalId",
          "type": "uint256"
        },
        {
          "internalType": "uint8",
          "name": "support",
          "type": "uint8"
        },
        {
          "internalType": "string",
          "name": "reason",
          "type": "string"
        },
        {
          "internalType": "bytes",
          "name": "params",
          "type": "bytes"
        }
      ],
      "name": "castVoteWithReasonAndParams",
      "outputs": [
        {
          "internalType": "uint256",
          "name": "",
          "type": "uint256"
        }
      ],
      "stateMutability": "nonpayable",
      "type": "function"
    },
    {
      "inputs": [
        {
          "internalType": "uint256",
          "name": "proposalId",
          "type": "uint256"
        },
        {
          "internalType": "uint8",
          "name": "support",
          "type": "uint8"
        },
        {
          "internalType": "string",
          "name": "reason",
          "type": "string"
        },
        {
          "internalType": "bytes",
          "name": "params",
          "type": "bytes"
        },
        {
          "internalType": "uint8",
          "name": "v",
          "type": "uint8"
        },
        {
          "internalType": "bytes32",
          "name": "r",
          "type": "bytes32"
        },
        {
          "internalType": "bytes32",
          "name": "s",
          "type": "bytes32"
        }
      ],
      "name": "castVoteWithReasonAndParamsBySig",
      "outputs": [
        {
          "internalType": "uint256",
          "name": "",
          "type": "uint256"
        }
      ],
      "stateMutability": "nonpayable",
      "type": "function"
    },
    {
      "inputs": [],
      "name": "clock",
      "outputs": [
        {
          "internalType": "uint48",
          "name": "",
          "type": "uint48"
        }
      ],
      "stateMutability": "view",
      "type": "function"
    },
    {
      "inputs": [],
      "name": "eip712Domain",
      "outputs": [
        {
          "internalType": "bytes1",
          "name": "fields",
          "type": "bytes1"
        },
        {
          "internalType": "string",
          "name": "name",
          "type": "string"
        },
        {
          "internalType": "string",
          "name": "version",
          "type": "string"
        },
        {
          "internalType": "uint256",
          "name": "chainId",
          "type": "uint256"
        },
        {
          "internalType": "address",
          "name": "verifyingContract",
          "type": "address"
        },
        {
          "internalType": "bytes32",
          "name": "salt",
          "type": "bytes32"
        },
        {
          "internalType": "uint256[]",
          "name": "extensions",
          "type": "uint256[]"
        }
      ],
      "stateMutability": "view",
      "type": "function"
    },
    {
      "inputs": [
        {
          "internalType": "address[]",
          "name": "targets",
          "type": "address[]"
        },
        {
          "internalType": "uint256[]",
          "name": "values",
          "type": "uint256[]"
        },
        {
          "internalType": "bytes[]",
          "name": "calldatas",
          "type": "bytes[]"
        },
        {
          "internalType": "bytes32",
          "name": "descriptionHash",
          "type": "bytes32"
        }
      ],
      "name": "execute",
      "outputs": [
        {
          "internalType": "uint256",
          "name": "",
          "type": "uint256"
        }
      ],
      "stateMutability": "payable",
      "type": "function"
    },
    {
      "inputs": [
        {
          "internalType": "address",
          "name": "account",
          "type": "address"
        },
        {
          "internalType": "uint256",
          "name": "blockNumber",
          "type": "uint256"
        }
      ],
      "name": "getVotes",
      "outputs": [
        {
          "internalType": "uint256",
          "name": "",
          "type": "uint256"
        }
      ],
      "stateMutability": "view",
      "type": "function"
    },
    {
      "inputs": [
        {
          "internalType": "address",
          "name": "account",
          "type": "address"
        },
        {
          "internalType": "uint256",
          "name": "timepoint",
          "type": "uint256"
        },
        {
          "internalType": "bytes",
          "name": "params",
          "type": "bytes"
        }
      ],
      "name": "getVotesWithParams",
      "outputs": [
        {
          "internalType": "uint256",
          "name": "",
          "type": "uint256"
        }
      ],
      "stateMutability": "view",
      "type": "function"
    },
    {
      "inputs": [
        {
          "internalType": "uint256",
          "name": "proposalId",
          "type": "uint256"
        },
        {
          "internalType": "address",
          "name": "account",
          "type": "address"
        }
      ],
      "name": "hasVoted",
      "outputs": [
        {
          "internalType": "bool",
          "name": "",
          "type": "bool"
        }
      ],
      "stateMutability": "view",
      "type": "function"
    },
    {
      "inputs": [
        {
          "internalType": "address[]",
          "name": "targets",
          "type": "address[]"
        },
        {
          "internalType": "uint256[]",
          "name": "values",
          "type": "uint256[]"
        },
        {
          "internalType": "bytes[]",
          "name": "calldatas",
          "type": "bytes[]"
        },
        {
          "internalType": "bytes32",
          "name": "descriptionHash",
          "type": "bytes32"
        }
      ],
      "name": "hashProposal",
      "outputs": [
        {
          "internalType": "uint256",
          "name": "",
          "type": "uint256"
        }
      ],
      "stateMutability": "pure",
      "type": "function"
    },
    {
      "inputs": [],
      "name": "name",
      "outputs": [
        {
          "internalType": "string",
          "name": "",
          "type": "string"
        }
      ],
      "stateMutability": "view",
      "type": "function"
    },
    {
      "inputs": [
        {
          "internalType": "address",
          "name": "",
          "type": "address"
        },
        {
          "internalType": "address",
          "name": "",
          "type": "address"
        },
        {
          "internalType": "uint256[]",
          "name": "",
          "type": "uint256[]"
        },
        {
          "internalType": "uint256[]",
          "name": "",
          "type": "uint256[]"
        },
        {
          "internalType": "bytes",
          "name": "",
          "type": "bytes"
        }
      ],
      "name": "onERC1155BatchReceived",
      "outputs": [
        {
          "internalType": "bytes4",
          "name": "",
          "type": "bytes4"
        }
      ],
      "stateMutability": "nonpayable",
      "type": "function"
    },
    {
      "inputs": [
        {
          "internalType": "address",
          "name": "",
          "type": "address"
        },
        {
          "internalType": "address",
          "name": "",
          "type": "address"
        },
        {
          "internalType": "uint256",
          "name": "",
          "type": "uint256"
        },
        {
          "internalType": "uint256",
          "name": "",
          "type": "uint256"
        },
        {
          "internalType": "bytes",
          "name": "",
          "type": "bytes"
        }
      ],
      "name": "onERC1155Received",
      "outputs": [
        {
          "internalType": "bytes4",
          "name": "",
          "type": "bytes4"
        }
      ],
      "stateMutability": "nonpayable",
      "type": "function"
    },
    {
      "inputs": [
        {
          "internalType": "address",
          "name": "",
          "type": "address"
        },
        {
          "internalType": "address",
          "name": "",
          "type": "address"
        },
        {
          "internalType": "uint256",
          "name": "",
          "type": "uint256"
        },
        {
          "internalType": "bytes",
          "name": "",
          "type": "bytes"
        }
      ],
      "name": "onERC721Received",
      "outputs": [
        {
          "internalType": "bytes4",
          "name": "",
          "type": "bytes4"
        }
      ],
      "stateMutability": "nonpayable",
      "type": "function"
    },
    {
      "inputs": [
        {
          "internalType": "uint256",
          "name": "proposalId",
          "type": "uint256"
        }
      ],
      "name": "proposalDeadline",
      "outputs": [
        {
          "internalType": "uint256",
          "name": "",
          "type": "uint256"
        }
      ],
      "stateMutability": "view",
      "type": "function"
    },
    {
      "inputs": [
        {
          "internalType": "uint256",
          "name": "proposalId",
          "type": "uint256"
        }
      ],
      "name": "proposalEta",
      "outputs": [
        {
          "internalType": "uint256",
          "name": "",
          "type": "uint256"
        }
      ],
      "stateMutability": "view",
      "type": "function"
    },
    {
      "inputs": [
        {
          "internalType": "uint256",
          "name": "proposalId",
          "type": "uint256"
        }
      ],
      "name": "proposalProposer",
      "outputs": [
        {
          "internalType": "address",
          "name": "",
          "type": "address"
        }
      ],
      "stateMutability": "view",
      "type": "function"
    },
    {
      "inputs": [
        {
          "internalType": "uint256",
          "name": "proposalId",
          "type": "uint256"
        }
      ],
      "name": "proposalSnapshot",
      "outputs": [
        {
          "internalType": "uint256",
          "name": "",
          "type": "uint256"
        }
      ],
      "stateMutability": "view",
      "type": "function"
    },
    {
      "inputs": [],
      "name": "proposalThreshold",
      "outputs": [
        {
          "internalType": "uint256",
          "name": "",
          "type": "uint256"
        }
      ],
      "stateMutability": "view",
      "type": "function"
    },
    {
      "inputs": [
        {
          "internalType": "uint256",
          "name": "proposalId",
          "type": "uint256"
        }
      ],
      "name": "proposalVotes",
      "outputs": [
        {
          "internalType": "uint256",
          "name": "againstVotes",
          "type": "uint256"
        },
        {
          "internalType": "uint256",
          "name": "forVotes",
          "type": "uint256"
        },
        {
          "internalType": "uint256",
          "name": "abstainVotes",
          "type": "uint256"
        }
      ],
      "stateMutability": "view",
      "type": "function"
    },
    {
      "inputs": [
        {
          "internalType": "address[]",
          "name": "targets",
          "type": "address[]"
        },
        {
          "internalType": "uint256[]",
          "name": "values",
          "type": "uint256[]"
        },
        {
          "internalType": "bytes[]",
          "name": "calldatas",
          "type": "bytes[]"
        },
        {
          "internalType": "string",
          "name": "description",
          "type": "string"
        }
      ],
      "name": "propose",
      "outputs": [
        {
          "internalType": "uint256",
          "name": "",
          "type": "uint256"
        }
      ],
      "stateMutability": "nonpayable",
      "type": "function"
    },
    {
      "inputs": [
        {
          "internalType": "address[]",
          "name": "targets",
          "type": "address[]"
        },
        {
          "internalType": "uint256[]",
          "name": "values",
          "type": "uint256[]"
        },
        {
          "internalType": "bytes[]",
          "name": "calldatas",
          "type": "bytes[]"
        },
        {
          "internalType": "bytes32",
          "name": "descriptionHash",
          "type": "bytes32"
        }
      ],
      "name": "queue",
      "outputs": [
        {
          "internalType": "uint256",
          "name": "",
          "type": "uint256"
        }
      ],
      "stateMutability": "nonpayable",
      "type": "function"
    },
    {
      "inputs": [
        {
          "internalType": "uint256",
          "name": "blockNumber",
          "type": "uint256"
        }
      ],
      "name": "quorum",
      "outputs": [
        {
          "internalType": "uint256",
          "name": "",
          "type": "uint256"
        }
      ],
      "stateMutability": "view",
      "type": "function"
    },
    {
      "inputs": [],
      "name": "quorumDenominator",
      "outputs": [
        {
          "internalType": "uint256",
          "name": "",
          "type": "uint256"
        }
      ],
      "stateMutability": "view",
      "type": "function"
    },
    {
      "inputs": [
        {
          "internalType": "uint256",
          "name": "timepoint",
          "type": "uint256"
        }
      ],
      "name": "quorumNumerator",
      "outputs": [
        {
          "internalType": "uint256",
          "name": "",
          "type": "uint256"
        }
      ],
      "stateMutability": "view",
      "type": "function"
    },
    {
      "inputs": [],
      "name": "quorumNumerator",
      "outputs": [
        {
          "internalType": "uint256",
          "name": "",
          "type": "uint256"
        }
      ],
      "stateMutability": "view",
      "type": "function"
    },
    {
      "inputs": [
        {
          "internalType": "address",
          "name": "target",
          "type": "address"
        },
        {
          "internalType": "uint256",
          "name": "value",
          "type": "uint256"
        },
        {
          "internalType": "bytes",
          "name": "data",
          "type": "bytes"
        }
      ],
      "name": "relay",
      "outputs": [],
      "stateMutability": "payable",
      "type": "function"
    },
    {
      "inputs": [
        {
          "internalType": "uint256",
          "name": "newProposalThreshold",
          "type": "uint256"
        }
      ],
      "name": "setProposalThreshold",
      "outputs": [],
      "stateMutability": "nonpayable",
      "type": "function"
    },
    {
      "inputs": [
        {
          "internalType": "uint256",
          "name": "newVotingDelay",
          "type": "uint256"
        }
      ],
      "name": "setVotingDelay",
      "outputs": [],
      "stateMutability": "nonpayable",
      "type": "function"
    },
    {
      "inputs": [
        {
          "internalType": "uint256",
          "name": "newVotingPeriod",
          "type": "uint256"
        }
      ],
      "name": "setVotingPeriod",
      "outputs": [],
      "stateMutability": "nonpayable",
      "type": "function"
    },
    {
      "inputs": [
        {
          "internalType": "uint256",
          "name": "proposalId",
          "type": "uint256"
        }
      ],
      "name": "state",
      "outputs": [
        {
          "internalType": "enum IGovernor.ProposalState",
          "name": "",
          "type": "uint8"
        }
      ],
      "stateMutability": "view",
      "type": "function"
    },
    {
      "inputs": [
        {
          "internalType": "bytes4",
          "name": "interfaceId",
          "type": "bytes4"
        }
      ],
      "name": "supportsInterface",
      "outputs": [
        {
          "internalType": "bool",
          "name": "",
          "type": "bool"
        }
      ],
      "stateMutability": "view",
      "type": "function"
    },
    {
      "inputs": [],
      "name": "timelock",
      "outputs": [
        {
          "internalType": "address",
          "name": "",
          "type": "address"
        }
      ],
      "stateMutability": "view",
      "type": "function"
    },
    {
      "inputs": [],
      "name": "token",
      "outputs": [
        {
          "internalType": "contract IERC5805",
          "name": "",
          "type": "address"
        }
      ],
      "stateMutability": "view",
      "type": "function"
    },
    {
      "inputs": [
        {
          "internalType": "uint256",
          "name": "newQuorumNumerator",
          "type": "uint256"
        }
      ],
      "name": "updateQuorumNumerator",
      "outputs": [],
      "stateMutability": "nonpayable",
      "type": "function"
    },
    {
      "inputs": [
        {
          "internalType": "contract TimelockController",
          "name": "newTimelock",
          "type": "address"
        }
      ],
      "name": "updateTimelock",
      "outputs": [],
      "stateMutability": "nonpayable",
      "type": "function"
    },
    {
      "inputs": [],
      "name": "version",
      "outputs": [
        {
          "internalType": "string",
          "name": "",
          "type": "string"
        }
      ],
      "stateMutability": "view",
      "type": "function"
    },
    {
      "inputs": [],
      "name": "votingDelay",
      "outputs": [
        {
          "internalType": "uint256",
          "name": "",
          "type": "uint256"
        }
      ],
      "stateMutability": "view",
      "type": "function"
    },
    {
      "inputs": [],
      "name": "votingPeriod",
      "outputs": [
        {
          "internalType": "uint256",
          "name": "",
          "type": "uint256"
        }
      ],
      "stateMutability": "view",
      "type": "function"
    },
    {
      "stateMutability": "payable",
      "type": "receive"
    }
  ],
  "bytecode": "0x6101806040523480156200001257600080fd5b50604051620099c7380380620099c7833981810160405281019062000038919062000eb3565b838386838560006040518060400160405280601081526020017f476f7665726e6f72436f6e7472616374000000000000000000000000000000008152508062000086620001ee60201b60201c565b620000a16000836200022b60201b620023b61790919060201c565b6101208181525050620000c46001826200022b60201b620023b61790919060201c565b6101408181525050818051906020012060e08181525050808051906020012061010081815250504660a08181525050620001036200028860201b60201c565b608081815250503073ffffffffffffffffffffffffffffffffffffffff1660c08173ffffffffffffffffffffffffffffffffffffffff168152505050508060029081620001519190620011ab565b50506200016483620002e560201b60201c565b62000175826200032c60201b60201c565b6200018681620003b960201b60201c565b5050508073ffffffffffffffffffffffffffffffffffffffff166101608173ffffffffffffffffffffffffffffffffffffffff168152505050620001d0816200040060201b60201c565b50620001e2816200062260201b60201c565b5050505050506200194a565b60606040518060400160405280600181526020017f3100000000000000000000000000000000000000000000000000000000000000815250905090565b600060208351101562000251576200024983620006c360201b60201c565b905062000282565b8262000268836200073060201b620023fa1760201c565b6000019081620002799190620011ab565b5060ff60001b90505b92915050565b60007f8b73c3c69bb8fe3d512ecc4cf759cc79239f7b179b0ffacaa9a75d522b39400f60e051610100514630604051602001620002ca959493929190620012cf565b60405160208183030381529060405280519060200120905090565b7fc565b045403dc03c2eea82b81a0465edad9e2e7fc4d97e11421c209da93d7a93600654826040516200031a9291906200132c565b60405180910390a18060068190555050565b6000811162000372576040517f08c379a00000000000000000000000000000000000000000000000000000000081526004016200036990620013e0565b60405180910390fd5b7f7e3f7f0708a84de9203036abaa450dccc85ad5ff52f78c170f3edb55cf5e882860075482604051620003a79291906200132c565b60405180910390a18060078190555050565b7fccb45da8d5717e6c4544694297c4ba5cf151d455c9bb0ed4fc7a38411bc0546160085482604051620003ee9291906200132c565b60405180910390a18060088190555050565b620004106200073a60201b60201c565b81111562000455576040517f08c379a00000000000000000000000000000000000000000000000000000000081526004016200044c906200149e565b60405180910390fd5b6000620004676200074360201b60201c565b9050600081141580156200048357506000600b60000180549050145b156200058357600b6000016040518060400160405280600063ffffffff168152602001620004bc846200079960201b620024041760201c565b7bffffffffffffffffffffffffffffffffffffffffffffffffffffffff168152509080600181540180825580915050600190039060005260206000200160009091909190915060008201518160000160006101000a81548163ffffffff021916908363ffffffff16021790555060208201518160000160046101000a8154817bffffffffffffffffffffffffffffffffffffffffffffffffffffffff02191690837bffffffffffffffffffffffffffffffffffffffffffffffffffffffff16021790555050505b620005e1620005b46200059b6200080760201b60201c565b65ffffffffffff16620008a260201b6200246f1760201c565b620005ca846200079960201b620024041760201c565b600b620008f860201b620024c2179092919060201c565b50507f0553476bf02ef2726e8ce5ced78d63e26e602e4a2257b1f559418e24b46339978183604051620006169291906200132c565b60405180910390a15050565b7f08f74ea46ef7894f65eabfb5e6e695de773a000b47c529ab559178069b226401600c60009054906101000a900473ffffffffffffffffffffffffffffffffffffffff168260405162000677929190620014c0565b60405180910390a180600c60006101000a81548173ffffffffffffffffffffffffffffffffffffffff021916908373ffffffffffffffffffffffffffffffffffffffff16021790555050565b600080829050601f815111156200071357826040517f305a27a90000000000000000000000000000000000000000000000000000000081526004016200070a91906200156b565b60405180910390fd5b8051816200072190620015c1565b60001c1760001b915050919050565b6000819050919050565b60006064905090565b600080600b600001805490501462000790576200076c600b6200091d60201b620024df1760201c565b7bffffffffffffffffffffffffffffffffffffffffffffffffffffffff1662000794565b600a545b905090565b60007bffffffffffffffffffffffffffffffffffffffffffffffffffffffff8016821115620007ff576040517f08c379a0000000000000000000000000000000000000000000000000000000008152600401620007f690620016a7565b60405180910390fd5b819050919050565b60006101605173ffffffffffffffffffffffffffffffffffffffff166391ddadf46040518163ffffffff1660e01b8152600401602060405180830381865afa9250505080156200087757506040513d601f19601f820116820180604052508101906200087491906200170c565b60015b6200089a5762000892436200099360201b620025491760201c565b90506200089f565b809150505b90565b600063ffffffff8016821115620008f0576040517f08c379a0000000000000000000000000000000000000000000000000000000008152600401620008e790620017b4565b60405180910390fd5b819050919050565b60008062000911856000018585620009eb60201b60201c565b91509150935093915050565b6000808260000180549050905060008114620009885762000956836000016001836200094a919062001805565b62000d8c60201b60201c565b60000160049054906101000a90047bffffffffffffffffffffffffffffffffffffffffffffffffffffffff166200098b565b60005b915050919050565b600065ffffffffffff8016821115620009e3576040517f08c379a0000000000000000000000000000000000000000000000000000000008152600401620009da90620018b6565b60405180910390fd5b819050919050565b600080600085805490509050600081111562000c9c57600062000a238760018462000a17919062001805565b62000d8c60201b60201c565b6040518060400160405290816000820160009054906101000a900463ffffffff1663ffffffff1663ffffffff1681526020016000820160049054906101000a90047bffffffffffffffffffffffffffffffffffffffffffffffffffffffff167bffffffffffffffffffffffffffffffffffffffffffffffffffffffff167bffffffffffffffffffffffffffffffffffffffffffffffffffffffff168152505090508563ffffffff16816000015163ffffffff16111562000b1a576040517f08c379a000000000000000000000000000000000000000000000000000000000815260040162000b119062001928565b60405180910390fd5b8563ffffffff16816000015163ffffffff160362000baa578462000b538860018562000b47919062001805565b62000d8c60201b60201c565b60000160046101000a8154817bffffffffffffffffffffffffffffffffffffffffffffffffffffffff02191690837bffffffffffffffffffffffffffffffffffffffffffffffffffffffff16021790555062000c8a565b8660405180604001604052808863ffffffff168152602001877bffffffffffffffffffffffffffffffffffffffffffffffffffffffff168152509080600181540180825580915050600190039060005260206000200160009091909190915060008201518160000160006101000a81548163ffffffff021916908363ffffffff16021790555060208201518160000160046101000a8154817bffffffffffffffffffffffffffffffffffffffffffffffffffffffff02191690837bffffffffffffffffffffffffffffffffffffffffffffffffffffffff16021790555050505b80602001518593509350505062000d84565b8560405180604001604052808763ffffffff168152602001867bffffffffffffffffffffffffffffffffffffffffffffffffffffffff168152509080600181540180825580915050600190039060005260206000200160009091909190915060008201518160000160006101000a81548163ffffffff021916908363ffffffff16021790555060208201518160000160046101000a8154817bffffffffffffffffffffffffffffffffffffffffffffffffffffffff02191690837bffffffffffffffffffffffffffffffffffffffffffffffffffffffff160217905550505060008492509250505b935093915050565b60008260005281602060002001905092915050565b600080fd5b600073ffffffffffffffffffffffffffffffffffffffff82169050919050565b600062000dd38262000da6565b9050919050565b600062000de78262000dc6565b9050919050565b62000df98162000dda565b811462000e0557600080fd5b50565b60008151905062000e198162000dee565b92915050565b600062000e2c8262000da6565b9050919050565b600062000e408262000e1f565b9050919050565b62000e528162000e33565b811462000e5e57600080fd5b50565b60008151905062000e728162000e47565b92915050565b6000819050919050565b62000e8d8162000e78565b811462000e9957600080fd5b50565b60008151905062000ead8162000e82565b92915050565b600080600080600060a0868803121562000ed25762000ed162000da1565b5b600062000ee28882890162000e08565b955050602062000ef58882890162000e61565b945050604062000f088882890162000e9c565b935050606062000f1b8882890162000e9c565b925050608062000f2e8882890162000e9c565b9150509295509295909350565b600081519050919050565b7f4e487b7100000000000000000000000000000000000000000000000000000000600052604160045260246000fd5b7f4e487b7100000000000000000000000000000000000000000000000000000000600052602260045260246000fd5b6000600282049050600182168062000fbd57607f821691505b60208210810362000fd35762000fd262000f75565b5b50919050565b60008190508160005260206000209050919050565b60006020601f8301049050919050565b600082821b905092915050565b6000600883026200103d7fffffffffffffffffffffffffffffffffffffffffffffffffffffffffffffffff8262000ffe565b62001049868362000ffe565b95508019841693508086168417925050509392505050565b6000819050919050565b60006200108c62001086620010808462000e78565b62001061565b62000e78565b9050919050565b6000819050919050565b620010a8836200106b565b620010c0620010b78262001093565b8484546200100b565b825550505050565b600090565b620010d7620010c8565b620010e48184846200109d565b505050565b5b818110156200110c5762001100600082620010cd565b600181019050620010ea565b5050565b601f8211156200115b57620011258162000fd9565b620011308462000fee565b8101602085101562001140578190505b620011586200114f8562000fee565b830182620010e9565b50505b505050565b600082821c905092915050565b6000620011806000198460080262001160565b1980831691505092915050565b60006200119b83836200116d565b9150826002028217905092915050565b620011b68262000f3b565b67ffffffffffffffff811115620011d257620011d162000f46565b5b620011de825462000fa4565b620011eb82828562001110565b600060209050601f8311600181146200122357600084156200120e578287015190505b6200121a85826200118d565b8655506200128a565b601f198416620012338662000fd9565b60005b828110156200125d5784890151825560018201915060208501945060208101905062001236565b868310156200127d578489015162001279601f8916826200116d565b8355505b6001600288020188555050505b505050505050565b6000819050919050565b620012a78162001292565b82525050565b620012b88162000e78565b82525050565b620012c98162000dc6565b82525050565b600060a082019050620012e660008301886200129c565b620012f560208301876200129c565b6200130460408301866200129c565b620013136060830185620012ad565b620013226080830184620012be565b9695505050505050565b6000604082019050620013436000830185620012ad565b620013526020830184620012ad565b9392505050565b600082825260208201905092915050565b7f476f7665726e6f7253657474696e67733a20766f74696e6720706572696f642060008201527f746f6f206c6f7700000000000000000000000000000000000000000000000000602082015250565b6000620013c860278362001359565b9150620013d5826200136a565b604082019050919050565b60006020820190508181036000830152620013fb81620013b9565b9050919050565b7f476f7665726e6f72566f74657351756f72756d4672616374696f6e3a2071756f60008201527f72756d4e756d657261746f72206f7665722071756f72756d44656e6f6d696e6160208201527f746f720000000000000000000000000000000000000000000000000000000000604082015250565b60006200148660438362001359565b9150620014938262001402565b606082019050919050565b60006020820190508181036000830152620014b98162001477565b9050919050565b6000604082019050620014d76000830185620012be565b620014e66020830184620012be565b9392505050565b60005b838110156200150d578082015181840152602081019050620014f0565b60008484015250505050565b6000601f19601f8301169050919050565b6000620015378262000f3b565b62001543818562001359565b935062001555818560208601620014ed565b620015608162001519565b840191505092915050565b600060208201905081810360008301526200158781846200152a565b905092915050565b600081519050919050565b6000819050602082019050919050565b6000620015b8825162001292565b80915050919050565b6000620015ce826200158f565b82620015da846200159a565b9050620015e781620015aa565b925060208210156200162a57620016257fffffffffffffffffffffffffffffffffffffffffffffffffffffffffffffffff8360200360080262000ffe565b831692505b5050919050565b7f53616665436173743a2076616c756520646f65736e27742066697420696e203260008201527f3234206269747300000000000000000000000000000000000000000000000000602082015250565b60006200168f60278362001359565b91506200169c8262001631565b604082019050919050565b60006020820190508181036000830152620016c28162001680565b9050919050565b600065ffffffffffff82169050919050565b620016e681620016c9565b8114620016f257600080fd5b50565b6000815190506200170681620016db565b92915050565b60006020828403121562001725576200172462000da1565b5b60006200173584828501620016f5565b91505092915050565b7f53616665436173743a2076616c756520646f65736e27742066697420696e203360008201527f3220626974730000000000000000000000000000000000000000000000000000602082015250565b60006200179c60268362001359565b9150620017a9826200173e565b604082019050919050565b60006020820190508181036000830152620017cf816200178d565b9050919050565b7f4e487b7100000000000000000000000000000000000000000000000000000000600052601160045260246000fd5b6000620018128262000e78565b91506200181f8362000e78565b92508282039050818111156200183a5762001839620017d6565b5b92915050565b7f53616665436173743a2076616c756520646f65736e27742066697420696e203460008201527f3820626974730000000000000000000000000000000000000000000000000000602082015250565b60006200189e60268362001359565b9150620018ab8262001840565b604082019050919050565b60006020820190508181036000830152620018d1816200188f565b9050919050565b7f436865636b706f696e743a2064656372656173696e67206b6579730000000000600082015250565b600062001910601b8362001359565b91506200191d82620018d8565b602082019050919050565b60006020820190508181036000830152620019438162001901565b9050919050565b60805160a05160c05160e05161010051610120516101405161016051617ffb620019cc6000396000818161161801528181611beb015281816123940152818161352b015261379701526000611b2c01526000611af801526000614c3b01526000614c1a01526000613e6d01526000613ec301526000613eec0152617ffb6000f3fe6080604052600436106102815760003560e01c80637b3c71d31161014f578063c01f9e37116100c1578063ea0217cf1161007a578063ea0217cf14610b2c578063eb9019d414610b55578063ece40cc114610b92578063f23a6e6114610bbb578063f8ce560a14610bf8578063fc0c546a14610c35576102fd565b8063c01f9e3714610a15578063c28bc2fa14610a52578063c59057e414610a6e578063d33219b414610aab578063dd4e2ba514610ad6578063deaaa7cc14610b01576102fd565b80639a802a6d116101135780639a802a6d146108df578063a7713a701461091c578063a890c91014610947578063ab58fb8e14610970578063b58131b0146109ad578063bc197c81146109d8576102fd565b80637b3c71d3146107de5780637d5e81e21461081b57806384b0196e1461085857806391ddadf41461088957806397c3d334146108b4576102fd565b80633932abb1116101f3578063544ffc9c116101ac578063544ffc9c1461069457806354fd4d50146106d357806356781388146106fe5780635f398a141461073b57806360c4247f1461077857806370b0f660146107b5576102fd565b80633932abb11461054a5780633bccf4fd146105755780633e4f49e6146105b257806343859632146105ef578063452115d61461062c5780634bf5d7e914610669576102fd565b8063143489d011610245578063143489d0146103fb578063150b7a0214610438578063160cbed7146104755780632656227d146104b25780632d63f693146104e25780632fe3e2611461051f576102fd565b806301ffc9a71461030257806302a251a31461033f578063034201811461036a57806306f3f9e6146103a757806306fdde03146103d0576102fd565b366102fd573073ffffffffffffffffffffffffffffffffffffffff166102a5610c60565b73ffffffffffffffffffffffffffffffffffffffff16146102fb576040517f08c379a00000000000000000000000000000000000000000000000000000000081526004016102f2906150be565b60405180910390fd5b005b600080fd5b34801561030e57600080fd5b506103296004803603810190610324919061514a565b610c6f565b6040516103369190615192565b60405180910390f35b34801561034b57600080fd5b50610354610c81565b60405161036191906151c6565b60405180910390f35b34801561037657600080fd5b50610391600480360381019061038c9190615422565b610c90565b60405161039e91906151c6565b60405180910390f35b3480156103b357600080fd5b506103ce60048036038101906103c99190615500565b610d75565b005b3480156103dc57600080fd5b506103e5610e6c565b6040516103f2919061559b565b60405180910390f35b34801561040757600080fd5b50610422600480360381019061041d9190615500565b610efe565b60405161042f91906155fe565b60405180910390f35b34801561044457600080fd5b5061045f600480360381019061045a9190615645565b610f3e565b60405161046c91906156d7565b60405180910390f35b34801561048157600080fd5b5061049c60048036038101906104979190615959565b610f52565b6040516104a991906151c6565b60405180910390f35b6104cc60048036038101906104c79190615959565b61120c565b6040516104d991906151c6565b60405180910390f35b3480156104ee57600080fd5b5061050960048036038101906105049190615500565b61135a565b60405161051691906151c6565b60405180910390f35b34801561052b57600080fd5b50610534611398565b6040516105419190615a23565b60405180910390f35b34801561055657600080fd5b5061055f6113bc565b60405161056c91906151c6565b60405180910390f35b34801561058157600080fd5b5061059c60048036038101906105979190615a3e565b6113cb565b6040516105a991906151c6565b60405180910390f35b3480156105be57600080fd5b506105d960048036038101906105d49190615500565b611455565b6040516105e69190615b30565b60405180910390f35b3480156105fb57600080fd5b5061061660048036038101906106119190615b4b565b611467565b6040516106239190615192565b60405180910390f35b34801561063857600080fd5b50610653600480360381019061064e9190615959565b6114d2565b60405161066091906151c6565b60405180910390f35b34801561067557600080fd5b5061067e611614565b60405161068b919061559b565b60405180910390f35b3480156106a057600080fd5b506106bb60048036038101906106b69190615500565b6116ec565b6040516106ca93929190615b8b565b60405180910390f35b3480156106df57600080fd5b506106e8611724565b6040516106f5919061559b565b60405180910390f35b34801561070a57600080fd5b5061072560048036038101906107209190615bc2565b611761565b60405161073291906151c6565b60405180910390f35b34801561074757600080fd5b50610762600480360381019061075d9190615c02565b611792565b60405161076f91906151c6565b60405180910390f35b34801561078457600080fd5b5061079f600480360381019061079a9190615500565b6117fc565b6040516107ac91906151c6565b60405180910390f35b3480156107c157600080fd5b506107dc60048036038101906107d79190615500565b61196e565b005b3480156107ea57600080fd5b5061080560048036038101906108009190615ca6565b611a65565b60405161081291906151c6565b60405180910390f35b34801561082757600080fd5b50610842600480360381019061083d9190615dbb565b611acd565b60405161084f91906151c6565b60405180910390f35b34801561086457600080fd5b5061086d611ae5565b6040516108809796959493929190615f8b565b60405180910390f35b34801561089557600080fd5b5061089e611be7565b6040516108ab9190616030565b60405180910390f35b3480156108c057600080fd5b506108c9611c8d565b6040516108d691906151c6565b60405180910390f35b3480156108eb57600080fd5b506109066004803603810190610901919061604b565b611c96565b60405161091391906151c6565b60405180910390f35b34801561092857600080fd5b50610931611cac565b60405161093e91906151c6565b60405180910390f35b34801561095357600080fd5b5061096e6004803603810190610969919061610a565b611cf3565b005b34801561097c57600080fd5b5061099760048036038101906109929190615500565b611dea565b6040516109a491906151c6565b60405180910390f35b3480156109b957600080fd5b506109c2611eb7565b6040516109cf91906151c6565b60405180910390f35b3480156109e457600080fd5b506109ff60048036038101906109fa9190616137565b611ec6565b604051610a0c91906156d7565b60405180910390f35b348015610a2157600080fd5b50610a3c6004803603810190610a379190615500565b611edb565b604051610a4991906151c6565b60405180910390f35b610a6c6004803603810190610a67919061625c565b611f19565b005b348015610a7a57600080fd5b50610a956004803603810190610a909190615959565b6120a2565b604051610aa291906151c6565b60405180910390f35b348015610ab757600080fd5b50610ac06120de565b604051610acd91906155fe565b60405180910390f35b348015610ae257600080fd5b50610aeb612108565b604051610af8919061559b565b60405180910390f35b348015610b0d57600080fd5b50610b16612145565b604051610b239190615a23565b60405180910390f35b348015610b3857600080fd5b50610b536004803603810190610b4e9190615500565b612169565b005b348015610b6157600080fd5b50610b7c6004803603810190610b7791906162d0565b612260565b604051610b8991906151c6565b60405180910390f35b348015610b9e57600080fd5b50610bb96004803603810190610bb49190615500565b612274565b005b348015610bc757600080fd5b50610be26004803603810190610bdd9190616310565b61236b565b604051610bef91906156d7565b60405180910390f35b348015610c0457600080fd5b50610c1f6004803603810190610c1a9190615500565b612380565b604051610c2c91906151c6565b60405180910390f35b348015610c4157600080fd5b50610c4a612392565b604051610c579190616406565b60405180910390f35b6000610c6a61259e565b905090565b6000610c7a826125c8565b9050919050565b6000610c8b612642565b905090565b600080610d13610d0b7fb3b3f3b703cd84ce352197dcff232b1b5d3cfb2025ce47cf04742d0651f1af888c8c8c8c604051610ccc929190616451565b60405180910390208b80519060200120604051602001610cf0959493929190616479565b6040516020818303038152906040528051906020012061264c565b868686612666565b9050610d668a828b8b8b8080601f016020809104026020016040519081016040528093929190818152602001838380828437600081840152601f19601f820116905080830192505050505050508a612691565b91505098975050505050505050565b610d7d610c60565b73ffffffffffffffffffffffffffffffffffffffff16610d9b61281d565b73ffffffffffffffffffffffffffffffffffffffff1614610df1576040517f08c379a0000000000000000000000000000000000000000000000000000000008152600401610de890616518565b60405180910390fd5b3073ffffffffffffffffffffffffffffffffffffffff16610e10610c60565b73ffffffffffffffffffffffffffffffffffffffff1614610e60576000610e35612825565b604051610e43929190616451565b604051809103902090505b80610e596004612832565b03610e4e57505b610e698161290e565b50565b606060028054610e7b90616567565b80601f0160208091040260200160405190810160405280929190818152602001828054610ea790616567565b8015610ef45780601f10610ec957610100808354040283529160200191610ef4565b820191906000526020600020905b815481529060010190602001808311610ed757829003601f168201915b5050505050905090565b60006003600083815260200190815260200160002060000160089054906101000a900473ffffffffffffffffffffffffffffffffffffffff169050919050565b600063150b7a0260e01b9050949350505050565b600080610f61868686866120a2565b905060046007811115610f7757610f76615ab9565b5b610f8082611455565b6007811115610f9257610f91615ab9565b5b14610fd2576040517f08c379a0000000000000000000000000000000000000000000000000000000008152600401610fc99061660a565b60405180910390fd5b6000600c60009054906101000a900473ffffffffffffffffffffffffffffffffffffffff1673ffffffffffffffffffffffffffffffffffffffff1663f27a0c926040518163ffffffff1660e01b8152600401602060405180830381865afa158015611041573d6000803e3d6000fd5b505050506040513d601f19601f82011682018060405250810190611065919061663f565b9050600c60009054906101000a900473ffffffffffffffffffffffffffffffffffffffff1673ffffffffffffffffffffffffffffffffffffffff1663b1c5f4278888886000896040518663ffffffff1660e01b81526004016110cb959493929190616889565b602060405180830381865afa1580156110e8573d6000803e3d6000fd5b505050506040513d601f19601f8201168201806040525081019061110c9190616906565b600d600084815260200190815260200160002081905550600c60009054906101000a900473ffffffffffffffffffffffffffffffffffffffff1673ffffffffffffffffffffffffffffffffffffffff16638f2a0bb0888888600089876040518763ffffffff1660e01b815260040161118996959493929190616933565b600060405180830381600087803b1580156111a357600080fd5b505af11580156111b7573d6000803e3d6000fd5b505050507f9a2e42fd6722813d69113e7d0079d3d940171428df7373df9c7f7617cfda28928282426111e991906169d8565b6040516111f7929190616a0c565b60405180910390a18192505050949350505050565b60008061121b868686866120a2565b9050600061122882611455565b90506004600781111561123e5761123d615ab9565b5b81600781111561125157611250615ab9565b5b148061128157506005600781111561126c5761126b615ab9565b5b81600781111561127f5761127e615ab9565b5b145b6112c0576040517f08c379a00000000000000000000000000000000000000000000000000000000081526004016112b79061660a565b60405180910390fd5b60016003600084815260200190815260200160002060020160006101000a81548160ff0219169083151502179055507f712ae1383f79ac853f8d882153778e0260ef8f03b504e2866e0593e04d2b291f8260405161131e91906151c6565b60405180910390a16113338288888888612ae3565b6113408288888888612bc6565b61134d8288888888612bda565b8192505050949350505050565b60006003600083815260200190815260200160002060000160009054906101000a900467ffffffffffffffff1667ffffffffffffffff169050919050565b7fb3b3f3b703cd84ce352197dcff232b1b5d3cfb2025ce47cf04742d0651f1af8881565b60006113c6612c35565b905090565b60008061142c6114247f150214d74d59b7d1e90c73fc22ef3d991dd0a76b046543d4d80ab92d2a50328f898960405160200161140993929190616a35565b6040516020818303038152906040528051906020012061264c565b868686612666565b905061144987828860405180602001604052806000815250612c3f565b91505095945050505050565b600061146082612c5f565b9050919050565b60006009600084815260200190815260200160002060030160008373ffffffffffffffffffffffffffffffffffffffff1673ffffffffffffffffffffffffffffffffffffffff16815260200190815260200160002060009054906101000a900460ff16905092915050565b6000806114e1868686866120a2565b9050600060078111156114f7576114f6615ab9565b5b61150082611455565b600781111561151257611511615ab9565b5b14611552576040517f08c379a000000000000000000000000000000000000000000000000000000000815260040161154990616ab8565b60405180910390fd5b6003600082815260200190815260200160002060000160089054906101000a900473ffffffffffffffffffffffffffffffffffffffff1673ffffffffffffffffffffffffffffffffffffffff166115a761281d565b73ffffffffffffffffffffffffffffffffffffffff16146115fd576040517f08c379a00000000000000000000000000000000000000000000000000000000081526004016115f490616b4a565b60405180910390fd5b61160986868686612e32565b915050949350505050565b60607f000000000000000000000000000000000000000000000000000000000000000073ffffffffffffffffffffffffffffffffffffffff16634bf5d7e96040518163ffffffff1660e01b8152600401600060405180830381865afa9250505080156116a357506040513d6000823e3d601f19601f820116820180604052508101906116a09190616bda565b60015b6116e4576040518060400160405280601d81526020017f6d6f64653d626c6f636b6e756d6265722666726f6d3d64656661756c7400000081525090506116e9565b809150505b90565b600080600080600960008681526020019081526020016000209050806000015481600101548260020154935093509350509193909250565b60606040518060400160405280600181526020017f3100000000000000000000000000000000000000000000000000000000000000815250905090565b60008061176c61281d565b905061178984828560405180602001604052806000815250612c3f565b91505092915050565b60008061179d61281d565b90506117f087828888888080601f016020809104026020016040519081016040528093929190818152602001838380828437600081840152601f19601f8201169050808301925050505050505087612691565b91505095945050505050565b600080600b6000018054905090506000810361181d57600a54915050611969565b6000600b6000016001836118319190616c23565b8154811061184257611841616c57565b5b906000526020600020016040518060400160405290816000820160009054906101000a900463ffffffff1663ffffffff1663ffffffff1681526020016000820160049054906101000a90047bffffffffffffffffffffffffffffffffffffffffffffffffffffffff167bffffffffffffffffffffffffffffffffffffffffffffffffffffffff167bffffffffffffffffffffffffffffffffffffffffffffffffffffffff1681525050905083816000015163ffffffff161161192a5780602001517bffffffffffffffffffffffffffffffffffffffffffffffffffffffff1692505050611969565b6119466119368561246f565b600b612e4a90919063ffffffff16565b7bffffffffffffffffffffffffffffffffffffffffffffffffffffffff16925050505b919050565b611976610c60565b73ffffffffffffffffffffffffffffffffffffffff1661199461281d565b73ffffffffffffffffffffffffffffffffffffffff16146119ea576040517f08c379a00000000000000000000000000000000000000000000000000000000081526004016119e190616518565b60405180910390fd5b3073ffffffffffffffffffffffffffffffffffffffff16611a09610c60565b73ffffffffffffffffffffffffffffffffffffffff1614611a59576000611a2e612825565b604051611a3c929190616451565b604051809103902090505b80611a526004612832565b03611a4757505b611a6281612f40565b50565b600080611a7061281d565b9050611ac286828787878080601f016020809104026020016040519081016040528093929190818152602001838380828437600081840152601f19601f82011690508083019250505050505050612c3f565b915050949350505050565b6000611adb85858585612f85565b9050949350505050565b600060608060008060006060611b2560007f000000000000000000000000000000000000000000000000000000000000000061347790919063ffffffff16565b611b5960017f000000000000000000000000000000000000000000000000000000000000000061347790919063ffffffff16565b46306000801b600067ffffffffffffffff811115611b7a57611b796152c1565b5b604051908082528060200260200182016040528015611ba85781602001602082028036833780820191505090505b507f0f00000000000000000000000000000000000000000000000000000000000000959493929190965096509650965096509650965090919293949596565b60007f000000000000000000000000000000000000000000000000000000000000000073ffffffffffffffffffffffffffffffffffffffff166391ddadf46040518163ffffffff1660e01b8152600401602060405180830381865afa925050508015611c7157506040513d601f19601f82011682018060405250810190611c6e9190616cb2565b60015b611c8557611c7e43612549565b9050611c8a565b809150505b90565b60006064905090565b6000611ca3848484613527565b90509392505050565b600080600b6000018054905014611cea57611cc7600b6124df565b7bffffffffffffffffffffffffffffffffffffffffffffffffffffffff16611cee565b600a545b905090565b611cfb610c60565b73ffffffffffffffffffffffffffffffffffffffff16611d1961281d565b73ffffffffffffffffffffffffffffffffffffffff1614611d6f576040517f08c379a0000000000000000000000000000000000000000000000000000000008152600401611d6690616518565b60405180910390fd5b3073ffffffffffffffffffffffffffffffffffffffff16611d8e610c60565b73ffffffffffffffffffffffffffffffffffffffff1614611dde576000611db3612825565b604051611dc1929190616451565b604051809103902090505b80611dd76004612832565b03611dcc57505b611de7816135ce565b50565b600080600c60009054906101000a900473ffffffffffffffffffffffffffffffffffffffff1673ffffffffffffffffffffffffffffffffffffffff1663d45c4435600d6000868152602001908152602001600020546040518263ffffffff1660e01b8152600401611e5b9190615a23565b602060405180830381865afa158015611e78573d6000803e3d6000fd5b505050506040513d601f19601f82011682018060405250810190611e9c919061663f565b905060018114611eac5780611eaf565b60005b915050919050565b6000611ec161366d565b905090565b600063bc197c8160e01b905095945050505050565b60006003600083815260200190815260200160002060010160009054906101000a900467ffffffffffffffff1667ffffffffffffffff169050919050565b611f21610c60565b73ffffffffffffffffffffffffffffffffffffffff16611f3f61281d565b73ffffffffffffffffffffffffffffffffffffffff1614611f95576040517f08c379a0000000000000000000000000000000000000000000000000000000008152600401611f8c90616518565b60405180910390fd5b3073ffffffffffffffffffffffffffffffffffffffff16611fb4610c60565b73ffffffffffffffffffffffffffffffffffffffff1614612004576000611fd9612825565b604051611fe7929190616451565b604051809103902090505b80611ffd6004612832565b03611ff257505b6000808573ffffffffffffffffffffffffffffffffffffffff1685858560405161202f929190616451565b60006040518083038185875af1925050503d806000811461206c576040519150601f19603f3d011682016040523d82523d6000602084013e612071565b606091505b50915091506120998282604051806060016040528060288152602001617f9e60289139613677565b50505050505050565b6000848484846040516020016120bb9493929190616cdf565b6040516020818303038152906040528051906020012060001c9050949350505050565b6000600c60009054906101000a900473ffffffffffffffffffffffffffffffffffffffff16905090565b60606040518060400160405280602081526020017f737570706f72743d627261766f2671756f72756d3d666f722c6162737461696e815250905090565b7f150214d74d59b7d1e90c73fc22ef3d991dd0a76b046543d4d80ab92d2a50328f81565b612171610c60565b73ffffffffffffffffffffffffffffffffffffffff1661218f61281d565b73ffffffffffffffffffffffffffffffffffffffff16146121e5576040517f08c379a00000000000000000000000000000000000000000000000000000000081526004016121dc90616518565b60405180910390fd5b3073ffffffffffffffffffffffffffffffffffffffff16612204610c60565b73ffffffffffffffffffffffffffffffffffffffff1614612254576000612229612825565b604051612237929190616451565b604051809103902090505b8061224d6004612832565b0361224257505b61225d81613699565b50565b600061226c8383613721565b905092915050565b61227c610c60565b73ffffffffffffffffffffffffffffffffffffffff1661229a61281d565b73ffffffffffffffffffffffffffffffffffffffff16146122f0576040517f08c379a00000000000000000000000000000000000000000000000000000000081526004016122e790616518565b60405180910390fd5b3073ffffffffffffffffffffffffffffffffffffffff1661230f610c60565b73ffffffffffffffffffffffffffffffffffffffff161461235f576000612334612825565b604051612342929190616451565b604051809103902090505b806123586004612832565b0361234d57505b6123688161373d565b50565b600063f23a6e6160e01b905095945050505050565b600061238b82613782565b9050919050565b7f000000000000000000000000000000000000000000000000000000000000000081565b60006020835110156123d2576123cb8361384a565b90506123f4565b826123dc836123fa565b60000190816123eb9190616edb565b5060ff60001b90505b92915050565b6000819050919050565b60007bffffffffffffffffffffffffffffffffffffffffffffffffffffffff8016821115612467576040517f08c379a000000000000000000000000000000000000000000000000000000000815260040161245e9061701f565b60405180910390fd5b819050919050565b600063ffffffff80168211156124ba576040517f08c379a00000000000000000000000000000000000000000000000000000000081526004016124b1906170b1565b60405180910390fd5b819050919050565b6000806124d38560000185856138b2565b91509150935093915050565b600080826000018054905090506000811461253e5761250d836000016001836125089190616c23565b613c38565b60000160049054906101000a90047bffffffffffffffffffffffffffffffffffffffffffffffffffffffff16612541565b60005b915050919050565b600065ffffffffffff8016821115612596576040517f08c379a000000000000000000000000000000000000000000000000000000000815260040161258d90617143565b60405180910390fd5b819050919050565b6000600c60009054906101000a900473ffffffffffffffffffffffffffffffffffffffff16905090565b60007f6e665ced000000000000000000000000000000000000000000000000000000007bffffffffffffffffffffffffffffffffffffffffffffffffffffffff1916827bffffffffffffffffffffffffffffffffffffffffffffffffffffffff1916148061263b575061263a82613c4d565b5b9050919050565b6000600754905090565b600061265f612659613e69565b83613f20565b9050919050565b600080600061267787878787613f61565b9150915061268481614043565b8192505050949350505050565b600080600360008881526020019081526020016000209050600160078111156126bd576126bc615ab9565b5b6126c688611455565b60078111156126d8576126d7615ab9565b5b14612718576040517f08c379a000000000000000000000000000000000000000000000000000000000815260040161270f906171d5565b60405180910390fd5b6000612747878360000160009054906101000a900467ffffffffffffffff1667ffffffffffffffff1686613527565b905061275688888884886141a9565b60008451036127b8578673ffffffffffffffffffffffffffffffffffffffff167fb8e138887d0aa13bab447e82de9d5c1777041ecd21ca36ba824ff1e6c07ddda4898884896040516127ab94939291906171f5565b60405180910390a261280f565b8673ffffffffffffffffffffffffffffffffffffffff167fe2babfbac5889a709b63bb7f598b324e08bc5a4fb9ec647fb3cbc9ec07eb8712898884898960405161280695949392919061728b565b60405180910390a25b809250505095945050505050565b600033905090565b3660008036915091509091565b600061283d826143ad565b15612874576040517f3db2a12a00000000000000000000000000000000000000000000000000000000815260040160405180910390fd5b60008260000160009054906101000a9004600f0b905082600101600082600f0b600f0b815260200190815260200160002054915082600101600082600f0b600f0b815260200190815260200160002060009055600181018360000160006101000a8154816fffffffffffffffffffffffffffffffff0219169083600f0b6fffffffffffffffffffffffffffffffff16021790555050919050565b612916611c8d565b811115612958576040517f08c379a000000000000000000000000000000000000000000000000000000000815260040161294f90617384565b60405180910390fd5b6000612962611cac565b90506000811415801561297d57506000600b60000180549050145b15612a6f57600b6000016040518060400160405280600063ffffffff1681526020016129a884612404565b7bffffffffffffffffffffffffffffffffffffffffffffffffffffffff168152509080600181540180825580915050600190039060005260206000200160009091909190915060008201518160000160006101000a81548163ffffffff021916908363ffffffff16021790555060208201518160000160046101000a8154817bffffffffffffffffffffffffffffffffffffffffffffffffffffffff02191690837bffffffffffffffffffffffffffffffffffffffffffffffffffffffff16021790555050505b612aa4612a8a612a7d611be7565b65ffffffffffff1661246f565b612a9384612404565b600b6124c29092919063ffffffff16565b50507f0553476bf02ef2726e8ce5ced78d63e26e602e4a2257b1f559418e24b46339978183604051612ad7929190616a0c565b60405180910390a15050565b3073ffffffffffffffffffffffffffffffffffffffff16612b02610c60565b73ffffffffffffffffffffffffffffffffffffffff1614612bbf5760005b8451811015612bbd573073ffffffffffffffffffffffffffffffffffffffff16858281518110612b5357612b52616c57565b5b602002602001015173ffffffffffffffffffffffffffffffffffffffff1603612bac57612bab838281518110612b8c57612b8b616c57565b5b60200260200101518051906020012060046143e290919063ffffffff16565b5b80612bb6906173a4565b9050612b20565b505b5050505050565b612bd3858585858561445e565b5050505050565b3073ffffffffffffffffffffffffffffffffffffffff16612bf9610c60565b73ffffffffffffffffffffffffffffffffffffffff1614612c2e57612c1e60046143ad565b612c2d57612c2c60046144fc565b5b5b5050505050565b6000600654905090565b6000612c5585858585612c5061457d565b612691565b9050949350505050565b600080612c6b83614594565b905060046007811115612c8157612c80615ab9565b5b816007811115612c9457612c93615ab9565b5b14612ca25780915050612e2d565b6000600d60008581526020019081526020016000205490506000801b8103612cce578192505050612e2d565b600c60009054906101000a900473ffffffffffffffffffffffffffffffffffffffff1673ffffffffffffffffffffffffffffffffffffffff16632ab0f529826040518263ffffffff1660e01b8152600401612d299190615a23565b602060405180830381865afa158015612d46573d6000803e3d6000fd5b505050506040513d601f19601f82011682018060405250810190612d6a9190617418565b15612d7a57600792505050612e2d565b600c60009054906101000a900473ffffffffffffffffffffffffffffffffffffffff1673ffffffffffffffffffffffffffffffffffffffff1663584b153e826040518263ffffffff1660e01b8152600401612dd59190615a23565b602060405180830381865afa158015612df2573d6000803e3d6000fd5b505050506040513d601f19601f82011682018060405250810190612e169190617418565b15612e2657600592505050612e2d565b6002925050505b919050565b6000612e40858585856146c0565b9050949350505050565b600080836000018054905090506000808290506005831115612ecc576000612e71846147b2565b84612e7c9190616c23565b9050612e8b8760000182613c38565b60000160009054906101000a900463ffffffff1663ffffffff168663ffffffff161015612eba57809150612eca565b600181612ec791906169d8565b92505b505b6000612edd876000018785856148ab565b905060008114612f3157612f0087600001600183612efb9190616c23565b613c38565b60000160049054906101000a90047bffffffffffffffffffffffffffffffffffffffffffffffffffffffff16612f34565b60005b94505050505092915050565b7fc565b045403dc03c2eea82b81a0465edad9e2e7fc4d97e11421c209da93d7a9360065482604051612f73929190616a0c565b60405180910390a18060068190555050565b600080612f9061281d565b9050612f9c818461491e565b612fdb576040517f08c379a0000000000000000000000000000000000000000000000000000000008152600401612fd290617491565b60405180910390fd5b6000612fe5611be7565b65ffffffffffff169050612ff7611eb7565b61300d836001846130089190616c23565b612260565b101561304e576040517f08c379a000000000000000000000000000000000000000000000000000000000815260040161304590617523565b60405180910390fd5b600061306388888888805190602001206120a2565b905086518851146130a9576040517f08c379a00000000000000000000000000000000000000000000000000000000081526004016130a0906175b5565b60405180910390fd5b85518851146130ed576040517f08c379a00000000000000000000000000000000000000000000000000000000081526004016130e4906175b5565b60405180910390fd5b6000885111613131576040517f08c379a000000000000000000000000000000000000000000000000000000000815260040161312890617621565b60405180910390fd5b60006003600083815260200190815260200160002060000160009054906101000a900467ffffffffffffffff1667ffffffffffffffff16146131a8576040517f08c379a000000000000000000000000000000000000000000000000000000000815260040161319f906176b3565b60405180910390fd5b60006131b26113bc565b836131bd91906169d8565b905060006131c9610c81565b826131d491906169d8565b90506040518060e001604052806131ea84614a70565b67ffffffffffffffff1681526020018673ffffffffffffffffffffffffffffffffffffffff168152602001600060e01b7bffffffffffffffffffffffffffffffffffffffffffffffffffffffff1916815260200161324783614a70565b67ffffffffffffffff168152602001600060401b67ffffffffffffffff19168152602001600015158152602001600015158152506003600085815260200190815260200160002060008201518160000160006101000a81548167ffffffffffffffff021916908367ffffffffffffffff16021790555060208201518160000160086101000a81548173ffffffffffffffffffffffffffffffffffffffff021916908373ffffffffffffffffffffffffffffffffffffffff160217905550604082015181600001601c6101000a81548163ffffffff021916908360e01c021790555060608201518160010160006101000a81548167ffffffffffffffff021916908367ffffffffffffffff16021790555060808201518160010160086101000a81548177ffffffffffffffffffffffffffffffffffffffffffffffff021916908360401c021790555060a08201518160020160006101000a81548160ff02191690831515021790555060c08201518160020160016101000a81548160ff0219169083151502179055509050507f7d84a6263ae0d98d3329bd7b46bb4e8d6f98cd35a7adb45c274c8b7fd5ebd5e083868c8c8e5167ffffffffffffffff811115613412576134116152c1565b5b60405190808252806020026020018201604052801561344557816020015b60608152602001906001900390816134305790505b508d88888f60405161345f999897969594939291906177df565b60405180910390a18295505050505050949350505050565b606060ff60001b83146134945761348d83614ac7565b9050613521565b8180546134a090616567565b80601f01602080910402602001604051908101604052809291908181526020018280546134cc90616567565b80156135195780601f106134ee57610100808354040283529160200191613519565b820191906000526020600020905b8154815290600101906020018083116134fc57829003601f168201915b505050505090505b92915050565b60007f000000000000000000000000000000000000000000000000000000000000000073ffffffffffffffffffffffffffffffffffffffff16633a46b1a885856040518363ffffffff1660e01b815260040161358492919061788f565b602060405180830381865afa1580156135a1573d6000803e3d6000fd5b505050506040513d601f19601f820116820180604052508101906135c5919061663f565b90509392505050565b7f08f74ea46ef7894f65eabfb5e6e695de773a000b47c529ab559178069b226401600c60009054906101000a900473ffffffffffffffffffffffffffffffffffffffff16826040516136219291906178b8565b60405180910390a180600c60006101000a81548173ffffffffffffffffffffffffffffffffffffffff021916908373ffffffffffffffffffffffffffffffffffffffff16021790555050565b6000600854905090565b6060831561368757829050613692565b6136918383614b3b565b5b9392505050565b600081116136dc576040517f08c379a00000000000000000000000000000000000000000000000000000000081526004016136d390617953565b60405180910390fd5b7f7e3f7f0708a84de9203036abaa450dccc85ad5ff52f78c170f3edb55cf5e88286007548260405161370f929190616a0c565b60405180910390a18060078190555050565b6000613735838361373061457d565b613527565b905092915050565b7fccb45da8d5717e6c4544694297c4ba5cf151d455c9bb0ed4fc7a38411bc0546160085482604051613770929190616a0c565b60405180910390a18060088190555050565b600061378c611c8d565b613795836117fc565b7f000000000000000000000000000000000000000000000000000000000000000073ffffffffffffffffffffffffffffffffffffffff16638e539e8c856040518263ffffffff1660e01b81526004016137ee91906151c6565b602060405180830381865afa15801561380b573d6000803e3d6000fd5b505050506040513d601f19601f8201168201806040525081019061382f919061663f565b6138399190617973565b61384391906179e4565b9050919050565b600080829050601f8151111561389757826040517f305a27a900000000000000000000000000000000000000000000000000000000815260040161388e919061559b565b60405180910390fd5b8051816138a390617a3a565b60001c1760001b915050919050565b6000806000858054905090506000811115613b485760006138df876001846138da9190616c23565b613c38565b6040518060400160405290816000820160009054906101000a900463ffffffff1663ffffffff1663ffffffff1681526020016000820160049054906101000a90047bffffffffffffffffffffffffffffffffffffffffffffffffffffffff167bffffffffffffffffffffffffffffffffffffffffffffffffffffffff167bffffffffffffffffffffffffffffffffffffffffffffffffffffffff168152505090508563ffffffff16816000015163ffffffff1611156139d3576040517f08c379a00000000000000000000000000000000000000000000000000000000081526004016139ca90617aed565b60405180910390fd5b8563ffffffff16816000015163ffffffff1603613a575784613a01886001856139fc9190616c23565b613c38565b60000160046101000a8154817bffffffffffffffffffffffffffffffffffffffffffffffffffffffff02191690837bffffffffffffffffffffffffffffffffffffffffffffffffffffffff160217905550613b37565b8660405180604001604052808863ffffffff168152602001877bffffffffffffffffffffffffffffffffffffffffffffffffffffffff168152509080600181540180825580915050600190039060005260206000200160009091909190915060008201518160000160006101000a81548163ffffffff021916908363ffffffff16021790555060208201518160000160046101000a8154817bffffffffffffffffffffffffffffffffffffffffffffffffffffffff02191690837bffffffffffffffffffffffffffffffffffffffffffffffffffffffff16021790555050505b806020015185935093505050613c30565b8560405180604001604052808763ffffffff168152602001867bffffffffffffffffffffffffffffffffffffffffffffffffffffffff168152509080600181540180825580915050600190039060005260206000200160009091909190915060008201518160000160006101000a81548163ffffffff021916908363ffffffff16021790555060208201518160000160046101000a8154817bffffffffffffffffffffffffffffffffffffffffffffffffffffffff02191690837bffffffffffffffffffffffffffffffffffffffffffffffffffffffff160217905550505060008492509250505b935093915050565b60008260005281602060002001905092915050565b60008063143489d060e01b63452115d660e01b1890506000639a802a6d60e01b630342018160e01b635f398a1460e01b18189050600081837fda287a1d000000000000000000000000000000000000000000000000000000007ff2e09f740000000000000000000000000000000000000000000000000000000018181890506000837fda287a1d000000000000000000000000000000000000000000000000000000007ff2e09f740000000000000000000000000000000000000000000000000000000018189050817bffffffffffffffffffffffffffffffffffffffffffffffffffffffff1916867bffffffffffffffffffffffffffffffffffffffffffffffffffffffff19161480613d9e5750807bffffffffffffffffffffffffffffffffffffffffffffffffffffffff1916867bffffffffffffffffffffffffffffffffffffffffffffffffffffffff1916145b80613de65750837bffffffffffffffffffffffffffffffffffffffffffffffffffffffff1916867bffffffffffffffffffffffffffffffffffffffffffffffffffffffff1916145b80613e4e57507f4e2312e0000000000000000000000000000000000000000000000000000000007bffffffffffffffffffffffffffffffffffffffffffffffffffffffff1916867bffffffffffffffffffffffffffffffffffffffffffffffffffffffff1916145b80613e5e5750613e5d86614b8b565b5b945050505050919050565b60007f000000000000000000000000000000000000000000000000000000000000000073ffffffffffffffffffffffffffffffffffffffff163073ffffffffffffffffffffffffffffffffffffffff16148015613ee557507f000000000000000000000000000000000000000000000000000000000000000046145b15613f12577f00000000000000000000000000000000000000000000000000000000000000009050613f1d565b613f1a614bf5565b90505b90565b60006040517f190100000000000000000000000000000000000000000000000000000000000081528360028201528260228201526042812091505092915050565b6000807f7fffffffffffffffffffffffffffffff5d576e7357a4501ddfe92f46681b20a08360001c1115613f9c57600060039150915061403a565b600060018787878760405160008152602001604052604051613fc19493929190617b0d565b6020604051602081039080840390855afa158015613fe3573d6000803e3d6000fd5b505050602060405103519050600073ffffffffffffffffffffffffffffffffffffffff168173ffffffffffffffffffffffffffffffffffffffff16036140315760006001925092505061403a565b80600092509250505b94509492505050565b6000600481111561405757614056615ab9565b5b81600481111561406a57614069615ab9565b5b03156141a6576001600481111561408457614083615ab9565b5b81600481111561409757614096615ab9565b5b036140d7576040517f08c379a00000000000000000000000000000000000000000000000000000000081526004016140ce90617b9e565b60405180910390fd5b600260048111156140eb576140ea615ab9565b5b8160048111156140fe576140fd615ab9565b5b0361413e576040517f08c379a000000000000000000000000000000000000000000000000000000000815260040161413590617c0a565b60405180910390fd5b6003600481111561415257614151615ab9565b5b81600481111561416557614164615ab9565b5b036141a5576040517f08c379a000000000000000000000000000000000000000000000000000000000815260040161419c90617c9c565b60405180910390fd5b5b50565b60006009600087815260200190815260200160002090508060030160008673ffffffffffffffffffffffffffffffffffffffff1673ffffffffffffffffffffffffffffffffffffffff16815260200190815260200160002060009054906101000a900460ff161561424f576040517f08c379a000000000000000000000000000000000000000000000000000000000815260040161424690617d2e565b60405180910390fd5b60018160030160008773ffffffffffffffffffffffffffffffffffffffff1673ffffffffffffffffffffffffffffffffffffffff16815260200190815260200160002060006101000a81548160ff021916908315150217905550600060028111156142bd576142bc615ab9565b5b60ff168460ff16036142e957828160000160008282546142dd91906169d8565b925050819055506143a5565b600160028111156142fd576142fc615ab9565b5b60ff168460ff1603614329578281600101600082825461431d91906169d8565b925050819055506143a4565b60028081111561433c5761433b615ab9565b5b60ff168460ff1603614368578281600201600082825461435c91906169d8565b925050819055506143a3565b6040517f08c379a000000000000000000000000000000000000000000000000000000000815260040161439a90617dc0565b60405180910390fd5b5b5b505050505050565b60008160000160009054906101000a9004600f0b600f0b8260000160109054906101000a9004600f0b600f0b13159050919050565b60008260000160109054906101000a9004600f0b90508183600101600083600f0b600f0b815260200190815260200160002081905550600181018360000160106101000a8154816fffffffffffffffffffffffffffffffff0219169083600f0b6fffffffffffffffffffffffffffffffff160217905550505050565b600c60009054906101000a900473ffffffffffffffffffffffffffffffffffffffff1673ffffffffffffffffffffffffffffffffffffffff1663e38335e5348686866000876040518763ffffffff1660e01b81526004016144c3959493929190616889565b6000604051808303818588803b1580156144dc57600080fd5b505af11580156144f0573d6000803e3d6000fd5b50505050505050505050565b60008160000160006101000a8154816fffffffffffffffffffffffffffffffff0219169083600f0b6fffffffffffffffffffffffffffffffff16021790555060008160000160106101000a8154816fffffffffffffffffffffffffffffffff0219169083600f0b6fffffffffffffffffffffffffffffffff16021790555050565b606060405180602001604052806000815250905090565b6000806003600084815260200190815260200160002090508060020160009054906101000a900460ff16156145cd5760079150506146bb565b8060020160019054906101000a900460ff16156145ee5760029150506146bb565b60006145f98461135a565b90506000810361463e576040517f08c379a000000000000000000000000000000000000000000000000000000000815260040161463590617e2c565b60405180910390fd5b6000614648611be7565b65ffffffffffff16905080821061466557600093505050506146bb565b600061467086611edb565b90508181106146865760019450505050506146bb565b61468f86614c8b565b80156146a0575061469f86614cd2565b5b156146b25760049450505050506146bb565b60039450505050505b919050565b6000806146cf86868686614cfd565b90506000801b600d600083815260200190815260200160002054146147a657600c60009054906101000a900473ffffffffffffffffffffffffffffffffffffffff1673ffffffffffffffffffffffffffffffffffffffff1663c4d252f5600d6000848152602001908152602001600020546040518263ffffffff1660e01b815260040161475c9190615a23565b600060405180830381600087803b15801561477657600080fd5b505af115801561478a573d6000803e3d6000fd5b50505050600d6000828152602001908152602001600020600090555b80915050949350505050565b60008082036147c457600090506148a6565b600060016147d184614e57565b901c6001901b905060018184816147eb576147ea6179b5565b5b048201901c90506001818481614804576148036179b5565b5b048201901c9050600181848161481d5761481c6179b5565b5b048201901c90506001818481614836576148356179b5565b5b048201901c9050600181848161484f5761484e6179b5565b5b048201901c90506001818481614868576148676179b5565b5b048201901c90506001818481614881576148806179b5565b5b048201901c90506148a28182858161489c5761489b6179b5565b5b04614f38565b9150505b919050565b60005b818310156149135760006148c28484614f51565b90508463ffffffff166148d58783613c38565b60000160009054906101000a900463ffffffff1663ffffffff1611156148fd5780925061490d565b60018161490a91906169d8565b93505b506148ae565b819050949350505050565b600080825190506034811015614938576001915050614a6a565b60006014820384015190507f2370726f706f7365723d3078000000000000000000000000000000000000000073ffffffffffffffffffffffffffffffffffffffff19168173ffffffffffffffffffffffffffffffffffffffff1916146149a357600192505050614a6a565b6000806028846149b39190616c23565b90505b83811015614a34576000806149e78884815181106149d7576149d6616c57565b5b602001015160f81c60f81b614f77565b91509150816149ff5760019650505050505050614a6a565b8060ff1660048573ffffffffffffffffffffffffffffffffffffffff16901b179350505080614a2d906173a4565b90506149b6565b508573ffffffffffffffffffffffffffffffffffffffff168173ffffffffffffffffffffffffffffffffffffffff161493505050505b92915050565b600067ffffffffffffffff8016821115614abf576040517f08c379a0000000000000000000000000000000000000000000000000000000008152600401614ab690617ebe565b60405180910390fd5b819050919050565b60606000614ad483615011565b90506000602067ffffffffffffffff811115614af357614af26152c1565b5b6040519080825280601f01601f191660200182016040528015614b255781602001600182028036833780820191505090505b5090508181528360208201528092505050919050565b600082511115614b4e5781518083602001fd5b806040517f08c379a0000000000000000000000000000000000000000000000000000000008152600401614b82919061559b565b60405180910390fd5b60007f01ffc9a7000000000000000000000000000000000000000000000000000000007bffffffffffffffffffffffffffffffffffffffffffffffffffffffff1916827bffffffffffffffffffffffffffffffffffffffffffffffffffffffff1916149050919050565b60007f8b73c3c69bb8fe3d512ecc4cf759cc79239f7b179b0ffacaa9a75d522b39400f7f00000000000000000000000000000000000000000000000000000000000000007f00000000000000000000000000000000000000000000000000000000000000004630604051602001614c70959493929190617ede565b60405160208183030381529060405280519060200120905090565b60008060096000848152602001908152602001600020905080600201548160010154614cb791906169d8565b614cc8614cc38561135a565b612380565b1115915050919050565b6000806009600084815260200190815260200160002090508060000154816001015411915050919050565b600080614d0c868686866120a2565b90506000614d1982611455565b905060026007811115614d2f57614d2e615ab9565b5b816007811115614d4257614d41615ab9565b5b14158015614d75575060066007811115614d5f57614d5e615ab9565b5b816007811115614d7257614d71615ab9565b5b14155b8015614da55750600780811115614d8f57614d8e615ab9565b5b816007811115614da257614da1615ab9565b5b14155b614de4576040517f08c379a0000000000000000000000000000000000000000000000000000000008152600401614ddb90617f7d565b60405180910390fd5b60016003600084815260200190815260200160002060020160016101000a81548160ff0219169083151502179055507f789cf55be980739dad1d0699b93b58e806b51c9d96619bfa8fe0a28abaa7b30c82604051614e4291906151c6565b60405180910390a18192505050949350505050565b600080600090506000608084901c1115614e7957608083901c92506080810190505b6000604084901c1115614e9457604083901c92506040810190505b6000602084901c1115614eaf57602083901c92506020810190505b6000601084901c1115614eca57601083901c92506010810190505b6000600884901c1115614ee557600883901c92506008810190505b6000600484901c1115614f0057600483901c92506004810190505b6000600284901c1115614f1b57600283901c92506002810190505b6000600184901c1115614f2f576001810190505b80915050919050565b6000818310614f475781614f49565b825b905092915050565b60006002828418614f6291906179e4565b828416614f6f91906169d8565b905092915050565b60008060008360f81c90508060ff16602f108015614f985750603a8160ff16105b15614fad57600160308203925092505061500c565b8060ff166040108015614fc3575060478160ff16105b15614fd857600160378203925092505061500c565b8060ff166060108015614fee575060678160ff16105b1561500357600160578203925092505061500c565b60008092509250505b915091565b60008060ff8360001c169050601f811115615058576040517fb3512b0c00000000000000000000000000000000000000000000000000000000815260040160405180910390fd5b80915050919050565b600082825260208201905092915050565b7f476f7665726e6f723a206d7573742073656e6420746f206578656375746f7200600082015250565b60006150a8601f83615061565b91506150b382615072565b602082019050919050565b600060208201905081810360008301526150d78161509b565b9050919050565b6000604051905090565b600080fd5b600080fd5b60007fffffffff0000000000000000000000000000000000000000000000000000000082169050919050565b615127816150f2565b811461513257600080fd5b50565b6000813590506151448161511e565b92915050565b6000602082840312156151605761515f6150e8565b5b600061516e84828501615135565b91505092915050565b60008115159050919050565b61518c81615177565b82525050565b60006020820190506151a76000830184615183565b92915050565b6000819050919050565b6151c0816151ad565b82525050565b60006020820190506151db60008301846151b7565b92915050565b6151ea816151ad565b81146151f557600080fd5b50565b600081359050615207816151e1565b92915050565b600060ff82169050919050565b6152238161520d565b811461522e57600080fd5b50565b6000813590506152408161521a565b92915050565b600080fd5b600080fd5b600080fd5b60008083601f84011261526b5761526a615246565b5b8235905067ffffffffffffffff8111156152885761528761524b565b5b6020830191508360018202830111156152a4576152a3615250565b5b9250929050565b600080fd5b6000601f19601f8301169050919050565b7f4e487b7100000000000000000000000000000000000000000000000000000000600052604160045260246000fd5b6152f9826152b0565b810181811067ffffffffffffffff82111715615318576153176152c1565b5b80604052505050565b600061532b6150de565b905061533782826152f0565b919050565b600067ffffffffffffffff821115615357576153566152c1565b5b615360826152b0565b9050602081019050919050565b82818337600083830152505050565b600061538f61538a8461533c565b615321565b9050828152602081018484840111156153ab576153aa6152ab565b5b6153b684828561536d565b509392505050565b600082601f8301126153d3576153d2615246565b5b81356153e384826020860161537c565b91505092915050565b6000819050919050565b6153ff816153ec565b811461540a57600080fd5b50565b60008135905061541c816153f6565b92915050565b60008060008060008060008060e0898b031215615442576154416150e8565b5b60006154508b828c016151f8565b98505060206154618b828c01615231565b975050604089013567ffffffffffffffff811115615482576154816150ed565b5b61548e8b828c01615255565b9650965050606089013567ffffffffffffffff8111156154b1576154b06150ed565b5b6154bd8b828c016153be565b94505060806154ce8b828c01615231565b93505060a06154df8b828c0161540d565b92505060c06154f08b828c0161540d565b9150509295985092959890939650565b600060208284031215615516576155156150e8565b5b6000615524848285016151f8565b91505092915050565b600081519050919050565b60005b8381101561555657808201518184015260208101905061553b565b60008484015250505050565b600061556d8261552d565b6155778185615061565b9350615587818560208601615538565b615590816152b0565b840191505092915050565b600060208201905081810360008301526155b58184615562565b905092915050565b600073ffffffffffffffffffffffffffffffffffffffff82169050919050565b60006155e8826155bd565b9050919050565b6155f8816155dd565b82525050565b600060208201905061561360008301846155ef565b92915050565b615622816155dd565b811461562d57600080fd5b50565b60008135905061563f81615619565b92915050565b6000806000806080858703121561565f5761565e6150e8565b5b600061566d87828801615630565b945050602061567e87828801615630565b935050604061568f878288016151f8565b925050606085013567ffffffffffffffff8111156156b0576156af6150ed565b5b6156bc878288016153be565b91505092959194509250565b6156d1816150f2565b82525050565b60006020820190506156ec60008301846156c8565b92915050565b600067ffffffffffffffff82111561570d5761570c6152c1565b5b602082029050602081019050919050565b600061573161572c846156f2565b615321565b9050808382526020820190506020840283018581111561575457615753615250565b5b835b8181101561577d57806157698882615630565b845260208401935050602081019050615756565b5050509392505050565b600082601f83011261579c5761579b615246565b5b81356157ac84826020860161571e565b91505092915050565b600067ffffffffffffffff8211156157d0576157cf6152c1565b5b602082029050602081019050919050565b60006157f46157ef846157b5565b615321565b9050808382526020820190506020840283018581111561581757615816615250565b5b835b81811015615840578061582c88826151f8565b845260208401935050602081019050615819565b5050509392505050565b600082601f83011261585f5761585e615246565b5b813561586f8482602086016157e1565b91505092915050565b600067ffffffffffffffff821115615893576158926152c1565b5b602082029050602081019050919050565b60006158b76158b284615878565b615321565b905080838252602082019050602084028301858111156158da576158d9615250565b5b835b8181101561592157803567ffffffffffffffff8111156158ff576158fe615246565b5b80860161590c89826153be565b855260208501945050506020810190506158dc565b5050509392505050565b600082601f8301126159405761593f615246565b5b81356159508482602086016158a4565b91505092915050565b60008060008060808587031215615973576159726150e8565b5b600085013567ffffffffffffffff811115615991576159906150ed565b5b61599d87828801615787565b945050602085013567ffffffffffffffff8111156159be576159bd6150ed565b5b6159ca8782880161584a565b935050604085013567ffffffffffffffff8111156159eb576159ea6150ed565b5b6159f78782880161592b565b9250506060615a088782880161540d565b91505092959194509250565b615a1d816153ec565b82525050565b6000602082019050615a386000830184615a14565b92915050565b600080600080600060a08688031215615a5a57615a596150e8565b5b6000615a68888289016151f8565b9550506020615a7988828901615231565b9450506040615a8a88828901615231565b9350506060615a9b8882890161540d565b9250506080615aac8882890161540d565b9150509295509295909350565b7f4e487b7100000000000000000000000000000000000000000000000000000000600052602160045260246000fd5b60088110615af957615af8615ab9565b5b50565b6000819050615b0a82615ae8565b919050565b6000615b1a82615afc565b9050919050565b615b2a81615b0f565b82525050565b6000602082019050615b456000830184615b21565b92915050565b60008060408385031215615b6257615b616150e8565b5b6000615b70858286016151f8565b9250506020615b8185828601615630565b9150509250929050565b6000606082019050615ba060008301866151b7565b615bad60208301856151b7565b615bba60408301846151b7565b949350505050565b60008060408385031215615bd957615bd86150e8565b5b6000615be7858286016151f8565b9250506020615bf885828601615231565b9150509250929050565b600080600080600060808688031215615c1e57615c1d6150e8565b5b6000615c2c888289016151f8565b9550506020615c3d88828901615231565b945050604086013567ffffffffffffffff811115615c5e57615c5d6150ed565b5b615c6a88828901615255565b9350935050606086013567ffffffffffffffff811115615c8d57615c8c6150ed565b5b615c99888289016153be565b9150509295509295909350565b60008060008060608587031215615cc057615cbf6150e8565b5b6000615cce878288016151f8565b9450506020615cdf87828801615231565b935050604085013567ffffffffffffffff811115615d0057615cff6150ed565b5b615d0c87828801615255565b925092505092959194509250565b600067ffffffffffffffff821115615d3557615d346152c1565b5b615d3e826152b0565b9050602081019050919050565b6000615d5e615d5984615d1a565b615321565b905082815260208101848484011115615d7a57615d796152ab565b5b615d8584828561536d565b509392505050565b600082601f830112615da257615da1615246565b5b8135615db2848260208601615d4b565b91505092915050565b60008060008060808587031215615dd557615dd46150e8565b5b600085013567ffffffffffffffff811115615df357615df26150ed565b5b615dff87828801615787565b945050602085013567ffffffffffffffff811115615e2057615e1f6150ed565b5b615e2c8782880161584a565b935050604085013567ffffffffffffffff811115615e4d57615e4c6150ed565b5b615e598782880161592b565b925050606085013567ffffffffffffffff811115615e7a57615e796150ed565b5b615e8687828801615d8d565b91505092959194509250565b60007fff0000000000000000000000000000000000000000000000000000000000000082169050919050565b615ec781615e92565b82525050565b600081519050919050565b600082825260208201905092915050565b6000819050602082019050919050565b615f02816151ad565b82525050565b6000615f148383615ef9565b60208301905092915050565b6000602082019050919050565b6000615f3882615ecd565b615f428185615ed8565b9350615f4d83615ee9565b8060005b83811015615f7e578151615f658882615f08565b9750615f7083615f20565b925050600181019050615f51565b5085935050505092915050565b600060e082019050615fa0600083018a615ebe565b8181036020830152615fb28189615562565b90508181036040830152615fc68188615562565b9050615fd560608301876151b7565b615fe260808301866155ef565b615fef60a0830185615a14565b81810360c08301526160018184615f2d565b905098975050505050505050565b600065ffffffffffff82169050919050565b61602a8161600f565b82525050565b60006020820190506160456000830184616021565b92915050565b600080600060608486031215616064576160636150e8565b5b600061607286828701615630565b9350506020616083868287016151f8565b925050604084013567ffffffffffffffff8111156160a4576160a36150ed565b5b6160b0868287016153be565b9150509250925092565b60006160c5826155bd565b9050919050565b60006160d7826160ba565b9050919050565b6160e7816160cc565b81146160f257600080fd5b50565b600081359050616104816160de565b92915050565b6000602082840312156161205761611f6150e8565b5b600061612e848285016160f5565b91505092915050565b600080600080600060a08688031215616153576161526150e8565b5b600061616188828901615630565b955050602061617288828901615630565b945050604086013567ffffffffffffffff811115616193576161926150ed565b5b61619f8882890161584a565b935050606086013567ffffffffffffffff8111156161c0576161bf6150ed565b5b6161cc8882890161584a565b925050608086013567ffffffffffffffff8111156161ed576161ec6150ed565b5b6161f9888289016153be565b9150509295509295909350565b60008083601f84011261621c5761621b615246565b5b8235905067ffffffffffffffff8111156162395761623861524b565b5b60208301915083600182028301111561625557616254615250565b5b9250929050565b60008060008060608587031215616276576162756150e8565b5b600061628487828801615630565b9450506020616295878288016151f8565b935050604085013567ffffffffffffffff8111156162b6576162b56150ed565b5b6162c287828801616206565b925092505092959194509250565b600080604083850312156162e7576162e66150e8565b5b60006162f585828601615630565b9250506020616306858286016151f8565b9150509250929050565b600080600080600060a0868803121561632c5761632b6150e8565b5b600061633a88828901615630565b955050602061634b88828901615630565b945050604061635c888289016151f8565b935050606061636d888289016151f8565b925050608086013567ffffffffffffffff81111561638e5761638d6150ed565b5b61639a888289016153be565b9150509295509295909350565b6000819050919050565b60006163cc6163c76163c2846155bd565b6163a7565b6155bd565b9050919050565b60006163de826163b1565b9050919050565b60006163f0826163d3565b9050919050565b616400816163e5565b82525050565b600060208201905061641b60008301846163f7565b92915050565b600081905092915050565b60006164388385616421565b935061644583858461536d565b82840190509392505050565b600061645e82848661642c565b91508190509392505050565b6164738161520d565b82525050565b600060a08201905061648e6000830188615a14565b61649b60208301876151b7565b6164a8604083018661646a565b6164b56060830185615a14565b6164c26080830184615a14565b9695505050505050565b7f476f7665726e6f723a206f6e6c79476f7665726e616e63650000000000000000600082015250565b6000616502601883615061565b915061650d826164cc565b602082019050919050565b60006020820190508181036000830152616531816164f5565b9050919050565b7f4e487b7100000000000000000000000000000000000000000000000000000000600052602260045260246000fd5b6000600282049050600182168061657f57607f821691505b60208210810361659257616591616538565b5b50919050565b7f476f7665726e6f723a2070726f706f73616c206e6f742073756363657373667560008201527f6c00000000000000000000000000000000000000000000000000000000000000602082015250565b60006165f4602183615061565b91506165ff82616598565b604082019050919050565b60006020820190508181036000830152616623816165e7565b9050919050565b600081519050616639816151e1565b92915050565b600060208284031215616655576166546150e8565b5b60006166638482850161662a565b91505092915050565b600081519050919050565b600082825260208201905092915050565b6000819050602082019050919050565b6166a1816155dd565b82525050565b60006166b38383616698565b60208301905092915050565b6000602082019050919050565b60006166d78261666c565b6166e18185616677565b93506166ec83616688565b8060005b8381101561671d57815161670488826166a7565b975061670f836166bf565b9250506001810190506166f0565b5085935050505092915050565b600081519050919050565b600082825260208201905092915050565b6000819050602082019050919050565b600081519050919050565b600082825260208201905092915050565b600061677d82616756565b6167878185616761565b9350616797818560208601615538565b6167a0816152b0565b840191505092915050565b60006167b78383616772565b905092915050565b6000602082019050919050565b60006167d78261672a565b6167e18185616735565b9350836020820285016167f385616746565b8060005b8581101561682f578484038952815161681085826167ab565b945061681b836167bf565b925060208a019950506001810190506167f7565b50829750879550505050505092915050565b6000819050919050565b60008160001b9050919050565b600061687361686e61686984616841565b61684b565b6153ec565b9050919050565b61688381616858565b82525050565b600060a08201905081810360008301526168a381886166cc565b905081810360208301526168b78187615f2d565b905081810360408301526168cb81866167cc565b90506168da606083018561687a565b6168e76080830184615a14565b9695505050505050565b600081519050616900816153f6565b92915050565b60006020828403121561691c5761691b6150e8565b5b600061692a848285016168f1565b91505092915050565b600060c082019050818103600083015261694d81896166cc565b905081810360208301526169618188615f2d565b9050818103604083015261697581876167cc565b9050616984606083018661687a565b6169916080830185615a14565b61699e60a08301846151b7565b979650505050505050565b7f4e487b7100000000000000000000000000000000000000000000000000000000600052601160045260246000fd5b60006169e3826151ad565b91506169ee836151ad565b9250828201905080821115616a0657616a056169a9565b5b92915050565b6000604082019050616a2160008301856151b7565b616a2e60208301846151b7565b9392505050565b6000606082019050616a4a6000830186615a14565b616a5760208301856151b7565b616a64604083018461646a565b949350505050565b7f476f7665726e6f723a20746f6f206c61746520746f2063616e63656c00000000600082015250565b6000616aa2601c83615061565b9150616aad82616a6c565b602082019050919050565b60006020820190508181036000830152616ad181616a95565b9050919050565b7f476f7665726e6f723a206f6e6c792070726f706f7365722063616e2063616e6360008201527f656c000000000000000000000000000000000000000000000000000000000000602082015250565b6000616b34602283615061565b9150616b3f82616ad8565b604082019050919050565b60006020820190508181036000830152616b6381616b27565b9050919050565b6000616b7d616b7884615d1a565b615321565b905082815260208101848484011115616b9957616b986152ab565b5b616ba4848285615538565b509392505050565b600082601f830112616bc157616bc0615246565b5b8151616bd1848260208601616b6a565b91505092915050565b600060208284031215616bf057616bef6150e8565b5b600082015167ffffffffffffffff811115616c0e57616c0d6150ed565b5b616c1a84828501616bac565b91505092915050565b6000616c2e826151ad565b9150616c39836151ad565b9250828203905081811115616c5157616c506169a9565b5b92915050565b7f4e487b7100000000000000000000000000000000000000000000000000000000600052603260045260246000fd5b616c8f8161600f565b8114616c9a57600080fd5b50565b600081519050616cac81616c86565b92915050565b600060208284031215616cc857616cc76150e8565b5b6000616cd684828501616c9d565b91505092915050565b60006080820190508181036000830152616cf981876166cc565b90508181036020830152616d0d8186615f2d565b90508181036040830152616d2181856167cc565b9050616d306060830184615a14565b95945050505050565b60008190508160005260206000209050919050565b60006020601f8301049050919050565b600082821b905092915050565b600060088302616d9b7fffffffffffffffffffffffffffffffffffffffffffffffffffffffffffffffff82616d5e565b616da58683616d5e565b95508019841693508086168417925050509392505050565b6000616dd8616dd3616dce846151ad565b6163a7565b6151ad565b9050919050565b6000819050919050565b616df283616dbd565b616e06616dfe82616ddf565b848454616d6b565b825550505050565b600090565b616e1b616e0e565b616e26818484616de9565b505050565b5b81811015616e4a57616e3f600082616e13565b600181019050616e2c565b5050565b601f821115616e8f57616e6081616d39565b616e6984616d4e565b81016020851015616e78578190505b616e8c616e8485616d4e565b830182616e2b565b50505b505050565b600082821c905092915050565b6000616eb260001984600802616e94565b1980831691505092915050565b6000616ecb8383616ea1565b9150826002028217905092915050565b616ee48261552d565b67ffffffffffffffff811115616efd57616efc6152c1565b5b616f078254616567565b616f12828285616e4e565b600060209050601f831160018114616f455760008415616f33578287015190505b616f3d8582616ebf565b865550616fa5565b601f198416616f5386616d39565b60005b82811015616f7b57848901518255600182019150602085019450602081019050616f56565b86831015616f985784890151616f94601f891682616ea1565b8355505b6001600288020188555050505b505050505050565b7f53616665436173743a2076616c756520646f65736e27742066697420696e203260008201527f3234206269747300000000000000000000000000000000000000000000000000602082015250565b6000617009602783615061565b915061701482616fad565b604082019050919050565b6000602082019050818103600083015261703881616ffc565b9050919050565b7f53616665436173743a2076616c756520646f65736e27742066697420696e203360008201527f3220626974730000000000000000000000000000000000000000000000000000602082015250565b600061709b602683615061565b91506170a68261703f565b604082019050919050565b600060208201905081810360008301526170ca8161708e565b9050919050565b7f53616665436173743a2076616c756520646f65736e27742066697420696e203460008201527f3820626974730000000000000000000000000000000000000000000000000000602082015250565b600061712d602683615061565b9150617138826170d1565b604082019050919050565b6000602082019050818103600083015261715c81617120565b9050919050565b7f476f7665726e6f723a20766f7465206e6f742063757272656e746c792061637460008201527f6976650000000000000000000000000000000000000000000000000000000000602082015250565b60006171bf602383615061565b91506171ca82617163565b604082019050919050565b600060208201905081810360008301526171ee816171b2565b9050919050565b600060808201905061720a60008301876151b7565b617217602083018661646a565b61722460408301856151b7565b81810360608301526172368184615562565b905095945050505050565b600082825260208201905092915050565b600061725d82616756565b6172678185617241565b9350617277818560208601615538565b617280816152b0565b840191505092915050565b600060a0820190506172a060008301886151b7565b6172ad602083018761646a565b6172ba60408301866151b7565b81810360608301526172cc8185615562565b905081810360808301526172e08184617252565b90509695505050505050565b7f476f7665726e6f72566f74657351756f72756d4672616374696f6e3a2071756f60008201527f72756d4e756d657261746f72206f7665722071756f72756d44656e6f6d696e6160208201527f746f720000000000000000000000000000000000000000000000000000000000604082015250565b600061736e604383615061565b9150617379826172ec565b606082019050919050565b6000602082019050818103600083015261739d81617361565b9050919050565b60006173af826151ad565b91507fffffffffffffffffffffffffffffffffffffffffffffffffffffffffffffffff82036173e1576173e06169a9565b5b600182019050919050565b6173f581615177565b811461740057600080fd5b50565b600081519050617412816173ec565b92915050565b60006020828403121561742e5761742d6150e8565b5b600061743c84828501617403565b91505092915050565b7f476f7665726e6f723a2070726f706f7365722072657374726963746564000000600082015250565b600061747b601d83615061565b915061748682617445565b602082019050919050565b600060208201905081810360008301526174aa8161746e565b9050919050565b7f476f7665726e6f723a2070726f706f73657220766f7465732062656c6f77207060008201527f726f706f73616c207468726573686f6c64000000000000000000000000000000602082015250565b600061750d603183615061565b9150617518826174b1565b604082019050919050565b6000602082019050818103600083015261753c81617500565b9050919050565b7f476f7665726e6f723a20696e76616c69642070726f706f73616c206c656e677460008201527f6800000000000000000000000000000000000000000000000000000000000000602082015250565b600061759f602183615061565b91506175aa82617543565b604082019050919050565b600060208201905081810360008301526175ce81617592565b9050919050565b7f476f7665726e6f723a20656d7074792070726f706f73616c0000000000000000600082015250565b600061760b601883615061565b9150617616826175d5565b602082019050919050565b6000602082019050818103600083015261763a816175fe565b9050919050565b7f476f7665726e6f723a2070726f706f73616c20616c726561647920657869737460008201527f7300000000000000000000000000000000000000000000000000000000000000602082015250565b600061769d602183615061565b91506176a882617641565b604082019050919050565b600060208201905081810360008301526176cc81617690565b9050919050565b600081519050919050565b600082825260208201905092915050565b6000819050602082019050919050565b600082825260208201905092915050565b600061771b8261552d565b61772581856176ff565b9350617735818560208601615538565b61773e816152b0565b840191505092915050565b60006177558383617710565b905092915050565b6000602082019050919050565b6000617775826176d3565b61777f81856176de565b935083602082028501617791856176ef565b8060005b858110156177cd57848403895281516177ae8582617749565b94506177b98361775d565b925060208a01995050600181019050617795565b50829750879550505050505092915050565b6000610120820190506177f5600083018c6151b7565b617802602083018b6155ef565b8181036040830152617814818a6166cc565b905081810360608301526178288189615f2d565b9050818103608083015261783c818861776a565b905081810360a083015261785081876167cc565b905061785f60c08301866151b7565b61786c60e08301856151b7565b81810361010083015261787f8184615562565b90509a9950505050505050505050565b60006040820190506178a460008301856155ef565b6178b160208301846151b7565b9392505050565b60006040820190506178cd60008301856155ef565b6178da60208301846155ef565b9392505050565b7f476f7665726e6f7253657474696e67733a20766f74696e6720706572696f642060008201527f746f6f206c6f7700000000000000000000000000000000000000000000000000602082015250565b600061793d602783615061565b9150617948826178e1565b604082019050919050565b6000602082019050818103600083015261796c81617930565b9050919050565b600061797e826151ad565b9150617989836151ad565b9250828202617997816151ad565b915082820484148315176179ae576179ad6169a9565b5b5092915050565b7f4e487b7100000000000000000000000000000000000000000000000000000000600052601260045260246000fd5b60006179ef826151ad565b91506179fa836151ad565b925082617a0a57617a096179b5565b5b828204905092915050565b6000819050602082019050919050565b6000617a3182516153ec565b80915050919050565b6000617a4582616756565b82617a4f84617a15565b9050617a5a81617a25565b92506020821015617a9a57617a957fffffffffffffffffffffffffffffffffffffffffffffffffffffffffffffffff83602003600802616d5e565b831692505b5050919050565b7f436865636b706f696e743a2064656372656173696e67206b6579730000000000600082015250565b6000617ad7601b83615061565b9150617ae282617aa1565b602082019050919050565b60006020820190508181036000830152617b0681617aca565b9050919050565b6000608082019050617b226000830187615a14565b617b2f602083018661646a565b617b3c6040830185615a14565b617b496060830184615a14565b95945050505050565b7f45434453413a20696e76616c6964207369676e61747572650000000000000000600082015250565b6000617b88601883615061565b9150617b9382617b52565b602082019050919050565b60006020820190508181036000830152617bb781617b7b565b9050919050565b7f45434453413a20696e76616c6964207369676e6174757265206c656e67746800600082015250565b6000617bf4601f83615061565b9150617bff82617bbe565b602082019050919050565b60006020820190508181036000830152617c2381617be7565b9050919050565b7f45434453413a20696e76616c6964207369676e6174757265202773272076616c60008201527f7565000000000000000000000000000000000000000000000000000000000000602082015250565b6000617c86602283615061565b9150617c9182617c2a565b604082019050919050565b60006020820190508181036000830152617cb581617c79565b9050919050565b7f476f7665726e6f72566f74696e6753696d706c653a20766f746520616c72656160008201527f6479206361737400000000000000000000000000000000000000000000000000602082015250565b6000617d18602783615061565b9150617d2382617cbc565b604082019050919050565b60006020820190508181036000830152617d4781617d0b565b9050919050565b7f476f7665726e6f72566f74696e6753696d706c653a20696e76616c696420766160008201527f6c756520666f7220656e756d20566f7465547970650000000000000000000000602082015250565b6000617daa603583615061565b9150617db582617d4e565b604082019050919050565b60006020820190508181036000830152617dd981617d9d565b9050919050565b7f476f7665726e6f723a20756e6b6e6f776e2070726f706f73616c206964000000600082015250565b6000617e16601d83615061565b9150617e2182617de0565b602082019050919050565b60006020820190508181036000830152617e4581617e09565b9050919050565b7f53616665436173743a2076616c756520646f65736e27742066697420696e203660008201527f3420626974730000000000000000000000000000000000000000000000000000602082015250565b6000617ea8602683615061565b9150617eb382617e4c565b604082019050919050565b60006020820190508181036000830152617ed781617e9b565b9050919050565b600060a082019050617ef36000830188615a14565b617f006020830187615a14565b617f0d6040830186615a14565b617f1a60608301856151b7565b617f2760808301846155ef565b9695505050505050565b7f476f7665726e6f723a2070726f706f73616c206e6f7420616374697665000000600082015250565b6000617f67601d83615061565b9150617f7282617f31565b602082019050919050565b60006020820190508181036000830152617f9681617f5a565b905091905056fe476f7665726e6f723a2072656c617920726576657274656420776974686f7574206d657373616765a2646970667358221220856d3c7f2ec3547d2ec9e84fcb42d90fb725754ea35b0734c4a647b8ab0dff0464736f6c63430008120033",
  "linkReferences": {},
  "deployedLinkReferences": {}
}