{
  "_format": "hh-sol-artifact-1",
  "contractName": "RealEstateTokens",
  "sourceName": "contracts/RealEstateTokens.sol",
  "abi": [
    {
      "inputs": [],
      "stateMutability": "nonpayable",
      "type": "constructor"
    },
    {
      "anonymous": false,
      "inputs": [
        {
          "indexed": true,
          "internalType": "address",
          "name": "account",
          "type": "address"
        },
        {
          "indexed": true,
          "internalType": "address",
          "name": "operator",
          "type": "address"
        },
        {
          "indexed": false,
          "internalType": "bool",
          "name": "approved",
          "type": "bool"
        }
      ],
      "name": "ApprovalForAll",
      "type": "event"
    },
    {
      "anonymous": false,
      "inputs": [
        {
          "indexed": true,
          "internalType": "address",
          "name": "operator",
          "type": "address"
        },
        {
          "indexed": true,
          "internalType": "address",
          "name": "from",
          "type": "address"
        },
        {
          "indexed": true,
          "internalType": "address",
          "name": "to",
          "type": "address"
        },
        {
          "indexed": false,
          "internalType": "uint256[]",
          "name": "ids",
          "type": "uint256[]"
        },
        {
          "indexed": false,
          "internalType": "uint256[]",
          "name": "values",
          "type": "uint256[]"
        }
      ],
      "name": "TransferBatch",
      "type": "event"
    },
    {
      "anonymous": false,
      "inputs": [
        {
          "indexed": true,
          "internalType": "address",
          "name": "operator",
          "type": "address"
        },
        {
          "indexed": true,
          "internalType": "address",
          "name": "from",
          "type": "address"
        },
        {
          "indexed": true,
          "internalType": "address",
          "name": "to",
          "type": "address"
        },
        {
          "indexed": false,
          "internalType": "uint256",
          "name": "id",
          "type": "uint256"
        },
        {
          "indexed": false,
          "internalType": "uint256",
          "name": "value",
          "type": "uint256"
        }
      ],
      "name": "TransferSingle",
      "type": "event"
    },
    {
      "anonymous": false,
      "inputs": [
        {
          "indexed": false,
          "internalType": "string",
          "name": "value",
          "type": "string"
        },
        {
          "indexed": true,
          "internalType": "uint256",
          "name": "id",
          "type": "uint256"
        }
      ],
      "name": "URI",
      "type": "event"
    },
    {
      "inputs": [
        {
          "internalType": "address",
          "name": "account",
          "type": "address"
        },
        {
          "internalType": "uint256",
          "name": "id",
          "type": "uint256"
        }
      ],
      "name": "balanceOf",
      "outputs": [
        {
          "internalType": "uint256",
          "name": "",
          "type": "uint256"
        }
      ],
      "stateMutability": "view",
      "type": "function"
    },
    {
      "inputs": [
        {
          "internalType": "address[]",
          "name": "accounts",
          "type": "address[]"
        },
        {
          "internalType": "uint256[]",
          "name": "ids",
          "type": "uint256[]"
        }
      ],
      "name": "balanceOfBatch",
      "outputs": [
        {
          "internalType": "uint256[]",
          "name": "",
          "type": "uint256[]"
        }
      ],
      "stateMutability": "view",
      "type": "function"
    },
    {
      "inputs": [
        {
          "internalType": "uint256",
          "name": "id",
          "type": "uint256"
        }
      ],
      "name": "exists",
      "outputs": [
        {
          "internalType": "bool",
          "name": "",
          "type": "bool"
        }
      ],
      "stateMutability": "view",
      "type": "function"
    },
    {
      "inputs": [
        {
          "internalType": "uint256",
          "name": "tokenId",
          "type": "uint256"
        }
      ],
      "name": "getTokenData",
      "outputs": [
        {
          "components": [
            {
              "internalType": "string",
              "name": "name",
              "type": "string"
            },
            {
              "internalType": "uint256",
              "name": "pricePerToken",
              "type": "uint256"
            }
          ],
          "internalType": "struct RealEstateTokens.TokenData",
          "name": "",
          "type": "tuple"
        }
      ],
      "stateMutability": "view",
      "type": "function"
    },
    {
      "inputs": [
        {
          "internalType": "uint256",
          "name": "tokenId",
          "type": "uint256"
        }
      ],
      "name": "getTokenHoldersLength",
      "outputs": [
        {
          "internalType": "uint256",
          "name": "",
          "type": "uint256"
        }
      ],
      "stateMutability": "view",
      "type": "function"
    },
    {
      "inputs": [
        {
          "internalType": "address",
          "name": "account",
          "type": "address"
        }
      ],
      "name": "getTokensOfUser",
      "outputs": [
        {
          "components": [
            {
              "internalType": "uint256",
              "name": "id",
              "type": "uint256"
            },
            {
              "internalType": "string",
              "name": "name",
              "type": "string"
            },
            {
              "internalType": "uint256",
              "name": "pricePerToken",
              "type": "uint256"
            },
            {
              "internalType": "uint256",
              "name": "balance",
              "type": "uint256"
            }
          ],
          "internalType": "struct RealEstateTokens.UserTokenData[]",
          "name": "",
          "type": "tuple[]"
        }
      ],
      "stateMutability": "view",
      "type": "function"
    },
    {
      "inputs": [
        {
          "internalType": "address",
          "name": "account",
          "type": "address"
        },
        {
          "internalType": "address",
          "name": "operator",
          "type": "address"
        }
      ],
      "name": "isApprovedForAll",
      "outputs": [
        {
          "internalType": "bool",
          "name": "",
          "type": "bool"
        }
      ],
      "stateMutability": "view",
      "type": "function"
    },
    {
      "inputs": [
        {
          "internalType": "uint256",
          "name": "",
          "type": "uint256"
        },
        {
          "internalType": "address",
          "name": "",
          "type": "address"
        }
      ],
      "name": "isTokenHolder",
      "outputs": [
        {
          "internalType": "bool",
          "name": "",
          "type": "bool"
        }
      ],
      "stateMutability": "view",
      "type": "function"
    },
    {
      "inputs": [
        {
          "internalType": "address",
          "name": "account",
          "type": "address"
        },
        {
          "internalType": "uint256",
          "name": "id",
          "type": "uint256"
        },
        {
          "internalType": "uint256",
          "name": "amount",
          "type": "uint256"
        },
        {
          "internalType": "bytes",
          "name": "data",
          "type": "bytes"
        }
      ],
      "name": "mint",
      "outputs": [],
      "stateMutability": "nonpayable",
      "type": "function"
    },
    {
      "inputs": [
        {
          "internalType": "address",
          "name": "to",
          "type": "address"
        },
        {
          "internalType": "uint256[]",
          "name": "ids",
          "type": "uint256[]"
        },
        {
          "internalType": "uint256[]",
          "name": "amounts",
          "type": "uint256[]"
        },
        {
          "internalType": "bytes",
          "name": "data",
          "type": "bytes"
        }
      ],
      "name": "mintBatch",
      "outputs": [],
      "stateMutability": "nonpayable",
      "type": "function"
    },
    {
      "inputs": [
        {
          "internalType": "string",
          "name": "name",
          "type": "string"
        },
        {
          "internalType": "uint256",
          "name": "amount",
          "type": "uint256"
        },
        {
          "internalType": "uint256",
          "name": "pricePerToken",
          "type": "uint256"
        },
        {
          "internalType": "address",
          "name": "account",
          "type": "address"
        }
      ],
      "name": "mintNew",
      "outputs": [],
      "stateMutability": "nonpayable",
      "type": "function"
    },
    {
      "inputs": [
        {
          "internalType": "address",
          "name": "from",
          "type": "address"
        },
        {
          "internalType": "address",
          "name": "to",
          "type": "address"
        },
        {
          "internalType": "uint256[]",
          "name": "ids",
          "type": "uint256[]"
        },
        {
          "internalType": "uint256[]",
          "name": "amounts",
          "type": "uint256[]"
        },
        {
          "internalType": "bytes",
          "name": "data",
          "type": "bytes"
        }
      ],
      "name": "safeBatchTransferFrom",
      "outputs": [],
      "stateMutability": "nonpayable",
      "type": "function"
    },
    {
      "inputs": [
        {
          "internalType": "address",
          "name": "from",
          "type": "address"
        },
        {
          "internalType": "address",
          "name": "to",
          "type": "address"
        },
        {
          "internalType": "uint256",
          "name": "id",
          "type": "uint256"
        },
        {
          "internalType": "uint256",
          "name": "amount",
          "type": "uint256"
        },
        {
          "internalType": "bytes",
          "name": "data",
          "type": "bytes"
        }
      ],
      "name": "safeTransferFrom",
      "outputs": [],
      "stateMutability": "nonpayable",
      "type": "function"
    },
    {
      "inputs": [
        {
          "internalType": "address",
          "name": "operator",
          "type": "address"
        },
        {
          "internalType": "bool",
          "name": "approved",
          "type": "bool"
        }
      ],
      "name": "setApprovalForAll",
      "outputs": [],
      "stateMutability": "nonpayable",
      "type": "function"
    },
    {
      "inputs": [
        {
          "internalType": "bytes4",
          "name": "interfaceId",
          "type": "bytes4"
        }
      ],
      "name": "supportsInterface",
      "outputs": [
        {
          "internalType": "bool",
          "name": "",
          "type": "bool"
        }
      ],
      "stateMutability": "view",
      "type": "function"
    },
    {
      "inputs": [
        {
          "internalType": "uint256",
          "name": "",
          "type": "uint256"
        },
        {
          "internalType": "uint256",
          "name": "",
          "type": "uint256"
        }
      ],
      "name": "tokenHolders",
      "outputs": [
        {
          "internalType": "address",
          "name": "",
          "type": "address"
        }
      ],
      "stateMutability": "view",
      "type": "function"
    },
    {
      "inputs": [
        {
          "internalType": "uint256",
          "name": "id",
          "type": "uint256"
        }
      ],
      "name": "totalSupply",
      "outputs": [
        {
          "internalType": "uint256",
          "name": "",
          "type": "uint256"
        }
      ],
      "stateMutability": "view",
      "type": "function"
    },
    {
      "inputs": [
        {
          "internalType": "uint256",
          "name": "",
          "type": "uint256"
        }
      ],
      "name": "uri",
      "outputs": [
        {
          "internalType": "string",
          "name": "",
          "type": "string"
        }
      ],
      "stateMutability": "view",
      "type": "function"
    }
  ],
  "bytecode": "0x60806040523480156200001157600080fd5b506040518060200160405280600081525062000033816200004260201b60201c565b506000600481905550620003b8565b8060029081620000539190620002d1565b5050565b600081519050919050565b7f4e487b7100000000000000000000000000000000000000000000000000000000600052604160045260246000fd5b7f4e487b7100000000000000000000000000000000000000000000000000000000600052602260045260246000fd5b60006002820490506001821680620000d957607f821691505b602082108103620000ef57620000ee62000091565b5b50919050565b60008190508160005260206000209050919050565b60006020601f8301049050919050565b600082821b905092915050565b600060088302620001597fffffffffffffffffffffffffffffffffffffffffffffffffffffffffffffffff826200011a565b6200016586836200011a565b95508019841693508086168417925050509392505050565b6000819050919050565b6000819050919050565b6000620001b2620001ac620001a6846200017d565b62000187565b6200017d565b9050919050565b6000819050919050565b620001ce8362000191565b620001e6620001dd82620001b9565b84845462000127565b825550505050565b600090565b620001fd620001ee565b6200020a818484620001c3565b505050565b5b81811015620002325762000226600082620001f3565b60018101905062000210565b5050565b601f82111562000281576200024b81620000f5565b62000256846200010a565b8101602085101562000266578190505b6200027e62000275856200010a565b8301826200020f565b50505b505050565b600082821c905092915050565b6000620002a66000198460080262000286565b1980831691505092915050565b6000620002c1838362000293565b9150826002028217905092915050565b620002dc8262000057565b67ffffffffffffffff811115620002f857620002f762000062565b5b620003048254620000c0565b6200031182828562000236565b600060209050601f83116001811462000349576000841562000334578287015190505b620003408582620002b3565b865550620003b0565b601f1984166200035986620000f5565b60005b8281101562000383578489015182556001820191506020850194506020810190506200035c565b86831015620003a357848901516200039f601f89168262000293565b8355505b6001600288020188555050505b505050505050565b613eef80620003c86000396000f3fe608060405234801561001057600080fd5b50600436106101155760003560e01c8063731133e9116100a2578063e037ed6311610071578063e037ed6314610326578063e75c026114610356578063e8aeefe414610386578063e985e9c5146103b6578063f242432a146103e657610115565b8063731133e91461028e578063a22cb465146102aa578063b09afec1146102c6578063bd85b039146102f657610115565b80631f7fdffa116100e95780631f7fdffa146101c65780632eb2c2d6146101e2578063316d2bc0146101fe5780634e1273f41461022e5780634f558e791461025e57610115565b8062fdd58e1461011a5780630184fcf01461014a57806301ffc9a7146101665780630e89341c14610196575b600080fd5b610134600480360381019061012f9190612489565b610402565b60405161014191906124d8565b60405180910390f35b610164600480360381019061015f9190612639565b6104ca565b005b610180600480360381019061017b9190612714565b610578565b60405161018d919061275c565b60405180910390f35b6101b060048036038101906101ab9190612777565b61058a565b6040516101bd9190612823565b60405180910390f35b6101e060048036038101906101db91906129ae565b61061e565b005b6101fc60048036038101906101f79190612a69565b610630565b005b61021860048036038101906102139190612b38565b6106d1565b604051610225919061275c565b60405180910390f35b61024860048036038101906102439190612c3b565b610700565b6040516102559190612d71565b60405180910390f35b61027860048036038101906102739190612777565b610819565b604051610285919061275c565b60405180910390f35b6102a860048036038101906102a39190612d93565b61082d565b005b6102c460048036038101906102bf9190612e42565b61083f565b005b6102e060048036038101906102db9190612777565b610855565b6040516102ed9190612f09565b60405180910390f35b610310600480360381019061030b9190612777565b61091e565b60405161031d91906124d8565b60405180910390f35b610340600480360381019061033b9190612f2b565b61093b565b60405161034d919061307d565b60405180910390f35b610370600480360381019061036b9190612777565b610b22565b60405161037d91906124d8565b60405180910390f35b6103a0600480360381019061039b919061309f565b610b42565b6040516103ad91906130ee565b60405180910390f35b6103d060048036038101906103cb9190613109565b610b90565b6040516103dd919061275c565b60405180910390f35b61040060048036038101906103fb9190613149565b610c24565b005b60008073ffffffffffffffffffffffffffffffffffffffff168373ffffffffffffffffffffffffffffffffffffffff1603610472576040517f08c379a000000000000000000000000000000000000000000000000000000000815260040161046990613252565b60405180910390fd5b60008083815260200190815260200160002060008473ffffffffffffffffffffffffffffffffffffffff1673ffffffffffffffffffffffffffffffffffffffff16815260200190815260200160002054905092915050565b61050d81600454856040518060400160405280600281526020017f3078000000000000000000000000000000000000000000000000000000000000815250610cc5565b604051806040016040528085815260200183815250600560006004548152602001908152602001600020600082015181600001908161054c919061347e565b50602082015181600101559050506004600081548092919061056d9061357f565b919050555050505050565b600061058382610e75565b9050919050565b606060028054610599906132a1565b80601f01602080910402602001604051908101604052809291908181526020018280546105c5906132a1565b80156106125780601f106105e757610100808354040283529160200191610612565b820191906000526020600020905b8154815290600101906020018083116105f557829003601f168201915b50505050509050919050565b61062a84848484610f57565b50505050565b610638611183565b73ffffffffffffffffffffffffffffffffffffffff168573ffffffffffffffffffffffffffffffffffffffff16148061067e575061067d85610678611183565b610b90565b5b6106bd576040517f08c379a00000000000000000000000000000000000000000000000000000000081526004016106b490613639565b60405180910390fd5b6106ca858585858561118b565b5050505050565b60076020528160005260406000206020528060005260406000206000915091509054906101000a900460ff1681565b60608151835114610746576040517f08c379a000000000000000000000000000000000000000000000000000000000815260040161073d906136cb565b60405180910390fd5b6000835167ffffffffffffffff8111156107635761076261250e565b5b6040519080825280602002602001820160405280156107915781602001602082028036833780820191505090505b50905060005b845181101561080e576107de8582815181106107b6576107b56136eb565b5b60200260200101518583815181106107d1576107d06136eb565b5b6020026020010151610402565b8282815181106107f1576107f06136eb565b5b602002602001018181525050806108079061357f565b9050610797565b508091505092915050565b6000806108258361091e565b119050919050565b61083984848484610cc5565b50505050565b61085161084a611183565b83836114ac565b5050565b61085d61239f565b6005600083815260200190815260200160002060405180604001604052908160008201805461088b906132a1565b80601f01602080910402602001604051908101604052809291908181526020018280546108b7906132a1565b80156109045780601f106108d957610100808354040283529160200191610904565b820191906000526020600020905b8154815290600101906020018083116108e757829003601f168201915b505050505081526020016001820154815250509050919050565b600060036000838152602001908152602001600020549050919050565b60606000805b60045481101561097f5760006109578583610402565b111561096c5781806109689061357f565b9250505b80806109779061357f565b915050610941565b5060008167ffffffffffffffff81111561099c5761099b61250e565b5b6040519080825280602002602001820160405280156109d557816020015b6109c26123b9565b8152602001906001900390816109ba5790505b5090506000805b600454811015610b165760006109f28783610402565b1115610b03576040518060800160405280828152602001600560008481526020019081526020016000206000018054610a2a906132a1565b80601f0160208091040260200160405190810160405280929190818152602001828054610a56906132a1565b8015610aa35780601f10610a7857610100808354040283529160200191610aa3565b820191906000526020600020905b815481529060010190602001808311610a8657829003601f168201915b5050505050815260200160056000848152602001908152602001600020600101548152602001610ad38884610402565b815250838381518110610ae957610ae86136eb565b5b60200260200101819052508180610aff9061357f565b9250505b8080610b0e9061357f565b9150506109dc565b50819350505050919050565b600060066000838152602001908152602001600020805490509050919050565b60066020528160005260406000208181548110610b5e57600080fd5b906000526020600020016000915091509054906101000a900473ffffffffffffffffffffffffffffffffffffffff1681565b6000600160008473ffffffffffffffffffffffffffffffffffffffff1673ffffffffffffffffffffffffffffffffffffffff16815260200190815260200160002060008373ffffffffffffffffffffffffffffffffffffffff1673ffffffffffffffffffffffffffffffffffffffff16815260200190815260200160002060009054906101000a900460ff16905092915050565b610c2c611183565b73ffffffffffffffffffffffffffffffffffffffff168573ffffffffffffffffffffffffffffffffffffffff161480610c725750610c7185610c6c611183565b610b90565b5b610cb1576040517f08c379a0000000000000000000000000000000000000000000000000000000008152600401610ca890613639565b60405180910390fd5b610cbe8585858585611618565b5050505050565b600073ffffffffffffffffffffffffffffffffffffffff168473ffffffffffffffffffffffffffffffffffffffff1603610d34576040517f08c379a0000000000000000000000000000000000000000000000000000000008152600401610d2b9061378c565b60405180910390fd5b6000610d3e611183565b90506000610d4b856118b3565b90506000610d58856118b3565b9050610d698360008985858961192d565b8460008088815260200190815260200160002060008973ffffffffffffffffffffffffffffffffffffffff1673ffffffffffffffffffffffffffffffffffffffff1681526020019081526020016000206000828254610dc891906137ac565b925050819055508673ffffffffffffffffffffffffffffffffffffffff16600073ffffffffffffffffffffffffffffffffffffffff168473ffffffffffffffffffffffffffffffffffffffff167fc3d58168c5ae7397731d063d5bbf3d657854427343f4c083240f7aacaa2d0f628989604051610e469291906137e0565b60405180910390a4610e5d83600089858589611a99565b610e6c83600089898989611aa1565b50505050505050565b60007fd9b67a26000000000000000000000000000000000000000000000000000000007bffffffffffffffffffffffffffffffffffffffffffffffffffffffff1916827bffffffffffffffffffffffffffffffffffffffffffffffffffffffff19161480610f4057507f0e89341c000000000000000000000000000000000000000000000000000000007bffffffffffffffffffffffffffffffffffffffffffffffffffffffff1916827bffffffffffffffffffffffffffffffffffffffffffffffffffffffff1916145b80610f505750610f4f82611c78565b5b9050919050565b600073ffffffffffffffffffffffffffffffffffffffff168473ffffffffffffffffffffffffffffffffffffffff1603610fc6576040517f08c379a0000000000000000000000000000000000000000000000000000000008152600401610fbd9061378c565b60405180910390fd5b815183511461100a576040517f08c379a00000000000000000000000000000000000000000000000000000000081526004016110019061387b565b60405180910390fd5b6000611014611183565b90506110258160008787878761192d565b60005b84518110156110de57838181518110611044576110436136eb565b5b6020026020010151600080878481518110611062576110616136eb565b5b6020026020010151815260200190815260200160002060008873ffffffffffffffffffffffffffffffffffffffff1673ffffffffffffffffffffffffffffffffffffffff16815260200190815260200160002060008282546110c491906137ac565b9250508190555080806110d69061357f565b915050611028565b508473ffffffffffffffffffffffffffffffffffffffff16600073ffffffffffffffffffffffffffffffffffffffff168273ffffffffffffffffffffffffffffffffffffffff167f4a39dc06d4c0dbc64b70af90fd698a233a518aa5d07e595d983b8c0526c8f7fb878760405161115692919061389b565b60405180910390a461116d81600087878787611a99565b61117c81600087878787611ce2565b5050505050565b600033905090565b81518351146111cf576040517f08c379a00000000000000000000000000000000000000000000000000000000081526004016111c69061387b565b60405180910390fd5b600073ffffffffffffffffffffffffffffffffffffffff168473ffffffffffffffffffffffffffffffffffffffff160361123e576040517f08c379a000000000000000000000000000000000000000000000000000000000815260040161123590613944565b60405180910390fd5b6000611248611183565b905061125881878787878761192d565b60005b8451811015611409576000858281518110611279576112786136eb565b5b602002602001015190506000858381518110611298576112976136eb565b5b60200260200101519050600080600084815260200190815260200160002060008b73ffffffffffffffffffffffffffffffffffffffff1673ffffffffffffffffffffffffffffffffffffffff16815260200190815260200160002054905081811015611339576040517f08c379a0000000000000000000000000000000000000000000000000000000008152600401611330906139d6565b60405180910390fd5b81810360008085815260200190815260200160002060008c73ffffffffffffffffffffffffffffffffffffffff1673ffffffffffffffffffffffffffffffffffffffff168152602001908152602001600020819055508160008085815260200190815260200160002060008b73ffffffffffffffffffffffffffffffffffffffff1673ffffffffffffffffffffffffffffffffffffffff16815260200190815260200160002060008282546113ee91906137ac565b92505081905550505050806114029061357f565b905061125b565b508473ffffffffffffffffffffffffffffffffffffffff168673ffffffffffffffffffffffffffffffffffffffff168273ffffffffffffffffffffffffffffffffffffffff167f4a39dc06d4c0dbc64b70af90fd698a233a518aa5d07e595d983b8c0526c8f7fb878760405161148092919061389b565b60405180910390a4611496818787878787611a99565b6114a4818787878787611ce2565b505050505050565b8173ffffffffffffffffffffffffffffffffffffffff168373ffffffffffffffffffffffffffffffffffffffff160361151a576040517f08c379a000000000000000000000000000000000000000000000000000000000815260040161151190613a68565b60405180910390fd5b80600160008573ffffffffffffffffffffffffffffffffffffffff1673ffffffffffffffffffffffffffffffffffffffff16815260200190815260200160002060008473ffffffffffffffffffffffffffffffffffffffff1673ffffffffffffffffffffffffffffffffffffffff16815260200190815260200160002060006101000a81548160ff0219169083151502179055508173ffffffffffffffffffffffffffffffffffffffff168373ffffffffffffffffffffffffffffffffffffffff167f17307eab39ab6107e8899845ad3d59bd9653f200f220920489ca2b5937696c318360405161160b919061275c565b60405180910390a3505050565b600073ffffffffffffffffffffffffffffffffffffffff168473ffffffffffffffffffffffffffffffffffffffff1603611687576040517f08c379a000000000000000000000000000000000000000000000000000000000815260040161167e90613944565b60405180910390fd5b6000611691611183565b9050600061169e856118b3565b905060006116ab856118b3565b90506116bb83898985858961192d565b600080600088815260200190815260200160002060008a73ffffffffffffffffffffffffffffffffffffffff1673ffffffffffffffffffffffffffffffffffffffff16815260200190815260200160002054905085811015611752576040517f08c379a0000000000000000000000000000000000000000000000000000000008152600401611749906139d6565b60405180910390fd5b85810360008089815260200190815260200160002060008b73ffffffffffffffffffffffffffffffffffffffff1673ffffffffffffffffffffffffffffffffffffffff168152602001908152602001600020819055508560008089815260200190815260200160002060008a73ffffffffffffffffffffffffffffffffffffffff1673ffffffffffffffffffffffffffffffffffffffff168152602001908152602001600020600082825461180791906137ac565b925050819055508773ffffffffffffffffffffffffffffffffffffffff168973ffffffffffffffffffffffffffffffffffffffff168573ffffffffffffffffffffffffffffffffffffffff167fc3d58168c5ae7397731d063d5bbf3d657854427343f4c083240f7aacaa2d0f628a8a6040516118849291906137e0565b60405180910390a461189a848a8a86868a611a99565b6118a8848a8a8a8a8a611aa1565b505050505050505050565b60606000600167ffffffffffffffff8111156118d2576118d161250e565b5b6040519080825280602002602001820160405280156119005781602001602082028036833780820191505090505b5090508281600081518110611918576119176136eb565b5b60200260200101818152505080915050919050565b61193b868686868686611eb9565b60005b8351811015611a9057600084828151811061195c5761195b6136eb565b5b60200260200101519050600073ffffffffffffffffffffffffffffffffffffffff168773ffffffffffffffffffffffffffffffffffffffff16141580156119c557508382815181106119b1576119b06136eb565b5b60200260200101516119c38883610402565b145b156119d5576119d48188612089565b5b60008483815181106119ea576119e96136eb565b5b60200260200101516119fc8884610402565b611a0691906137ac565b118015611a6e57506007600082815260200190815260200160002060008773ffffffffffffffffffffffffffffffffffffffff1673ffffffffffffffffffffffffffffffffffffffff16815260200190815260200160002060009054906101000a900460ff16155b15611a7e57611a7d8187612293565b5b5080611a899061357f565b905061193e565b50505050505050565b505050505050565b611ac08473ffffffffffffffffffffffffffffffffffffffff16612374565b15611c70578373ffffffffffffffffffffffffffffffffffffffff1663f23a6e6187878686866040518663ffffffff1660e01b8152600401611b06959493929190613add565b6020604051808303816000875af1925050508015611b4257506040513d601f19601f82011682018060405250810190611b3f9190613b4c565b60015b611be757611b4e613b86565b806308c379a003611baa5750611b62613ba8565b80611b6d5750611bac565b806040517f08c379a0000000000000000000000000000000000000000000000000000000008152600401611ba19190612823565b60405180910390fd5b505b6040517f08c379a0000000000000000000000000000000000000000000000000000000008152600401611bde90613caa565b60405180910390fd5b63f23a6e6160e01b7bffffffffffffffffffffffffffffffffffffffffffffffffffffffff1916817bffffffffffffffffffffffffffffffffffffffffffffffffffffffff191614611c6e576040517f08c379a0000000000000000000000000000000000000000000000000000000008152600401611c6590613d3c565b60405180910390fd5b505b505050505050565b60007f01ffc9a7000000000000000000000000000000000000000000000000000000007bffffffffffffffffffffffffffffffffffffffffffffffffffffffff1916827bffffffffffffffffffffffffffffffffffffffffffffffffffffffff1916149050919050565b611d018473ffffffffffffffffffffffffffffffffffffffff16612374565b15611eb1578373ffffffffffffffffffffffffffffffffffffffff1663bc197c8187878686866040518663ffffffff1660e01b8152600401611d47959493929190613d5c565b6020604051808303816000875af1925050508015611d8357506040513d601f19601f82011682018060405250810190611d809190613b4c565b60015b611e2857611d8f613b86565b806308c379a003611deb5750611da3613ba8565b80611dae5750611ded565b806040517f08c379a0000000000000000000000000000000000000000000000000000000008152600401611de29190612823565b60405180910390fd5b505b6040517f08c379a0000000000000000000000000000000000000000000000000000000008152600401611e1f90613caa565b60405180910390fd5b63bc197c8160e01b7bffffffffffffffffffffffffffffffffffffffffffffffffffffffff1916817bffffffffffffffffffffffffffffffffffffffffffffffffffffffff191614611eaf576040517f08c379a0000000000000000000000000000000000000000000000000000000008152600401611ea690613d3c565b60405180910390fd5b505b505050505050565b611ec7868686868686612397565b600073ffffffffffffffffffffffffffffffffffffffff168573ffffffffffffffffffffffffffffffffffffffff1603611f785760005b8351811015611f7657828181518110611f1a57611f196136eb565b5b602002602001015160036000868481518110611f3957611f386136eb565b5b602002602001015181526020019081526020016000206000828254611f5e91906137ac565b9250508190555080611f6f9061357f565b9050611efe565b505b600073ffffffffffffffffffffffffffffffffffffffff168473ffffffffffffffffffffffffffffffffffffffff16036120815760005b835181101561207f576000848281518110611fcd57611fcc6136eb565b5b602002602001015190506000848381518110611fec57611feb6136eb565b5b6020026020010151905060006003600084815260200190815260200160002054905081811015612051576040517f08c379a000000000000000000000000000000000000000000000000000000000815260040161204890613e36565b60405180910390fd5b8181036003600085815260200190815260200160002081905550505050806120789061357f565b9050611faf565b505b505050505050565b600060066000848152602001908152602001600020905060005b8180549050811015612224578273ffffffffffffffffffffffffffffffffffffffff168282815481106120d9576120d86136eb565b5b9060005260206000200160009054906101000a900473ffffffffffffffffffffffffffffffffffffffff1673ffffffffffffffffffffffffffffffffffffffff16036122135781600183805490506121319190613e56565b81548110612142576121416136eb565b5b9060005260206000200160009054906101000a900473ffffffffffffffffffffffffffffffffffffffff168282815481106121805761217f6136eb565b5b9060005260206000200160006101000a81548173ffffffffffffffffffffffffffffffffffffffff021916908373ffffffffffffffffffffffffffffffffffffffff160217905550818054806121d9576121d8613e8a565b5b6001900381819060005260206000200160006101000a81549073ffffffffffffffffffffffffffffffffffffffff02191690559055612224565b8061221d9061357f565b90506120a3565b5060006007600085815260200190815260200160002060008473ffffffffffffffffffffffffffffffffffffffff1673ffffffffffffffffffffffffffffffffffffffff16815260200190815260200160002060006101000a81548160ff021916908315150217905550505050565b60066000838152602001908152602001600020819080600181540180825580915050600190039060005260206000200160009091909190916101000a81548173ffffffffffffffffffffffffffffffffffffffff021916908373ffffffffffffffffffffffffffffffffffffffff16021790555060016007600084815260200190815260200160002060008373ffffffffffffffffffffffffffffffffffffffff1673ffffffffffffffffffffffffffffffffffffffff16815260200190815260200160002060006101000a81548160ff0219169083151502179055505050565b6000808273ffffffffffffffffffffffffffffffffffffffff163b119050919050565b505050505050565b604051806040016040528060608152602001600081525090565b6040518060800160405280600081526020016060815260200160008152602001600081525090565b6000604051905090565b600080fd5b600080fd5b600073ffffffffffffffffffffffffffffffffffffffff82169050919050565b6000612420826123f5565b9050919050565b61243081612415565b811461243b57600080fd5b50565b60008135905061244d81612427565b92915050565b6000819050919050565b61246681612453565b811461247157600080fd5b50565b6000813590506124838161245d565b92915050565b600080604083850312156124a05761249f6123eb565b5b60006124ae8582860161243e565b92505060206124bf85828601612474565b9150509250929050565b6124d281612453565b82525050565b60006020820190506124ed60008301846124c9565b92915050565b600080fd5b600080fd5b6000601f19601f8301169050919050565b7f4e487b7100000000000000000000000000000000000000000000000000000000600052604160045260246000fd5b612546826124fd565b810181811067ffffffffffffffff821117156125655761256461250e565b5b80604052505050565b60006125786123e1565b9050612584828261253d565b919050565b600067ffffffffffffffff8211156125a4576125a361250e565b5b6125ad826124fd565b9050602081019050919050565b82818337600083830152505050565b60006125dc6125d784612589565b61256e565b9050828152602081018484840111156125f8576125f76124f8565b5b6126038482856125ba565b509392505050565b600082601f8301126126205761261f6124f3565b5b81356126308482602086016125c9565b91505092915050565b60008060008060808587031215612653576126526123eb565b5b600085013567ffffffffffffffff811115612671576126706123f0565b5b61267d8782880161260b565b945050602061268e87828801612474565b935050604061269f87828801612474565b92505060606126b08782880161243e565b91505092959194509250565b60007fffffffff0000000000000000000000000000000000000000000000000000000082169050919050565b6126f1816126bc565b81146126fc57600080fd5b50565b60008135905061270e816126e8565b92915050565b60006020828403121561272a576127296123eb565b5b6000612738848285016126ff565b91505092915050565b60008115159050919050565b61275681612741565b82525050565b6000602082019050612771600083018461274d565b92915050565b60006020828403121561278d5761278c6123eb565b5b600061279b84828501612474565b91505092915050565b600081519050919050565b600082825260208201905092915050565b60005b838110156127de5780820151818401526020810190506127c3565b60008484015250505050565b60006127f5826127a4565b6127ff81856127af565b935061280f8185602086016127c0565b612818816124fd565b840191505092915050565b6000602082019050818103600083015261283d81846127ea565b905092915050565b600067ffffffffffffffff8211156128605761285f61250e565b5b602082029050602081019050919050565b600080fd5b600061288961288484612845565b61256e565b905080838252602082019050602084028301858111156128ac576128ab612871565b5b835b818110156128d557806128c18882612474565b8452602084019350506020810190506128ae565b5050509392505050565b600082601f8301126128f4576128f36124f3565b5b8135612904848260208601612876565b91505092915050565b600067ffffffffffffffff8211156129285761292761250e565b5b612931826124fd565b9050602081019050919050565b600061295161294c8461290d565b61256e565b90508281526020810184848401111561296d5761296c6124f8565b5b6129788482856125ba565b509392505050565b600082601f830112612995576129946124f3565b5b81356129a584826020860161293e565b91505092915050565b600080600080608085870312156129c8576129c76123eb565b5b60006129d68782880161243e565b945050602085013567ffffffffffffffff8111156129f7576129f66123f0565b5b612a03878288016128df565b935050604085013567ffffffffffffffff811115612a2457612a236123f0565b5b612a30878288016128df565b925050606085013567ffffffffffffffff811115612a5157612a506123f0565b5b612a5d87828801612980565b91505092959194509250565b600080600080600060a08688031215612a8557612a846123eb565b5b6000612a938882890161243e565b9550506020612aa48882890161243e565b945050604086013567ffffffffffffffff811115612ac557612ac46123f0565b5b612ad1888289016128df565b935050606086013567ffffffffffffffff811115612af257612af16123f0565b5b612afe888289016128df565b925050608086013567ffffffffffffffff811115612b1f57612b1e6123f0565b5b612b2b88828901612980565b9150509295509295909350565b60008060408385031215612b4f57612b4e6123eb565b5b6000612b5d85828601612474565b9250506020612b6e8582860161243e565b9150509250929050565b600067ffffffffffffffff821115612b9357612b9261250e565b5b602082029050602081019050919050565b6000612bb7612bb284612b78565b61256e565b90508083825260208201905060208402830185811115612bda57612bd9612871565b5b835b81811015612c035780612bef888261243e565b845260208401935050602081019050612bdc565b5050509392505050565b600082601f830112612c2257612c216124f3565b5b8135612c32848260208601612ba4565b91505092915050565b60008060408385031215612c5257612c516123eb565b5b600083013567ffffffffffffffff811115612c7057612c6f6123f0565b5b612c7c85828601612c0d565b925050602083013567ffffffffffffffff811115612c9d57612c9c6123f0565b5b612ca9858286016128df565b9150509250929050565b600081519050919050565b600082825260208201905092915050565b6000819050602082019050919050565b612ce881612453565b82525050565b6000612cfa8383612cdf565b60208301905092915050565b6000602082019050919050565b6000612d1e82612cb3565b612d288185612cbe565b9350612d3383612ccf565b8060005b83811015612d64578151612d4b8882612cee565b9750612d5683612d06565b925050600181019050612d37565b5085935050505092915050565b60006020820190508181036000830152612d8b8184612d13565b905092915050565b60008060008060808587031215612dad57612dac6123eb565b5b6000612dbb8782880161243e565b9450506020612dcc87828801612474565b9350506040612ddd87828801612474565b925050606085013567ffffffffffffffff811115612dfe57612dfd6123f0565b5b612e0a87828801612980565b91505092959194509250565b612e1f81612741565b8114612e2a57600080fd5b50565b600081359050612e3c81612e16565b92915050565b60008060408385031215612e5957612e586123eb565b5b6000612e678582860161243e565b9250506020612e7885828601612e2d565b9150509250929050565b600082825260208201905092915050565b6000612e9e826127a4565b612ea88185612e82565b9350612eb88185602086016127c0565b612ec1816124fd565b840191505092915050565b60006040830160008301518482036000860152612ee98282612e93565b9150506020830151612efe6020860182612cdf565b508091505092915050565b60006020820190508181036000830152612f238184612ecc565b905092915050565b600060208284031215612f4157612f406123eb565b5b6000612f4f8482850161243e565b91505092915050565b600081519050919050565b600082825260208201905092915050565b6000819050602082019050919050565b6000608083016000830151612f9c6000860182612cdf565b5060208301518482036020860152612fb48282612e93565b9150506040830151612fc96040860182612cdf565b506060830151612fdc6060860182612cdf565b508091505092915050565b6000612ff38383612f84565b905092915050565b6000602082019050919050565b600061301382612f58565b61301d8185612f63565b93508360208202850161302f85612f74565b8060005b8581101561306b578484038952815161304c8582612fe7565b945061305783612ffb565b925060208a01995050600181019050613033565b50829750879550505050505092915050565b600060208201905081810360008301526130978184613008565b905092915050565b600080604083850312156130b6576130b56123eb565b5b60006130c485828601612474565b92505060206130d585828601612474565b9150509250929050565b6130e881612415565b82525050565b600060208201905061310360008301846130df565b92915050565b600080604083850312156131205761311f6123eb565b5b600061312e8582860161243e565b925050602061313f8582860161243e565b9150509250929050565b600080600080600060a08688031215613165576131646123eb565b5b60006131738882890161243e565b95505060206131848882890161243e565b945050604061319588828901612474565b93505060606131a688828901612474565b925050608086013567ffffffffffffffff8111156131c7576131c66123f0565b5b6131d388828901612980565b9150509295509295909350565b7f455243313135353a2061646472657373207a65726f206973206e6f742061207660008201527f616c6964206f776e657200000000000000000000000000000000000000000000602082015250565b600061323c602a836127af565b9150613247826131e0565b604082019050919050565b6000602082019050818103600083015261326b8161322f565b9050919050565b7f4e487b7100000000000000000000000000000000000000000000000000000000600052602260045260246000fd5b600060028204905060018216806132b957607f821691505b6020821081036132cc576132cb613272565b5b50919050565b60008190508160005260206000209050919050565b60006020601f8301049050919050565b600082821b905092915050565b6000600883026133347fffffffffffffffffffffffffffffffffffffffffffffffffffffffffffffffff826132f7565b61333e86836132f7565b95508019841693508086168417925050509392505050565b6000819050919050565b600061337b61337661337184612453565b613356565b612453565b9050919050565b6000819050919050565b61339583613360565b6133a96133a182613382565b848454613304565b825550505050565b600090565b6133be6133b1565b6133c981848461338c565b505050565b5b818110156133ed576133e26000826133b6565b6001810190506133cf565b5050565b601f82111561343257613403816132d2565b61340c846132e7565b8101602085101561341b578190505b61342f613427856132e7565b8301826133ce565b50505b505050565b600082821c905092915050565b600061345560001984600802613437565b1980831691505092915050565b600061346e8383613444565b9150826002028217905092915050565b613487826127a4565b67ffffffffffffffff8111156134a05761349f61250e565b5b6134aa82546132a1565b6134b58282856133f1565b600060209050601f8311600181146134e857600084156134d6578287015190505b6134e08582613462565b865550613548565b601f1984166134f6866132d2565b60005b8281101561351e578489015182556001820191506020850194506020810190506134f9565b8683101561353b5784890151613537601f891682613444565b8355505b6001600288020188555050505b505050505050565b7f4e487b7100000000000000000000000000000000000000000000000000000000600052601160045260246000fd5b600061358a82612453565b91507fffffffffffffffffffffffffffffffffffffffffffffffffffffffffffffffff82036135bc576135bb613550565b5b600182019050919050565b7f455243313135353a2063616c6c6572206973206e6f7420746f6b656e206f776e60008201527f6572206f7220617070726f766564000000000000000000000000000000000000602082015250565b6000613623602e836127af565b915061362e826135c7565b604082019050919050565b6000602082019050818103600083015261365281613616565b9050919050565b7f455243313135353a206163636f756e747320616e6420696473206c656e67746860008201527f206d69736d617463680000000000000000000000000000000000000000000000602082015250565b60006136b56029836127af565b91506136c082613659565b604082019050919050565b600060208201905081810360008301526136e4816136a8565b9050919050565b7f4e487b7100000000000000000000000000000000000000000000000000000000600052603260045260246000fd5b7f455243313135353a206d696e7420746f20746865207a65726f2061646472657360008201527f7300000000000000000000000000000000000000000000000000000000000000602082015250565b60006137766021836127af565b91506137818261371a565b604082019050919050565b600060208201905081810360008301526137a581613769565b9050919050565b60006137b782612453565b91506137c283612453565b92508282019050808211156137da576137d9613550565b5b92915050565b60006040820190506137f560008301856124c9565b61380260208301846124c9565b9392505050565b7f455243313135353a2069647320616e6420616d6f756e7473206c656e6774682060008201527f6d69736d61746368000000000000000000000000000000000000000000000000602082015250565b60006138656028836127af565b915061387082613809565b604082019050919050565b6000602082019050818103600083015261389481613858565b9050919050565b600060408201905081810360008301526138b58185612d13565b905081810360208301526138c98184612d13565b90509392505050565b7f455243313135353a207472616e7366657220746f20746865207a65726f20616460008201527f6472657373000000000000000000000000000000000000000000000000000000602082015250565b600061392e6025836127af565b9150613939826138d2565b604082019050919050565b6000602082019050818103600083015261395d81613921565b9050919050565b7f455243313135353a20696e73756666696369656e742062616c616e636520666f60008201527f72207472616e7366657200000000000000000000000000000000000000000000602082015250565b60006139c0602a836127af565b91506139cb82613964565b604082019050919050565b600060208201905081810360008301526139ef816139b3565b9050919050565b7f455243313135353a2073657474696e6720617070726f76616c2073746174757360008201527f20666f722073656c660000000000000000000000000000000000000000000000602082015250565b6000613a526029836127af565b9150613a5d826139f6565b604082019050919050565b60006020820190508181036000830152613a8181613a45565b9050919050565b600081519050919050565b600082825260208201905092915050565b6000613aaf82613a88565b613ab98185613a93565b9350613ac98185602086016127c0565b613ad2816124fd565b840191505092915050565b600060a082019050613af260008301886130df565b613aff60208301876130df565b613b0c60408301866124c9565b613b1960608301856124c9565b8181036080830152613b2b8184613aa4565b90509695505050505050565b600081519050613b46816126e8565b92915050565b600060208284031215613b6257613b616123eb565b5b6000613b7084828501613b37565b91505092915050565b60008160e01c9050919050565b600060033d1115613ba55760046000803e613ba2600051613b79565b90505b90565b600060443d10613c3557613bba6123e1565b60043d036004823e80513d602482011167ffffffffffffffff82111715613be2575050613c35565b808201805167ffffffffffffffff811115613c005750505050613c35565b80602083010160043d038501811115613c1d575050505050613c35565b613c2c8260200185018661253d565b82955050505050505b90565b7f455243313135353a207472616e7366657220746f206e6f6e2d4552433131353560008201527f526563656976657220696d706c656d656e746572000000000000000000000000602082015250565b6000613c946034836127af565b9150613c9f82613c38565b604082019050919050565b60006020820190508181036000830152613cc381613c87565b9050919050565b7f455243313135353a204552433131353552656365697665722072656a6563746560008201527f6420746f6b656e73000000000000000000000000000000000000000000000000602082015250565b6000613d266028836127af565b9150613d3182613cca565b604082019050919050565b60006020820190508181036000830152613d5581613d19565b9050919050565b600060a082019050613d7160008301886130df565b613d7e60208301876130df565b8181036040830152613d908186612d13565b90508181036060830152613da48185612d13565b90508181036080830152613db88184613aa4565b90509695505050505050565b7f455243313135353a206275726e20616d6f756e74206578636565647320746f7460008201527f616c537570706c79000000000000000000000000000000000000000000000000602082015250565b6000613e206028836127af565b9150613e2b82613dc4565b604082019050919050565b60006020820190508181036000830152613e4f81613e13565b9050919050565b6000613e6182612453565b9150613e6c83612453565b9250828203905081811115613e8457613e83613550565b5b92915050565b7f4e487b7100000000000000000000000000000000000000000000000000000000600052603160045260246000fdfea2646970667358221220964b7995aafebcb6efc864cfef040ee99be9532ee238546867037d63f8632b6b64736f6c63430008130033",
  "linkReferences": {},
  "deployedLinkReferences": {}
}