{
  "_format": "hh-sol-artifact-1",
  "contractName": "RealEstateTokens",
  "sourceName": "contracts/RealEstateTokens.sol",
  "abi": [
    {
      "inputs": [],
      "stateMutability": "nonpayable",
      "type": "constructor"
    },
    {
      "anonymous": false,
      "inputs": [
        {
          "indexed": true,
          "internalType": "address",
          "name": "account",
          "type": "address"
        },
        {
          "indexed": true,
          "internalType": "address",
          "name": "operator",
          "type": "address"
        },
        {
          "indexed": false,
          "internalType": "bool",
          "name": "approved",
          "type": "bool"
        }
      ],
      "name": "ApprovalForAll",
      "type": "event"
    },
    {
      "anonymous": false,
      "inputs": [
        {
          "indexed": true,
          "internalType": "bytes32",
          "name": "role",
          "type": "bytes32"
        },
        {
          "indexed": true,
          "internalType": "bytes32",
          "name": "previousAdminRole",
          "type": "bytes32"
        },
        {
          "indexed": true,
          "internalType": "bytes32",
          "name": "newAdminRole",
          "type": "bytes32"
        }
      ],
      "name": "RoleAdminChanged",
      "type": "event"
    },
    {
      "anonymous": false,
      "inputs": [
        {
          "indexed": true,
          "internalType": "bytes32",
          "name": "role",
          "type": "bytes32"
        },
        {
          "indexed": true,
          "internalType": "address",
          "name": "account",
          "type": "address"
        },
        {
          "indexed": true,
          "internalType": "address",
          "name": "sender",
          "type": "address"
        }
      ],
      "name": "RoleGranted",
      "type": "event"
    },
    {
      "anonymous": false,
      "inputs": [
        {
          "indexed": true,
          "internalType": "bytes32",
          "name": "role",
          "type": "bytes32"
        },
        {
          "indexed": true,
          "internalType": "address",
          "name": "account",
          "type": "address"
        },
        {
          "indexed": true,
          "internalType": "address",
          "name": "sender",
          "type": "address"
        }
      ],
      "name": "RoleRevoked",
      "type": "event"
    },
    {
      "anonymous": false,
      "inputs": [
        {
          "indexed": true,
          "internalType": "address",
          "name": "operator",
          "type": "address"
        },
        {
          "indexed": true,
          "internalType": "address",
          "name": "from",
          "type": "address"
        },
        {
          "indexed": true,
          "internalType": "address",
          "name": "to",
          "type": "address"
        },
        {
          "indexed": false,
          "internalType": "uint256[]",
          "name": "ids",
          "type": "uint256[]"
        },
        {
          "indexed": false,
          "internalType": "uint256[]",
          "name": "values",
          "type": "uint256[]"
        }
      ],
      "name": "TransferBatch",
      "type": "event"
    },
    {
      "anonymous": false,
      "inputs": [
        {
          "indexed": true,
          "internalType": "address",
          "name": "operator",
          "type": "address"
        },
        {
          "indexed": true,
          "internalType": "address",
          "name": "from",
          "type": "address"
        },
        {
          "indexed": true,
          "internalType": "address",
          "name": "to",
          "type": "address"
        },
        {
          "indexed": false,
          "internalType": "uint256",
          "name": "id",
          "type": "uint256"
        },
        {
          "indexed": false,
          "internalType": "uint256",
          "name": "value",
          "type": "uint256"
        }
      ],
      "name": "TransferSingle",
      "type": "event"
    },
    {
      "anonymous": false,
      "inputs": [
        {
          "indexed": false,
          "internalType": "string",
          "name": "value",
          "type": "string"
        },
        {
          "indexed": true,
          "internalType": "uint256",
          "name": "id",
          "type": "uint256"
        }
      ],
      "name": "URI",
      "type": "event"
    },
    {
      "inputs": [],
      "name": "DEFAULT_ADMIN_ROLE",
      "outputs": [
        {
          "internalType": "bytes32",
          "name": "",
          "type": "bytes32"
        }
      ],
      "stateMutability": "view",
      "type": "function"
    },
    {
      "inputs": [],
      "name": "MINTER_ROLE",
      "outputs": [
        {
          "internalType": "bytes32",
          "name": "",
          "type": "bytes32"
        }
      ],
      "stateMutability": "view",
      "type": "function"
    },
    {
      "inputs": [],
      "name": "URI_SETTER_ROLE",
      "outputs": [
        {
          "internalType": "bytes32",
          "name": "",
          "type": "bytes32"
        }
      ],
      "stateMutability": "view",
      "type": "function"
    },
    {
      "inputs": [
        {
          "internalType": "address",
          "name": "account",
          "type": "address"
        },
        {
          "internalType": "uint256",
          "name": "id",
          "type": "uint256"
        }
      ],
      "name": "balanceOf",
      "outputs": [
        {
          "internalType": "uint256",
          "name": "",
          "type": "uint256"
        }
      ],
      "stateMutability": "view",
      "type": "function"
    },
    {
      "inputs": [
        {
          "internalType": "address[]",
          "name": "accounts",
          "type": "address[]"
        },
        {
          "internalType": "uint256[]",
          "name": "ids",
          "type": "uint256[]"
        }
      ],
      "name": "balanceOfBatch",
      "outputs": [
        {
          "internalType": "uint256[]",
          "name": "",
          "type": "uint256[]"
        }
      ],
      "stateMutability": "view",
      "type": "function"
    },
    {
      "inputs": [
        {
          "internalType": "uint256",
          "name": "id",
          "type": "uint256"
        }
      ],
      "name": "exists",
      "outputs": [
        {
          "internalType": "bool",
          "name": "",
          "type": "bool"
        }
      ],
      "stateMutability": "view",
      "type": "function"
    },
    {
      "inputs": [
        {
          "internalType": "bytes32",
          "name": "role",
          "type": "bytes32"
        }
      ],
      "name": "getRoleAdmin",
      "outputs": [
        {
          "internalType": "bytes32",
          "name": "",
          "type": "bytes32"
        }
      ],
      "stateMutability": "view",
      "type": "function"
    },
    {
      "inputs": [
        {
          "internalType": "bytes32",
          "name": "role",
          "type": "bytes32"
        },
        {
          "internalType": "address",
          "name": "account",
          "type": "address"
        }
      ],
      "name": "grantRole",
      "outputs": [],
      "stateMutability": "nonpayable",
      "type": "function"
    },
    {
      "inputs": [
        {
          "internalType": "bytes32",
          "name": "role",
          "type": "bytes32"
        },
        {
          "internalType": "address",
          "name": "account",
          "type": "address"
        }
      ],
      "name": "hasRole",
      "outputs": [
        {
          "internalType": "bool",
          "name": "",
          "type": "bool"
        }
      ],
      "stateMutability": "view",
      "type": "function"
    },
    {
      "inputs": [
        {
          "internalType": "address",
          "name": "account",
          "type": "address"
        },
        {
          "internalType": "address",
          "name": "operator",
          "type": "address"
        }
      ],
      "name": "isApprovedForAll",
      "outputs": [
        {
          "internalType": "bool",
          "name": "",
          "type": "bool"
        }
      ],
      "stateMutability": "view",
      "type": "function"
    },
    {
      "inputs": [
        {
          "internalType": "address",
          "name": "account",
          "type": "address"
        },
        {
          "internalType": "uint256",
          "name": "id",
          "type": "uint256"
        },
        {
          "internalType": "uint256",
          "name": "amount",
          "type": "uint256"
        },
        {
          "internalType": "bytes",
          "name": "data",
          "type": "bytes"
        }
      ],
      "name": "mint",
      "outputs": [],
      "stateMutability": "nonpayable",
      "type": "function"
    },
    {
      "inputs": [
        {
          "internalType": "address",
          "name": "to",
          "type": "address"
        },
        {
          "internalType": "uint256[]",
          "name": "ids",
          "type": "uint256[]"
        },
        {
          "internalType": "uint256[]",
          "name": "amounts",
          "type": "uint256[]"
        },
        {
          "internalType": "bytes",
          "name": "data",
          "type": "bytes"
        }
      ],
      "name": "mintBatch",
      "outputs": [],
      "stateMutability": "nonpayable",
      "type": "function"
    },
    {
      "inputs": [
        {
          "internalType": "bytes32",
          "name": "role",
          "type": "bytes32"
        },
        {
          "internalType": "address",
          "name": "account",
          "type": "address"
        }
      ],
      "name": "renounceRole",
      "outputs": [],
      "stateMutability": "nonpayable",
      "type": "function"
    },
    {
      "inputs": [
        {
          "internalType": "bytes32",
          "name": "role",
          "type": "bytes32"
        },
        {
          "internalType": "address",
          "name": "account",
          "type": "address"
        }
      ],
      "name": "revokeRole",
      "outputs": [],
      "stateMutability": "nonpayable",
      "type": "function"
    },
    {
      "inputs": [
        {
          "internalType": "address",
          "name": "from",
          "type": "address"
        },
        {
          "internalType": "address",
          "name": "to",
          "type": "address"
        },
        {
          "internalType": "uint256[]",
          "name": "ids",
          "type": "uint256[]"
        },
        {
          "internalType": "uint256[]",
          "name": "amounts",
          "type": "uint256[]"
        },
        {
          "internalType": "bytes",
          "name": "data",
          "type": "bytes"
        }
      ],
      "name": "safeBatchTransferFrom",
      "outputs": [],
      "stateMutability": "nonpayable",
      "type": "function"
    },
    {
      "inputs": [
        {
          "internalType": "address",
          "name": "from",
          "type": "address"
        },
        {
          "internalType": "address",
          "name": "to",
          "type": "address"
        },
        {
          "internalType": "uint256",
          "name": "id",
          "type": "uint256"
        },
        {
          "internalType": "uint256",
          "name": "amount",
          "type": "uint256"
        },
        {
          "internalType": "bytes",
          "name": "data",
          "type": "bytes"
        }
      ],
      "name": "safeTransferFrom",
      "outputs": [],
      "stateMutability": "nonpayable",
      "type": "function"
    },
    {
      "inputs": [
        {
          "internalType": "address",
          "name": "operator",
          "type": "address"
        },
        {
          "internalType": "bool",
          "name": "approved",
          "type": "bool"
        }
      ],
      "name": "setApprovalForAll",
      "outputs": [],
      "stateMutability": "nonpayable",
      "type": "function"
    },
    {
      "inputs": [
        {
          "internalType": "string",
          "name": "newuri",
          "type": "string"
        }
      ],
      "name": "setURI",
      "outputs": [],
      "stateMutability": "nonpayable",
      "type": "function"
    },
    {
      "inputs": [
        {
          "internalType": "bytes4",
          "name": "interfaceId",
          "type": "bytes4"
        }
      ],
      "name": "supportsInterface",
      "outputs": [
        {
          "internalType": "bool",
          "name": "",
          "type": "bool"
        }
      ],
      "stateMutability": "view",
      "type": "function"
    },
    {
      "inputs": [
        {
          "internalType": "uint256",
          "name": "id",
          "type": "uint256"
        }
      ],
      "name": "totalSupply",
      "outputs": [
        {
          "internalType": "uint256",
          "name": "",
          "type": "uint256"
        }
      ],
      "stateMutability": "view",
      "type": "function"
    },
    {
      "inputs": [
        {
          "internalType": "uint256",
          "name": "",
          "type": "uint256"
        }
      ],
      "name": "uri",
      "outputs": [
        {
          "internalType": "string",
          "name": "",
          "type": "string"
        }
      ],
      "stateMutability": "view",
      "type": "function"
    }
  ],
  "bytecode": "0x60806040523480156200001157600080fd5b50604051806020016040528060008152506200003381620000df60201b60201c565b5062000060336000670de0b6b3a764000060405180602001604052806000815250620000f460201b60201c565b620000756000801b33620002db60201b60201c565b620000a77f7804d923f43a17d325d77e781528e0793b2edd9890ab45fc64efd7b4b427744c33620002db60201b60201c565b620000d97f9f2df0fed2c77648de5860a4cc508cd0818c85b8b8a1ab4ceeef8d981c8956a633620002db60201b60201c565b62001347565b8060029081620000f0919062000b82565b5050565b600073ffffffffffffffffffffffffffffffffffffffff168473ffffffffffffffffffffffffffffffffffffffff160362000166576040517f08c379a00000000000000000000000000000000000000000000000000000000081526004016200015d9062000cf0565b60405180910390fd5b600062000178620003cd60201b60201c565b905060006200018d85620003d560201b60201c565b90506000620001a285620003d560201b60201c565b9050620001bb836000898585896200045660201b60201c565b8460008088815260200190815260200160002060008973ffffffffffffffffffffffffffffffffffffffff1673ffffffffffffffffffffffffffffffffffffffff16815260200190815260200160002060008282546200021c919062000d41565b925050819055508673ffffffffffffffffffffffffffffffffffffffff16600073ffffffffffffffffffffffffffffffffffffffff168473ffffffffffffffffffffffffffffffffffffffff167fc3d58168c5ae7397731d063d5bbf3d657854427343f4c083240f7aacaa2d0f6289896040516200029c92919062000d8d565b60405180910390a4620002bb836000898585896200047960201b60201c565b620002d2836000898989896200048160201b60201c565b50505050505050565b620002ed82826200067a60201b60201c565b620003c95760016003600084815260200190815260200160002060000160008373ffffffffffffffffffffffffffffffffffffffff1673ffffffffffffffffffffffffffffffffffffffff16815260200190815260200160002060006101000a81548160ff0219169083151502179055506200036e620003cd60201b60201c565b73ffffffffffffffffffffffffffffffffffffffff168173ffffffffffffffffffffffffffffffffffffffff16837f2f8788117e7eff1d82e926ec794901d17c78024a50270940304540a733656f0d60405160405180910390a45b5050565b600033905090565b60606000600167ffffffffffffffff811115620003f757620003f662000913565b5b604051908082528060200260200182016040528015620004265781602001602082028036833780820191505090505b509050828160008151811062000441576200044062000dba565b5b60200260200101818152505080915050919050565b62000471868686868686620006e560201b62000b351760201c565b505050505050565b505050505050565b620004ad8473ffffffffffffffffffffffffffffffffffffffff16620008dd60201b62000d051760201c565b1562000672578373ffffffffffffffffffffffffffffffffffffffff1663f23a6e6187878686866040518663ffffffff1660e01b8152600401620004f695949392919062000ec8565b6020604051808303816000875af19250505080156200053557506040513d601f19601f8201168201806040525081019062000532919062000f98565b60015b620005e6576200054462000fd7565b806308c379a003620005a757506200055b62001032565b80620005685750620005a9565b806040517f08c379a00000000000000000000000000000000000000000000000000000000081526004016200059e91906200110e565b60405180910390fd5b505b6040517f08c379a0000000000000000000000000000000000000000000000000000000008152600401620005dd90620011a8565b60405180910390fd5b63f23a6e6160e01b7bffffffffffffffffffffffffffffffffffffffffffffffffffffffff1916817bffffffffffffffffffffffffffffffffffffffffffffffffffffffff19161462000670576040517f08c379a0000000000000000000000000000000000000000000000000000000008152600401620006679062001240565b60405180910390fd5b505b505050505050565b60006003600084815260200190815260200160002060000160008373ffffffffffffffffffffffffffffffffffffffff1673ffffffffffffffffffffffffffffffffffffffff16815260200190815260200160002060009054906101000a900460ff16905092915050565b620007008686868686866200090060201b62000d281760201c565b600073ffffffffffffffffffffffffffffffffffffffff168573ffffffffffffffffffffffffffffffffffffffff1603620007be5760005b8351811015620007bc5782818151811062000758576200075762000dba565b5b6020026020010151600460008684815181106200077a576200077962000dba565b5b602002602001015181526020019081526020016000206000828254620007a1919062000d41565b9250508190555080620007b49062001262565b905062000738565b505b600073ffffffffffffffffffffffffffffffffffffffff168473ffffffffffffffffffffffffffffffffffffffff1603620008d55760005b8351811015620008d357600084828151811062000818576200081762000dba565b5b6020026020010151905060008483815181106200083a576200083962000dba565b5b6020026020010151905060006004600084815260200190815260200160002054905081811015620008a2576040517f08c379a0000000000000000000000000000000000000000000000000000000008152600401620008999062001325565b60405180910390fd5b818103600460008581526020019081526020016000208190555050505080620008cb9062001262565b9050620007f6565b505b505050505050565b6000808273ffffffffffffffffffffffffffffffffffffffff163b119050919050565b505050505050565b600081519050919050565b7f4e487b7100000000000000000000000000000000000000000000000000000000600052604160045260246000fd5b7f4e487b7100000000000000000000000000000000000000000000000000000000600052602260045260246000fd5b600060028204905060018216806200098a57607f821691505b602082108103620009a0576200099f62000942565b5b50919050565b60008190508160005260206000209050919050565b60006020601f8301049050919050565b600082821b905092915050565b60006008830262000a0a7fffffffffffffffffffffffffffffffffffffffffffffffffffffffffffffffff82620009cb565b62000a168683620009cb565b95508019841693508086168417925050509392505050565b6000819050919050565b6000819050919050565b600062000a6362000a5d62000a578462000a2e565b62000a38565b62000a2e565b9050919050565b6000819050919050565b62000a7f8362000a42565b62000a9762000a8e8262000a6a565b848454620009d8565b825550505050565b600090565b62000aae62000a9f565b62000abb81848462000a74565b505050565b5b8181101562000ae35762000ad760008262000aa4565b60018101905062000ac1565b5050565b601f82111562000b325762000afc81620009a6565b62000b0784620009bb565b8101602085101562000b17578190505b62000b2f62000b2685620009bb565b83018262000ac0565b50505b505050565b600082821c905092915050565b600062000b576000198460080262000b37565b1980831691505092915050565b600062000b72838362000b44565b9150826002028217905092915050565b62000b8d8262000908565b67ffffffffffffffff81111562000ba95762000ba862000913565b5b62000bb5825462000971565b62000bc282828562000ae7565b600060209050601f83116001811462000bfa576000841562000be5578287015190505b62000bf1858262000b64565b86555062000c61565b601f19841662000c0a86620009a6565b60005b8281101562000c345784890151825560018201915060208501945060208101905062000c0d565b8683101562000c54578489015162000c50601f89168262000b44565b8355505b6001600288020188555050505b505050505050565b600082825260208201905092915050565b7f455243313135353a206d696e7420746f20746865207a65726f2061646472657360008201527f7300000000000000000000000000000000000000000000000000000000000000602082015250565b600062000cd860218362000c69565b915062000ce58262000c7a565b604082019050919050565b6000602082019050818103600083015262000d0b8162000cc9565b9050919050565b7f4e487b7100000000000000000000000000000000000000000000000000000000600052601160045260246000fd5b600062000d4e8262000a2e565b915062000d5b8362000a2e565b925082820190508082111562000d765762000d7562000d12565b5b92915050565b62000d878162000a2e565b82525050565b600060408201905062000da4600083018562000d7c565b62000db3602083018462000d7c565b9392505050565b7f4e487b7100000000000000000000000000000000000000000000000000000000600052603260045260246000fd5b600073ffffffffffffffffffffffffffffffffffffffff82169050919050565b600062000e168262000de9565b9050919050565b62000e288162000e09565b82525050565b600081519050919050565b600082825260208201905092915050565b60005b8381101562000e6a57808201518184015260208101905062000e4d565b60008484015250505050565b6000601f19601f8301169050919050565b600062000e948262000e2e565b62000ea0818562000e39565b935062000eb281856020860162000e4a565b62000ebd8162000e76565b840191505092915050565b600060a08201905062000edf600083018862000e1d565b62000eee602083018762000e1d565b62000efd604083018662000d7c565b62000f0c606083018562000d7c565b818103608083015262000f20818462000e87565b90509695505050505050565b6000604051905090565b600080fd5b60007fffffffff0000000000000000000000000000000000000000000000000000000082169050919050565b62000f728162000f3b565b811462000f7e57600080fd5b50565b60008151905062000f928162000f67565b92915050565b60006020828403121562000fb15762000fb062000f36565b5b600062000fc18482850162000f81565b91505092915050565b60008160e01c9050919050565b600060033d111562000ff95760046000803e62000ff660005162000fca565b90505b90565b620010078262000e76565b810181811067ffffffffffffffff8211171562001029576200102862000913565b5b80604052505050565b600060443d10620010ca576200104762000f2c565b60043d036004823e80513d602482011167ffffffffffffffff8211171562001071575050620010ca565b808201805167ffffffffffffffff811115620010915750505050620010ca565b80602083010160043d038501811115620010b0575050505050620010ca565b620010c18260200185018662000ffc565b82955050505050505b90565b6000620010da8262000908565b620010e6818562000c69565b9350620010f881856020860162000e4a565b620011038162000e76565b840191505092915050565b600060208201905081810360008301526200112a8184620010cd565b905092915050565b7f455243313135353a207472616e7366657220746f206e6f6e2d4552433131353560008201527f526563656976657220696d706c656d656e746572000000000000000000000000602082015250565b60006200119060348362000c69565b91506200119d8262001132565b604082019050919050565b60006020820190508181036000830152620011c38162001181565b9050919050565b7f455243313135353a204552433131353552656365697665722072656a6563746560008201527f6420746f6b656e73000000000000000000000000000000000000000000000000602082015250565b60006200122860288362000c69565b91506200123582620011ca565b604082019050919050565b600060208201905081810360008301526200125b8162001219565b9050919050565b60006200126f8262000a2e565b91507fffffffffffffffffffffffffffffffffffffffffffffffffffffffffffffffff8203620012a457620012a362000d12565b5b600182019050919050565b7f455243313135353a206275726e20616d6f756e74206578636565647320746f7460008201527f616c537570706c79000000000000000000000000000000000000000000000000602082015250565b60006200130d60288362000c69565b91506200131a82620012af565b604082019050919050565b600060208201905081810360008301526200134081620012fe565b9050919050565b613e1d80620013576000396000f3fe608060405234801561001057600080fd5b50600436106101365760003560e01c80634f558e79116100b8578063a22cb4651161007c578063a22cb4651461036f578063bd85b0391461038b578063d5391393146103bb578063d547741f146103d9578063e985e9c5146103f5578063f242432a1461042557610136565b80634f558e79146102b7578063731133e9146102e75780637f3457101461030357806391d1485414610321578063a217fddf1461035157610136565b8063248a9ca3116100ff578063248a9ca3146102035780632eb2c2d6146102335780632f2ff15d1461024f57806336568abe1461026b5780634e1273f41461028757610136565b8062fdd58e1461013b57806301ffc9a71461016b57806302fe53051461019b5780630e89341c146101b75780631f7fdffa146101e7575b600080fd5b610155600480360381019061015091906123c8565b610441565b6040516101629190612417565b60405180910390f35b6101856004803603810190610180919061248a565b610509565b60405161019291906124d2565b60405180910390f35b6101b560048036038101906101b09190612633565b61051b565b005b6101d160048036038101906101cc919061267c565b610552565b6040516101de9190612728565b60405180910390f35b61020160048036038101906101fc91906128b3565b6105e6565b005b61021d600480360381019061021891906129a4565b610623565b60405161022a91906129e0565b60405180910390f35b61024d600480360381019061024891906129fb565b610643565b005b61026960048036038101906102649190612aca565b6106e4565b005b61028560048036038101906102809190612aca565b610705565b005b6102a1600480360381019061029c9190612bcd565b610788565b6040516102ae9190612d03565b60405180910390f35b6102d160048036038101906102cc919061267c565b6108a1565b6040516102de91906124d2565b60405180910390f35b61030160048036038101906102fc9190612d25565b6108b5565b005b61030b6108f2565b60405161031891906129e0565b60405180910390f35b61033b60048036038101906103369190612aca565b610916565b60405161034891906124d2565b60405180910390f35b610359610981565b60405161036691906129e0565b60405180910390f35b61038960048036038101906103849190612dd4565b610988565b005b6103a560048036038101906103a0919061267c565b61099e565b6040516103b29190612417565b60405180910390f35b6103c36109bb565b6040516103d091906129e0565b60405180910390f35b6103f360048036038101906103ee9190612aca565b6109df565b005b61040f600480360381019061040a9190612e14565b610a00565b60405161041c91906124d2565b60405180910390f35b61043f600480360381019061043a9190612e54565b610a94565b005b60008073ffffffffffffffffffffffffffffffffffffffff168373ffffffffffffffffffffffffffffffffffffffff16036104b1576040517f08c379a00000000000000000000000000000000000000000000000000000000081526004016104a890612f5d565b60405180910390fd5b60008083815260200190815260200160002060008473ffffffffffffffffffffffffffffffffffffffff1673ffffffffffffffffffffffffffffffffffffffff16815260200190815260200160002054905092915050565b600061051482610d30565b9050919050565b7f7804d923f43a17d325d77e781528e0793b2edd9890ab45fc64efd7b4b427744c61054581610daa565b61054e82610dbe565b5050565b60606002805461056190612fac565b80601f016020809104026020016040519081016040528092919081815260200182805461058d90612fac565b80156105da5780601f106105af576101008083540402835291602001916105da565b820191906000526020600020905b8154815290600101906020018083116105bd57829003601f168201915b50505050509050919050565b7f9f2df0fed2c77648de5860a4cc508cd0818c85b8b8a1ab4ceeef8d981c8956a661061081610daa565b61061c85858585610dd1565b5050505050565b600060036000838152602001908152602001600020600101549050919050565b61064b610ffd565b73ffffffffffffffffffffffffffffffffffffffff168573ffffffffffffffffffffffffffffffffffffffff16148061069157506106908561068b610ffd565b610a00565b5b6106d0576040517f08c379a00000000000000000000000000000000000000000000000000000000081526004016106c79061304f565b60405180910390fd5b6106dd8585858585611005565b5050505050565b6106ed82610623565b6106f681610daa565b6107008383611326565b505050565b61070d610ffd565b73ffffffffffffffffffffffffffffffffffffffff168173ffffffffffffffffffffffffffffffffffffffff161461077a576040517f08c379a0000000000000000000000000000000000000000000000000000000008152600401610771906130e1565b60405180910390fd5b6107848282611407565b5050565b606081518351146107ce576040517f08c379a00000000000000000000000000000000000000000000000000000000081526004016107c590613173565b60405180910390fd5b6000835167ffffffffffffffff8111156107eb576107ea612508565b5b6040519080825280602002602001820160405280156108195781602001602082028036833780820191505090505b50905060005b84518110156108965761086685828151811061083e5761083d613193565b5b602002602001015185838151811061085957610858613193565b5b6020026020010151610441565b82828151811061087957610878613193565b5b6020026020010181815250508061088f906131f1565b905061081f565b508091505092915050565b6000806108ad8361099e565b119050919050565b7f9f2df0fed2c77648de5860a4cc508cd0818c85b8b8a1ab4ceeef8d981c8956a66108df81610daa565b6108eb858585856114e9565b5050505050565b7f7804d923f43a17d325d77e781528e0793b2edd9890ab45fc64efd7b4b427744c81565b60006003600084815260200190815260200160002060000160008373ffffffffffffffffffffffffffffffffffffffff1673ffffffffffffffffffffffffffffffffffffffff16815260200190815260200160002060009054906101000a900460ff16905092915050565b6000801b81565b61099a610993610ffd565b8383611699565b5050565b600060046000838152602001908152602001600020549050919050565b7f9f2df0fed2c77648de5860a4cc508cd0818c85b8b8a1ab4ceeef8d981c8956a681565b6109e882610623565b6109f181610daa565b6109fb8383611407565b505050565b6000600160008473ffffffffffffffffffffffffffffffffffffffff1673ffffffffffffffffffffffffffffffffffffffff16815260200190815260200160002060008373ffffffffffffffffffffffffffffffffffffffff1673ffffffffffffffffffffffffffffffffffffffff16815260200190815260200160002060009054906101000a900460ff16905092915050565b610a9c610ffd565b73ffffffffffffffffffffffffffffffffffffffff168573ffffffffffffffffffffffffffffffffffffffff161480610ae25750610ae185610adc610ffd565b610a00565b5b610b21576040517f08c379a0000000000000000000000000000000000000000000000000000000008152600401610b189061304f565b60405180910390fd5b610b2e8585858585611805565b5050505050565b610b43868686868686610d28565b600073ffffffffffffffffffffffffffffffffffffffff168573ffffffffffffffffffffffffffffffffffffffff1603610bf45760005b8351811015610bf257828181518110610b9657610b95613193565b5b602002602001015160046000868481518110610bb557610bb4613193565b5b602002602001015181526020019081526020016000206000828254610bda9190613239565b9250508190555080610beb906131f1565b9050610b7a565b505b600073ffffffffffffffffffffffffffffffffffffffff168473ffffffffffffffffffffffffffffffffffffffff1603610cfd5760005b8351811015610cfb576000848281518110610c4957610c48613193565b5b602002602001015190506000848381518110610c6857610c67613193565b5b6020026020010151905060006004600084815260200190815260200160002054905081811015610ccd576040517f08c379a0000000000000000000000000000000000000000000000000000000008152600401610cc4906132df565b60405180910390fd5b818103600460008581526020019081526020016000208190555050505080610cf4906131f1565b9050610c2b565b505b505050505050565b6000808273ffffffffffffffffffffffffffffffffffffffff163b119050919050565b505050505050565b60007f7965db0b000000000000000000000000000000000000000000000000000000007bffffffffffffffffffffffffffffffffffffffffffffffffffffffff1916827bffffffffffffffffffffffffffffffffffffffffffffffffffffffff19161480610da35750610da282611aa0565b5b9050919050565b610dbb81610db6610ffd565b611b82565b50565b8060029081610dcd91906134ab565b5050565b600073ffffffffffffffffffffffffffffffffffffffff168473ffffffffffffffffffffffffffffffffffffffff1603610e40576040517f08c379a0000000000000000000000000000000000000000000000000000000008152600401610e37906135ef565b60405180910390fd5b8151835114610e84576040517f08c379a0000000000000000000000000000000000000000000000000000000008152600401610e7b90613681565b60405180910390fd5b6000610e8e610ffd565b9050610e9f81600087878787611c07565b60005b8451811015610f5857838181518110610ebe57610ebd613193565b5b6020026020010151600080878481518110610edc57610edb613193565b5b6020026020010151815260200190815260200160002060008873ffffffffffffffffffffffffffffffffffffffff1673ffffffffffffffffffffffffffffffffffffffff1681526020019081526020016000206000828254610f3e9190613239565b925050819055508080610f50906131f1565b915050610ea2565b508473ffffffffffffffffffffffffffffffffffffffff16600073ffffffffffffffffffffffffffffffffffffffff168273ffffffffffffffffffffffffffffffffffffffff167f4a39dc06d4c0dbc64b70af90fd698a233a518aa5d07e595d983b8c0526c8f7fb8787604051610fd09291906136a1565b60405180910390a4610fe781600087878787611c1d565b610ff681600087878787611c25565b5050505050565b600033905090565b8151835114611049576040517f08c379a000000000000000000000000000000000000000000000000000000000815260040161104090613681565b60405180910390fd5b600073ffffffffffffffffffffffffffffffffffffffff168473ffffffffffffffffffffffffffffffffffffffff16036110b8576040517f08c379a00000000000000000000000000000000000000000000000000000000081526004016110af9061374a565b60405180910390fd5b60006110c2610ffd565b90506110d2818787878787611c07565b60005b84518110156112835760008582815181106110f3576110f2613193565b5b60200260200101519050600085838151811061111257611111613193565b5b60200260200101519050600080600084815260200190815260200160002060008b73ffffffffffffffffffffffffffffffffffffffff1673ffffffffffffffffffffffffffffffffffffffff168152602001908152602001600020549050818110156111b3576040517f08c379a00000000000000000000000000000000000000000000000000000000081526004016111aa906137dc565b60405180910390fd5b81810360008085815260200190815260200160002060008c73ffffffffffffffffffffffffffffffffffffffff1673ffffffffffffffffffffffffffffffffffffffff168152602001908152602001600020819055508160008085815260200190815260200160002060008b73ffffffffffffffffffffffffffffffffffffffff1673ffffffffffffffffffffffffffffffffffffffff16815260200190815260200160002060008282546112689190613239565b925050819055505050508061127c906131f1565b90506110d5565b508473ffffffffffffffffffffffffffffffffffffffff168673ffffffffffffffffffffffffffffffffffffffff168273ffffffffffffffffffffffffffffffffffffffff167f4a39dc06d4c0dbc64b70af90fd698a233a518aa5d07e595d983b8c0526c8f7fb87876040516112fa9291906136a1565b60405180910390a4611310818787878787611c1d565b61131e818787878787611c25565b505050505050565b6113308282610916565b6114035760016003600084815260200190815260200160002060000160008373ffffffffffffffffffffffffffffffffffffffff1673ffffffffffffffffffffffffffffffffffffffff16815260200190815260200160002060006101000a81548160ff0219169083151502179055506113a8610ffd565b73ffffffffffffffffffffffffffffffffffffffff168173ffffffffffffffffffffffffffffffffffffffff16837f2f8788117e7eff1d82e926ec794901d17c78024a50270940304540a733656f0d60405160405180910390a45b5050565b6114118282610916565b156114e55760006003600084815260200190815260200160002060000160008373ffffffffffffffffffffffffffffffffffffffff1673ffffffffffffffffffffffffffffffffffffffff16815260200190815260200160002060006101000a81548160ff02191690831515021790555061148a610ffd565b73ffffffffffffffffffffffffffffffffffffffff168173ffffffffffffffffffffffffffffffffffffffff16837ff6391f5c32d9c69d2a47ea670b442974b53935d1edc7fd64eb21e047a839171b60405160405180910390a45b5050565b600073ffffffffffffffffffffffffffffffffffffffff168473ffffffffffffffffffffffffffffffffffffffff1603611558576040517f08c379a000000000000000000000000000000000000000000000000000000000815260040161154f906135ef565b60405180910390fd5b6000611562610ffd565b9050600061156f85611dfc565b9050600061157c85611dfc565b905061158d83600089858589611c07565b8460008088815260200190815260200160002060008973ffffffffffffffffffffffffffffffffffffffff1673ffffffffffffffffffffffffffffffffffffffff16815260200190815260200160002060008282546115ec9190613239565b925050819055508673ffffffffffffffffffffffffffffffffffffffff16600073ffffffffffffffffffffffffffffffffffffffff168473ffffffffffffffffffffffffffffffffffffffff167fc3d58168c5ae7397731d063d5bbf3d657854427343f4c083240f7aacaa2d0f62898960405161166a9291906137fc565b60405180910390a461168183600089858589611c1d565b61169083600089898989611e76565b50505050505050565b8173ffffffffffffffffffffffffffffffffffffffff168373ffffffffffffffffffffffffffffffffffffffff1603611707576040517f08c379a00000000000000000000000000000000000000000000000000000000081526004016116fe90613897565b60405180910390fd5b80600160008573ffffffffffffffffffffffffffffffffffffffff1673ffffffffffffffffffffffffffffffffffffffff16815260200190815260200160002060008473ffffffffffffffffffffffffffffffffffffffff1673ffffffffffffffffffffffffffffffffffffffff16815260200190815260200160002060006101000a81548160ff0219169083151502179055508173ffffffffffffffffffffffffffffffffffffffff168373ffffffffffffffffffffffffffffffffffffffff167f17307eab39ab6107e8899845ad3d59bd9653f200f220920489ca2b5937696c31836040516117f891906124d2565b60405180910390a3505050565b600073ffffffffffffffffffffffffffffffffffffffff168473ffffffffffffffffffffffffffffffffffffffff1603611874576040517f08c379a000000000000000000000000000000000000000000000000000000000815260040161186b9061374a565b60405180910390fd5b600061187e610ffd565b9050600061188b85611dfc565b9050600061189885611dfc565b90506118a8838989858589611c07565b600080600088815260200190815260200160002060008a73ffffffffffffffffffffffffffffffffffffffff1673ffffffffffffffffffffffffffffffffffffffff1681526020019081526020016000205490508581101561193f576040517f08c379a0000000000000000000000000000000000000000000000000000000008152600401611936906137dc565b60405180910390fd5b85810360008089815260200190815260200160002060008b73ffffffffffffffffffffffffffffffffffffffff1673ffffffffffffffffffffffffffffffffffffffff168152602001908152602001600020819055508560008089815260200190815260200160002060008a73ffffffffffffffffffffffffffffffffffffffff1673ffffffffffffffffffffffffffffffffffffffff16815260200190815260200160002060008282546119f49190613239565b925050819055508773ffffffffffffffffffffffffffffffffffffffff168973ffffffffffffffffffffffffffffffffffffffff168573ffffffffffffffffffffffffffffffffffffffff167fc3d58168c5ae7397731d063d5bbf3d657854427343f4c083240f7aacaa2d0f628a8a604051611a719291906137fc565b60405180910390a4611a87848a8a86868a611c1d565b611a95848a8a8a8a8a611e76565b505050505050505050565b60007fd9b67a26000000000000000000000000000000000000000000000000000000007bffffffffffffffffffffffffffffffffffffffffffffffffffffffff1916827bffffffffffffffffffffffffffffffffffffffffffffffffffffffff19161480611b6b57507f0e89341c000000000000000000000000000000000000000000000000000000007bffffffffffffffffffffffffffffffffffffffffffffffffffffffff1916827bffffffffffffffffffffffffffffffffffffffffffffffffffffffff1916145b80611b7b5750611b7a8261204d565b5b9050919050565b611b8c8282610916565b611c0357611b99816120b7565b611ba78360001c60206120e4565b604051602001611bb892919061398b565b6040516020818303038152906040526040517f08c379a0000000000000000000000000000000000000000000000000000000008152600401611bfa9190612728565b60405180910390fd5b5050565b611c15868686868686610b35565b505050505050565b505050505050565b611c448473ffffffffffffffffffffffffffffffffffffffff16610d05565b15611df4578373ffffffffffffffffffffffffffffffffffffffff1663bc197c8187878686866040518663ffffffff1660e01b8152600401611c8a959493929190613a29565b6020604051808303816000875af1925050508015611cc657506040513d601f19601f82011682018060405250810190611cc39190613aa6565b60015b611d6b57611cd2613ae0565b806308c379a003611d2e5750611ce6613b02565b80611cf15750611d30565b806040517f08c379a0000000000000000000000000000000000000000000000000000000008152600401611d259190612728565b60405180910390fd5b505b6040517f08c379a0000000000000000000000000000000000000000000000000000000008152600401611d6290613c04565b60405180910390fd5b63bc197c8160e01b7bffffffffffffffffffffffffffffffffffffffffffffffffffffffff1916817bffffffffffffffffffffffffffffffffffffffffffffffffffffffff191614611df2576040517f08c379a0000000000000000000000000000000000000000000000000000000008152600401611de990613c96565b60405180910390fd5b505b505050505050565b60606000600167ffffffffffffffff811115611e1b57611e1a612508565b5b604051908082528060200260200182016040528015611e495781602001602082028036833780820191505090505b5090508281600081518110611e6157611e60613193565b5b60200260200101818152505080915050919050565b611e958473ffffffffffffffffffffffffffffffffffffffff16610d05565b15612045578373ffffffffffffffffffffffffffffffffffffffff1663f23a6e6187878686866040518663ffffffff1660e01b8152600401611edb959493929190613cb6565b6020604051808303816000875af1925050508015611f1757506040513d601f19601f82011682018060405250810190611f149190613aa6565b60015b611fbc57611f23613ae0565b806308c379a003611f7f5750611f37613b02565b80611f425750611f81565b806040517f08c379a0000000000000000000000000000000000000000000000000000000008152600401611f769190612728565b60405180910390fd5b505b6040517f08c379a0000000000000000000000000000000000000000000000000000000008152600401611fb390613c04565b60405180910390fd5b63f23a6e6160e01b7bffffffffffffffffffffffffffffffffffffffffffffffffffffffff1916817bffffffffffffffffffffffffffffffffffffffffffffffffffffffff191614612043576040517f08c379a000000000000000000000000000000000000000000000000000000000815260040161203a90613c96565b60405180910390fd5b505b505050505050565b60007f01ffc9a7000000000000000000000000000000000000000000000000000000007bffffffffffffffffffffffffffffffffffffffffffffffffffffffff1916827bffffffffffffffffffffffffffffffffffffffffffffffffffffffff1916149050919050565b60606120dd8273ffffffffffffffffffffffffffffffffffffffff16601460ff166120e4565b9050919050565b6060600060028360026120f79190613d10565b6121019190613239565b67ffffffffffffffff81111561211a57612119612508565b5b6040519080825280601f01601f19166020018201604052801561214c5781602001600182028036833780820191505090505b5090507f30000000000000000000000000000000000000000000000000000000000000008160008151811061218457612183613193565b5b60200101907effffffffffffffffffffffffffffffffffffffffffffffffffffffffffffff1916908160001a9053507f7800000000000000000000000000000000000000000000000000000000000000816001815181106121e8576121e7613193565b5b60200101907effffffffffffffffffffffffffffffffffffffffffffffffffffffffffffff1916908160001a905350600060018460026122289190613d10565b6122329190613239565b90505b60018111156122d2577f3031323334353637383961626364656600000000000000000000000000000000600f86166010811061227457612273613193565b5b1a60f81b82828151811061228b5761228a613193565b5b60200101907effffffffffffffffffffffffffffffffffffffffffffffffffffffffffffff1916908160001a905350600485901c9450806122cb90613d52565b9050612235565b5060008414612316576040517f08c379a000000000000000000000000000000000000000000000000000000000815260040161230d90613dc7565b60405180910390fd5b8091505092915050565b6000604051905090565b600080fd5b600080fd5b600073ffffffffffffffffffffffffffffffffffffffff82169050919050565b600061235f82612334565b9050919050565b61236f81612354565b811461237a57600080fd5b50565b60008135905061238c81612366565b92915050565b6000819050919050565b6123a581612392565b81146123b057600080fd5b50565b6000813590506123c28161239c565b92915050565b600080604083850312156123df576123de61232a565b5b60006123ed8582860161237d565b92505060206123fe858286016123b3565b9150509250929050565b61241181612392565b82525050565b600060208201905061242c6000830184612408565b92915050565b60007fffffffff0000000000000000000000000000000000000000000000000000000082169050919050565b61246781612432565b811461247257600080fd5b50565b6000813590506124848161245e565b92915050565b6000602082840312156124a05761249f61232a565b5b60006124ae84828501612475565b91505092915050565b60008115159050919050565b6124cc816124b7565b82525050565b60006020820190506124e760008301846124c3565b92915050565b600080fd5b600080fd5b6000601f19601f8301169050919050565b7f4e487b7100000000000000000000000000000000000000000000000000000000600052604160045260246000fd5b612540826124f7565b810181811067ffffffffffffffff8211171561255f5761255e612508565b5b80604052505050565b6000612572612320565b905061257e8282612537565b919050565b600067ffffffffffffffff82111561259e5761259d612508565b5b6125a7826124f7565b9050602081019050919050565b82818337600083830152505050565b60006125d66125d184612583565b612568565b9050828152602081018484840111156125f2576125f16124f2565b5b6125fd8482856125b4565b509392505050565b600082601f83011261261a576126196124ed565b5b813561262a8482602086016125c3565b91505092915050565b6000602082840312156126495761264861232a565b5b600082013567ffffffffffffffff8111156126675761266661232f565b5b61267384828501612605565b91505092915050565b6000602082840312156126925761269161232a565b5b60006126a0848285016123b3565b91505092915050565b600081519050919050565b600082825260208201905092915050565b60005b838110156126e35780820151818401526020810190506126c8565b60008484015250505050565b60006126fa826126a9565b61270481856126b4565b93506127148185602086016126c5565b61271d816124f7565b840191505092915050565b6000602082019050818103600083015261274281846126ef565b905092915050565b600067ffffffffffffffff82111561276557612764612508565b5b602082029050602081019050919050565b600080fd5b600061278e6127898461274a565b612568565b905080838252602082019050602084028301858111156127b1576127b0612776565b5b835b818110156127da57806127c688826123b3565b8452602084019350506020810190506127b3565b5050509392505050565b600082601f8301126127f9576127f86124ed565b5b813561280984826020860161277b565b91505092915050565b600067ffffffffffffffff82111561282d5761282c612508565b5b612836826124f7565b9050602081019050919050565b600061285661285184612812565b612568565b905082815260208101848484011115612872576128716124f2565b5b61287d8482856125b4565b509392505050565b600082601f83011261289a576128996124ed565b5b81356128aa848260208601612843565b91505092915050565b600080600080608085870312156128cd576128cc61232a565b5b60006128db8782880161237d565b945050602085013567ffffffffffffffff8111156128fc576128fb61232f565b5b612908878288016127e4565b935050604085013567ffffffffffffffff8111156129295761292861232f565b5b612935878288016127e4565b925050606085013567ffffffffffffffff8111156129565761295561232f565b5b61296287828801612885565b91505092959194509250565b6000819050919050565b6129818161296e565b811461298c57600080fd5b50565b60008135905061299e81612978565b92915050565b6000602082840312156129ba576129b961232a565b5b60006129c88482850161298f565b91505092915050565b6129da8161296e565b82525050565b60006020820190506129f560008301846129d1565b92915050565b600080600080600060a08688031215612a1757612a1661232a565b5b6000612a258882890161237d565b9550506020612a368882890161237d565b945050604086013567ffffffffffffffff811115612a5757612a5661232f565b5b612a63888289016127e4565b935050606086013567ffffffffffffffff811115612a8457612a8361232f565b5b612a90888289016127e4565b925050608086013567ffffffffffffffff811115612ab157612ab061232f565b5b612abd88828901612885565b9150509295509295909350565b60008060408385031215612ae157612ae061232a565b5b6000612aef8582860161298f565b9250506020612b008582860161237d565b9150509250929050565b600067ffffffffffffffff821115612b2557612b24612508565b5b602082029050602081019050919050565b6000612b49612b4484612b0a565b612568565b90508083825260208201905060208402830185811115612b6c57612b6b612776565b5b835b81811015612b955780612b81888261237d565b845260208401935050602081019050612b6e565b5050509392505050565b600082601f830112612bb457612bb36124ed565b5b8135612bc4848260208601612b36565b91505092915050565b60008060408385031215612be457612be361232a565b5b600083013567ffffffffffffffff811115612c0257612c0161232f565b5b612c0e85828601612b9f565b925050602083013567ffffffffffffffff811115612c2f57612c2e61232f565b5b612c3b858286016127e4565b9150509250929050565b600081519050919050565b600082825260208201905092915050565b6000819050602082019050919050565b612c7a81612392565b82525050565b6000612c8c8383612c71565b60208301905092915050565b6000602082019050919050565b6000612cb082612c45565b612cba8185612c50565b9350612cc583612c61565b8060005b83811015612cf6578151612cdd8882612c80565b9750612ce883612c98565b925050600181019050612cc9565b5085935050505092915050565b60006020820190508181036000830152612d1d8184612ca5565b905092915050565b60008060008060808587031215612d3f57612d3e61232a565b5b6000612d4d8782880161237d565b9450506020612d5e878288016123b3565b9350506040612d6f878288016123b3565b925050606085013567ffffffffffffffff811115612d9057612d8f61232f565b5b612d9c87828801612885565b91505092959194509250565b612db1816124b7565b8114612dbc57600080fd5b50565b600081359050612dce81612da8565b92915050565b60008060408385031215612deb57612dea61232a565b5b6000612df98582860161237d565b9250506020612e0a85828601612dbf565b9150509250929050565b60008060408385031215612e2b57612e2a61232a565b5b6000612e398582860161237d565b9250506020612e4a8582860161237d565b9150509250929050565b600080600080600060a08688031215612e7057612e6f61232a565b5b6000612e7e8882890161237d565b9550506020612e8f8882890161237d565b9450506040612ea0888289016123b3565b9350506060612eb1888289016123b3565b925050608086013567ffffffffffffffff811115612ed257612ed161232f565b5b612ede88828901612885565b9150509295509295909350565b7f455243313135353a2061646472657373207a65726f206973206e6f742061207660008201527f616c6964206f776e657200000000000000000000000000000000000000000000602082015250565b6000612f47602a836126b4565b9150612f5282612eeb565b604082019050919050565b60006020820190508181036000830152612f7681612f3a565b9050919050565b7f4e487b7100000000000000000000000000000000000000000000000000000000600052602260045260246000fd5b60006002820490506001821680612fc457607f821691505b602082108103612fd757612fd6612f7d565b5b50919050565b7f455243313135353a2063616c6c6572206973206e6f7420746f6b656e206f776e60008201527f6572206f7220617070726f766564000000000000000000000000000000000000602082015250565b6000613039602e836126b4565b915061304482612fdd565b604082019050919050565b600060208201905081810360008301526130688161302c565b9050919050565b7f416363657373436f6e74726f6c3a2063616e206f6e6c792072656e6f756e636560008201527f20726f6c657320666f722073656c660000000000000000000000000000000000602082015250565b60006130cb602f836126b4565b91506130d68261306f565b604082019050919050565b600060208201905081810360008301526130fa816130be565b9050919050565b7f455243313135353a206163636f756e747320616e6420696473206c656e67746860008201527f206d69736d617463680000000000000000000000000000000000000000000000602082015250565b600061315d6029836126b4565b915061316882613101565b604082019050919050565b6000602082019050818103600083015261318c81613150565b9050919050565b7f4e487b7100000000000000000000000000000000000000000000000000000000600052603260045260246000fd5b7f4e487b7100000000000000000000000000000000000000000000000000000000600052601160045260246000fd5b60006131fc82612392565b91507fffffffffffffffffffffffffffffffffffffffffffffffffffffffffffffffff820361322e5761322d6131c2565b5b600182019050919050565b600061324482612392565b915061324f83612392565b9250828201905080821115613267576132666131c2565b5b92915050565b7f455243313135353a206275726e20616d6f756e74206578636565647320746f7460008201527f616c537570706c79000000000000000000000000000000000000000000000000602082015250565b60006132c96028836126b4565b91506132d48261326d565b604082019050919050565b600060208201905081810360008301526132f8816132bc565b9050919050565b60008190508160005260206000209050919050565b60006020601f8301049050919050565b600082821b905092915050565b6000600883026133617fffffffffffffffffffffffffffffffffffffffffffffffffffffffffffffffff82613324565b61336b8683613324565b95508019841693508086168417925050509392505050565b6000819050919050565b60006133a86133a361339e84612392565b613383565b612392565b9050919050565b6000819050919050565b6133c28361338d565b6133d66133ce826133af565b848454613331565b825550505050565b600090565b6133eb6133de565b6133f68184846133b9565b505050565b5b8181101561341a5761340f6000826133e3565b6001810190506133fc565b5050565b601f82111561345f57613430816132ff565b61343984613314565b81016020851015613448578190505b61345c61345485613314565b8301826133fb565b50505b505050565b600082821c905092915050565b600061348260001984600802613464565b1980831691505092915050565b600061349b8383613471565b9150826002028217905092915050565b6134b4826126a9565b67ffffffffffffffff8111156134cd576134cc612508565b5b6134d78254612fac565b6134e282828561341e565b600060209050601f8311600181146135155760008415613503578287015190505b61350d858261348f565b865550613575565b601f198416613523866132ff565b60005b8281101561354b57848901518255600182019150602085019450602081019050613526565b868310156135685784890151613564601f891682613471565b8355505b6001600288020188555050505b505050505050565b7f455243313135353a206d696e7420746f20746865207a65726f2061646472657360008201527f7300000000000000000000000000000000000000000000000000000000000000602082015250565b60006135d96021836126b4565b91506135e48261357d565b604082019050919050565b60006020820190508181036000830152613608816135cc565b9050919050565b7f455243313135353a2069647320616e6420616d6f756e7473206c656e6774682060008201527f6d69736d61746368000000000000000000000000000000000000000000000000602082015250565b600061366b6028836126b4565b91506136768261360f565b604082019050919050565b6000602082019050818103600083015261369a8161365e565b9050919050565b600060408201905081810360008301526136bb8185612ca5565b905081810360208301526136cf8184612ca5565b90509392505050565b7f455243313135353a207472616e7366657220746f20746865207a65726f20616460008201527f6472657373000000000000000000000000000000000000000000000000000000602082015250565b60006137346025836126b4565b915061373f826136d8565b604082019050919050565b6000602082019050818103600083015261376381613727565b9050919050565b7f455243313135353a20696e73756666696369656e742062616c616e636520666f60008201527f72207472616e7366657200000000000000000000000000000000000000000000602082015250565b60006137c6602a836126b4565b91506137d18261376a565b604082019050919050565b600060208201905081810360008301526137f5816137b9565b9050919050565b60006040820190506138116000830185612408565b61381e6020830184612408565b9392505050565b7f455243313135353a2073657474696e6720617070726f76616c2073746174757360008201527f20666f722073656c660000000000000000000000000000000000000000000000602082015250565b60006138816029836126b4565b915061388c82613825565b604082019050919050565b600060208201905081810360008301526138b081613874565b9050919050565b600081905092915050565b7f416363657373436f6e74726f6c3a206163636f756e7420000000000000000000600082015250565b60006138f86017836138b7565b9150613903826138c2565b601782019050919050565b6000613919826126a9565b61392381856138b7565b93506139338185602086016126c5565b80840191505092915050565b7f206973206d697373696e6720726f6c6520000000000000000000000000000000600082015250565b60006139756011836138b7565b91506139808261393f565b601182019050919050565b6000613996826138eb565b91506139a2828561390e565b91506139ad82613968565b91506139b9828461390e565b91508190509392505050565b6139ce81612354565b82525050565b600081519050919050565b600082825260208201905092915050565b60006139fb826139d4565b613a0581856139df565b9350613a158185602086016126c5565b613a1e816124f7565b840191505092915050565b600060a082019050613a3e60008301886139c5565b613a4b60208301876139c5565b8181036040830152613a5d8186612ca5565b90508181036060830152613a718185612ca5565b90508181036080830152613a8581846139f0565b90509695505050505050565b600081519050613aa08161245e565b92915050565b600060208284031215613abc57613abb61232a565b5b6000613aca84828501613a91565b91505092915050565b60008160e01c9050919050565b600060033d1115613aff5760046000803e613afc600051613ad3565b90505b90565b600060443d10613b8f57613b14612320565b60043d036004823e80513d602482011167ffffffffffffffff82111715613b3c575050613b8f565b808201805167ffffffffffffffff811115613b5a5750505050613b8f565b80602083010160043d038501811115613b77575050505050613b8f565b613b8682602001850186612537565b82955050505050505b90565b7f455243313135353a207472616e7366657220746f206e6f6e2d4552433131353560008201527f526563656976657220696d706c656d656e746572000000000000000000000000602082015250565b6000613bee6034836126b4565b9150613bf982613b92565b604082019050919050565b60006020820190508181036000830152613c1d81613be1565b9050919050565b7f455243313135353a204552433131353552656365697665722072656a6563746560008201527f6420746f6b656e73000000000000000000000000000000000000000000000000602082015250565b6000613c806028836126b4565b9150613c8b82613c24565b604082019050919050565b60006020820190508181036000830152613caf81613c73565b9050919050565b600060a082019050613ccb60008301886139c5565b613cd860208301876139c5565b613ce56040830186612408565b613cf26060830185612408565b8181036080830152613d0481846139f0565b90509695505050505050565b6000613d1b82612392565b9150613d2683612392565b9250828202613d3481612392565b91508282048414831517613d4b57613d4a6131c2565b5b5092915050565b6000613d5d82612392565b915060008203613d7057613d6f6131c2565b5b600182039050919050565b7f537472696e67733a20686578206c656e67746820696e73756666696369656e74600082015250565b6000613db16020836126b4565b9150613dbc82613d7b565b602082019050919050565b60006020820190508181036000830152613de081613da4565b905091905056fea26469706673582212202bd6b9ec8f28bbf6492154e8e408cf4a647f369949a94dff230fb924533c081b64736f6c63430008120033",
  "linkReferences": {},
  "deployedLinkReferences": {}
}